ARM Linker, 4.1 [Build 791] 

==============================================================================

Image Symbol Table

    Local Symbols

    Symbol Name                              Value     Ov Type        Size  Object(Section)

    ../../angel/rt.s                         0x00000000   Number         0  rt_raise.o ABSOLUTE
    ../../signal.c                           0x00000000   Number         0  defsig_other.o ABSOLUTE
    ../../signal.c                           0x00000000   Number         0  defsig_segv_inner.o ABSOLUTE
    ../../signal.c                           0x00000000   Number         0  defsig_cppl_inner.o ABSOLUTE
    ../../signal.c                           0x00000000   Number         0  defsig_pvfn_inner.o ABSOLUTE
    ../../signal.c                           0x00000000   Number         0  defsig_stak_inner.o ABSOLUTE
    ../../signal.c                           0x00000000   Number         0  defsig_rtred_inner.o ABSOLUTE
    ../../signal.c                           0x00000000   Number         0  defsig_fpe_inner.o ABSOLUTE
    ../../signal.c                           0x00000000   Number         0  __raise.o ABSOLUTE
    ../../signal.c                           0x00000000   Number         0  defsig_abrt_inner.o ABSOLUTE
    ../../signal.c                           0x00000000   Number         0  defsig_abrt_formal.o ABSOLUTE
    ../../signal.c                           0x00000000   Number         0  defsig_abrt_outer.o ABSOLUTE
    ../../signal.s                           0x00000000   Number         0  defsig.o ABSOLUTE
    ../../stdlib.c                           0x00000000   Number         0  abort.o ABSOLUTE
    /local/mnt/workspace/CRMBuilds/BTFM.RM.2.2-00163-QCABTFMSWPZ-1_20161115_235757/b/btfm_proc/bt_30/rampatch/bt/apps/wipower/BleStack/build/wcss_ram_uart/cortex-m0/SCAQBAF/src/SAL/patch_BLE_SAL_Interface.o.i.i 0x00000000   Number         0  patch_BLE_SAL_Interface.o ABSOLUTE
    /local/mnt/workspace/CRMBuilds/BTFM.RM.2.2-00163-QCABTFMSWPZ-1_20161115_235757/b/btfm_proc/bt_30/rampatch/bt/apps/wipower/BleStack/build/wcss_ram_uart/cortex-m0/SCAQBAF/src/bth_router/patch_bth_stack.o.i.i 0x00000000   Number         0  patch_bth_stack.o ABSOLUTE
    /local/mnt/workspace/CRMBuilds/BTFM.RM.2.2-00163-QCABTFMSWPZ-1_20161115_235757/b/btfm_proc/bt_30/rampatch/bt/apps/wipower/BleStack/build/wcss_ram_uart/cortex-m0/SCAQBAF/src/le/gap/patch_gap.o.i.i 0x00000000   Number         0  patch_gap.o ABSOLUTE
    /local/mnt/workspace/CRMBuilds/BTFM.RM.2.2-00163-QCABTFMSWPZ-1_20161115_235757/b/btfm_proc/bt_30/rampatch/bt/apps/wipower/a4wp/build/wcss_ram_uart/cortex-m0/SCAQBAF/patch_pru.o.i.i 0x00000000   Number         0  patch_pru.o ABSOLUTE
    /local/mnt/workspace/CRMBuilds/BTFM.RM.2.2-00163-QCABTFMSWPZ-1_20161115_235757/b/btfm_proc/bt_30/rampatch/bt/platform/coex/build/wcss_ram_uart/cortex-m0/SCAQBAF/MCI/src/patch_PFAL_COEX_MCI.o.i.i 0x00000000   Number         0  patch_PFAL_COEX_MCI.o ABSOLUTE
    /local/mnt/workspace/CRMBuilds/BTFM.RM.2.2-00163-QCABTFMSWPZ-1_20161115_235757/b/btfm_proc/bt_30/rampatch/bt/platform/coex/build/wcss_ram_uart/cortex-m0/SCAQBAF/MCI/src/patch_PFAL_COEX_MCI_HW.o.i.i 0x00000000   Number         0  patch_PFAL_COEX_MCI_HW.o ABSOLUTE
    /local/mnt/workspace/CRMBuilds/BTFM.RM.2.2-00163-QCABTFMSWPZ-1_20161115_235757/b/btfm_proc/bt_30/rampatch/bt/platform/coex/build/wcss_ram_uart/cortex-m0/SCAQBAF/MCI/src/patch_PFAL_COEX_MCI_UTIL.o.i.i 0x00000000   Number         0  patch_PFAL_COEX_MCI_UTIL.o ABSOLUTE
    /local/mnt/workspace/CRMBuilds/BTFM.RM.2.2-00163-QCABTFMSWPZ-1_20161115_235757/b/btfm_proc/bt_30/rampatch/bt/platform/coex/build/wcss_ram_uart/cortex-m0/SCAQBAF/MWS/src/patch_PFAL_COEX_MWS.o.i.i 0x00000000   Number         0  patch_PFAL_COEX_MWS.o ABSOLUTE
    /local/mnt/workspace/CRMBuilds/BTFM.RM.2.2-00163-QCABTFMSWPZ-1_20161115_235757/b/btfm_proc/bt_30/rampatch/bt/platform/core/build/wcss_ram_uart/cortex-m0/SCAQBAF/src/patch_PF_OS.o.i.i 0x00000000   Number         0  patch_PF_OS.o ABSOLUTE
    /local/mnt/workspace/CRMBuilds/BTFM.RM.2.2-00163-QCABTFMSWPZ-1_20161115_235757/b/btfm_proc/bt_30/rampatch/bt/platform/dbg/build/wcss_ram_uart/cortex-m0/SCAQBAF/src/patch_PFAL_DBG.o.i.i 0x00000000   Number         0  patch_PFAL_DBG.o ABSOLUTE
    /local/mnt/workspace/CRMBuilds/BTFM.RM.2.2-00163-QCABTFMSWPZ-1_20161115_235757/b/btfm_proc/bt_30/rampatch/bt/platform/dbg/build/wcss_ram_uart/cortex-m0/SCAQBAF/src/patch_PFAL_DBG_hci_vendor.o.i.i 0x00000000   Number         0  patch_PFAL_DBG_hci_vendor.o ABSOLUTE
    /local/mnt/workspace/CRMBuilds/BTFM.RM.2.2-00163-QCABTFMSWPZ-1_20161115_235757/b/btfm_proc/bt_30/rampatch/bt/platform/pfal/aes/build/wcss_ram_uart/cortex-m0/SCAQBAF/src/patch_PFAL_AES.o.i.i 0x00000000   Number         0  patch_PFAL_AES.o ABSOLUTE
    /local/mnt/workspace/CRMBuilds/BTFM.RM.2.2-00163-QCABTFMSWPZ-1_20161115_235757/b/btfm_proc/bt_30/rampatch/bt/platform/pfal/eeprom/build/wcss_ram_uart/cortex-m0/SCAQBAF/src/patch_PFAL_EEPROM.o.i.i 0x00000000   Number         0  patch_PFAL_EEPROM.o ABSOLUTE
    /local/mnt/workspace/CRMBuilds/BTFM.RM.2.2-00163-QCABTFMSWPZ-1_20161115_235757/b/btfm_proc/bt_30/rampatch/bt/platform/pfal/gpio/build/wcss_ram_uart/cortex-m0/SCAQBAF/src/patch_PFAL_GPIO_MUX.o.i.i 0x00000000   Number         0  patch_PFAL_GPIO_MUX.o ABSOLUTE
    /local/mnt/workspace/CRMBuilds/BTFM.RM.2.2-00163-QCABTFMSWPZ-1_20161115_235757/b/btfm_proc/bt_30/rampatch/bt/platform/pfal/lc/build/wcss_ram_uart/cortex-m0/SCAQBAF/src/patch_PFAL_LC.o.i.i 0x00000000   Number         0  patch_PFAL_LC.o ABSOLUTE
    /local/mnt/workspace/CRMBuilds/BTFM.RM.2.2-00163-QCABTFMSWPZ-1_20161115_235757/b/btfm_proc/bt_30/rampatch/bt/platform/pfal/lc/build/wcss_ram_uart/cortex-m0/SCAQBAF/src/patch_PFAL_LC_State.o.i.i 0x00000000   Number         0  patch_PFAL_LC_State.o ABSOLUTE
    /local/mnt/workspace/CRMBuilds/BTFM.RM.2.2-00163-QCABTFMSWPZ-1_20161115_235757/b/btfm_proc/bt_30/rampatch/bt/platform/pfal/owi/build/wcss_ram_uart/cortex-m0/SCAQBAF/src/patch_PFAL_HUTCH.o.i.i 0x00000000   Number         0  patch_PFAL_HUTCH.o ABSOLUTE
    /local/mnt/workspace/CRMBuilds/BTFM.RM.2.2-00163-QCABTFMSWPZ-1_20161115_235757/b/btfm_proc/bt_30/rampatch/bt/platform/pfal/rm/build/wcss_ram_uart/cortex-m0/SCAQBAF/6174/src/patch_PFAL_RM_HW_EXT.o.i.i 0x00000000   Number         0  patch_PFAL_RM_HW_EXT.o ABSOLUTE
    /local/mnt/workspace/CRMBuilds/BTFM.RM.2.2-00163-QCABTFMSWPZ-1_20161115_235757/b/btfm_proc/bt_30/rampatch/bt/platform/pfal/rm/build/wcss_ram_uart/cortex-m0/SCAQBAF/common/src/patch_PFAL_RM_HW.o.i.i 0x00000000   Number         0  patch_PFAL_RM_HW.o ABSOLUTE
    /local/mnt/workspace/CRMBuilds/BTFM.RM.2.2-00163-QCABTFMSWPZ-1_20161115_235757/b/btfm_proc/bt_30/rampatch/bt/platform/pfal/sleep/build/wcss_ram_uart/cortex-m0/SCAQBAF/src/patch_PFAL_SLEEP.o.i.i 0x00000000   Number         0  patch_PFAL_SLEEP.o ABSOLUTE
    /local/mnt/workspace/CRMBuilds/BTFM.RM.2.2-00163-QCABTFMSWPZ-1_20161115_235757/b/btfm_proc/bt_30/rampatch/bt/platform/pfal/sleep/build/wcss_ram_uart/cortex-m0/SCAQBAF/src/patch_PFAL_SLEEP_Recover.o.i 0x00000000   Number         0  patch_PFAL_SLEEP_Recover.o ABSOLUTE
    /local/mnt/workspace/CRMBuilds/BTFM.RM.2.2-00163-QCABTFMSWPZ-1_20161115_235757/b/btfm_proc/bt_30/rampatch/bt/platform/pfal/sys/build/wcss_ram_uart/cortex-m0/SCAQBAF/6174/src/patch_PFAL_SYS_CLK_EXT.o.i.i 0x00000000   Number         0  patch_PFAL_SYS_CLK_EXT.o ABSOLUTE
    /local/mnt/workspace/CRMBuilds/BTFM.RM.2.2-00163-QCABTFMSWPZ-1_20161115_235757/b/btfm_proc/bt_30/rampatch/bt/platform/pfal/sys/build/wcss_ram_uart/cortex-m0/SCAQBAF/common/src/patch_PFAL_SYS.o.i.i 0x00000000   Number         0  patch_PFAL_SYS.o ABSOLUTE
    /local/mnt/workspace/CRMBuilds/BTFM.RM.2.2-00163-QCABTFMSWPZ-1_20161115_235757/b/btfm_proc/bt_30/rampatch/bt/platform/pfal/sys/build/wcss_ram_uart/cortex-m0/SCAQBAF/common/src/patch_PFAL_SYS_EDL.o.i.i 0x00000000   Number         0  patch_PFAL_SYS_EDL.o ABSOLUTE
    /local/mnt/workspace/CRMBuilds/BTFM.RM.2.2-00163-QCABTFMSWPZ-1_20161115_235757/b/btfm_proc/bt_30/rampatch/bt/platform/pfal/sys/build/wcss_ram_uart/cortex-m0/SCAQBAF/common/src/patch_PFAL_SYS_Init.o.i 0x00000000   Number         0  patch_PFAL_SYS_Init.o ABSOLUTE
    /local/mnt/workspace/CRMBuilds/BTFM.RM.2.2-00163-QCABTFMSWPZ-1_20161115_235757/b/btfm_proc/bt_30/rampatch/bt/platform/pfal/uart/build/wcss_ram_uart/cortex-m0/SCAQBAF/src/patch_PFAL_UART.o.i.i 0x00000000   Number         0  patch_PFAL_UART.o ABSOLUTE
    /local/mnt/workspace/CRMBuilds/BTFM.RM.2.2-00163-QCABTFMSWPZ-1_20161115_235757/b/btfm_proc/bt_30/rampatch/bt/platform/pfal/uart/build/wcss_ram_uart/cortex-m0/SCAQBAF/src/patch_PFAL_UART.o.i.i 0x00000000   Number         0  patch_PFAL_UART.o ABSOLUTE
    /local/mnt/workspace/CRMBuilds/BTFM.RM.2.2-00163-QCABTFMSWPZ-1_20161115_235757/b/btfm_proc/bt_30/rampatch/bt/platform/pfal/uart/build/wcss_ram_uart/cortex-m0/SCAQBAF/src/patch_PFAL_UART_Common.o.i.i 0x00000000   Number         0  patch_PFAL_UART_Common.o ABSOLUTE
    /local/mnt/workspace/CRMBuilds/BTFM.RM.2.2-00163-QCABTFMSWPZ-1_20161115_235757/b/btfm_proc/bt_30/rampatch/bt/platform/pfal/uart/build/wcss_ram_uart/cortex-m0/SCAQBAF/src/patch_PFAL_UART_IOP_Rx.o.i.i 0x00000000   Number         0  patch_PFAL_UART_IOP_Rx.o ABSOLUTE
    /local/mnt/workspace/CRMBuilds/BTFM.RM.2.2-00163-QCABTFMSWPZ-1_20161115_235757/b/btfm_proc/bt_30/rampatch/bt/platform/pfal/usb/build/wcss_ram_uart/cortex-m0/SCAQBAF/src/patch_PFAL_USB.o.i.i 0x00000000   Number         0  patch_PFAL_USB.o ABSOLUTE
    /local/mnt/workspace/CRMBuilds/BTFM.RM.2.2-00163-QCABTFMSWPZ-1_20161115_235757/b/btfm_proc/bt_30/rampatch/bt/platform/pfal/voice/build/wcss_ram_uart/cortex-m0/SCAQBAF/src/patch_PFAL_VOICE_NBS.o.i.i 0x00000000   Number         0  patch_PFAL_VOICE_NBS.o ABSOLUTE
    /local/mnt/workspace/CRMBuilds/BTFM.RM.2.2-00163-QCABTFMSWPZ-1_20161115_235757/b/btfm_proc/bt_30/rampatch/bt/platform/pfal/voice/build/wcss_ram_uart/cortex-m0/SCAQBAF/src/patch_PFAL_VOICE_NBS.o.i.i 0x00000000   Number         0  patch_PFAL_VOICE_NBS.o ABSOLUTE
    /local/mnt/workspace/CRMBuilds/BTFM.RM.2.2-00163-QCABTFMSWPZ-1_20161115_235757/b/btfm_proc/bt_30/rampatch/bt/platform/pfal/voice/build/wcss_ram_uart/cortex-m0/SCAQBAF/src/patch_PFAL_VOICE_WBS.o.i.i 0x00000000   Number         0  patch_PFAL_VOICE_WBS.o ABSOLUTE
    /local/mnt/workspace/CRMBuilds/BTFM.RM.2.2-00163-QCABTFMSWPZ-1_20161115_235757/b/btfm_proc/bt_30/rampatch/bt/platform/pfal/voice/build/wcss_ram_uart/cortex-m0/SCAQBAF/src/patch_PFAL_VOICE_WBS.o.i.i 0x00000000   Number         0  patch_PFAL_VOICE_WBS.o ABSOLUTE
    /local/mnt/workspace/CRMBuilds/BTFM.RM.2.2-00163-QCABTFMSWPZ-1_20161115_235757/b/btfm_proc/bt_30/rampatch/bt/platform/pfal/wpr/build/wcss_ram_uart/cortex-m0/SCAQBAF/src/patch_PFAL_PRUHAL.o.i.i 0x00000000   Number         0  patch_PFAL_PRUHAL.o ABSOLUTE
    /local/mnt/workspace/CRMBuilds/BTFM.RM.2.2-00163-QCABTFMSWPZ-1_20161115_235757/b/btfm_proc/bt_30/rampatch/bt/services/ant/build/wcss_ram_uart/cortex-m0/SCAQBAF/patch_qcom_ant_interface.o.i.i 0x00000000   Number         0  patch_qcom_ant_interface.o ABSOLUTE
    /local/mnt/workspace/CRMBuilds/BTFM.RM.2.2-00163-QCABTFMSWPZ-1_20161115_235757/b/btfm_proc/bt_30/rampatch/bt/services/dbg/build/wcss_ram_uart/cortex-m0/SCAQBAF/patch_PF_DBG.o.i.i 0x00000000   Number         0  patch_PF_DBG.o ABSOLUTE
    /local/mnt/workspace/CRMBuilds/BTFM.RM.2.2-00163-QCABTFMSWPZ-1_20161115_235757/b/btfm_proc/bt_30/rampatch/bt/services/hif/build/wcss_ram_uart/cortex-m0/SCAQBAF/patch_hif_profileDetect.o.i.i 0x00000000   Number         0  patch_hif_profileDetect.o ABSOLUTE
    /local/mnt/workspace/CRMBuilds/BTFM.RM.2.2-00163-QCABTFMSWPZ-1_20161115_235757/b/btfm_proc/bt_30/rampatch/bt/services/hif/build/wcss_ram_uart/cortex-m0/SCAQBAF/patch_hif_server.o.i.i 0x00000000   Number         0  patch_hif_server.o ABSOLUTE
    /local/mnt/workspace/CRMBuilds/BTFM.RM.2.2-00163-QCABTFMSWPZ-1_20161115_235757/b/btfm_proc/bt_30/rampatch/bt/services/llm/build/wcss_ram_uart/cortex-m0/SCAQBAF/patch_LLM_CQDDR.o.i.i 0x00000000   Number         0  patch_LLM_CQDDR.o ABSOLUTE
    /local/mnt/workspace/CRMBuilds/BTFM.RM.2.2-00163-QCABTFMSWPZ-1_20161115_235757/b/btfm_proc/bt_30/rampatch/bt/services/llm/build/wcss_ram_uart/cortex-m0/SCAQBAF/patch_LLM_HCI_LE_command.o.i.i 0x00000000   Number         0  patch_LLM_HCI_LE_command.o ABSOLUTE
    /local/mnt/workspace/CRMBuilds/BTFM.RM.2.2-00163-QCABTFMSWPZ-1_20161115_235757/b/btfm_proc/bt_30/rampatch/bt/services/llm/build/wcss_ram_uart/cortex-m0/SCAQBAF/patch_LLM_LE_control_pdu.o.i.i 0x00000000   Number         0  patch_LLM_LE_control_pdu.o ABSOLUTE
    /local/mnt/workspace/CRMBuilds/BTFM.RM.2.2-00163-QCABTFMSWPZ-1_20161115_235757/b/btfm_proc/bt_30/rampatch/bt/services/llm/build/wcss_ram_uart/cortex-m0/SCAQBAF/patch_LLM_LE_encryption.o.i.i 0x00000000   Number         0  patch_LLM_LE_encryption.o ABSOLUTE
    /local/mnt/workspace/CRMBuilds/BTFM.RM.2.2-00163-QCABTFMSWPZ-1_20161115_235757/b/btfm_proc/bt_30/rampatch/bt/services/llm/build/wcss_ram_uart/cortex-m0/SCAQBAF/patch_LLM_SyncLinkMngr.o.i.i 0x00000000   Number         0  patch_LLM_SyncLinkMngr.o ABSOLUTE
    /local/mnt/workspace/CRMBuilds/BTFM.RM.2.2-00163-QCABTFMSWPZ-1_20161115_235757/b/btfm_proc/bt_30/rampatch/bt/services/llm/build/wcss_ram_uart/cortex-m0/SCAQBAF/patch_LLM_lp_sniff.o.i.i 0x00000000   Number         0  patch_LLM_lp_sniff.o ABSOLUTE
    /local/mnt/workspace/CRMBuilds/BTFM.RM.2.2-00163-QCABTFMSWPZ-1_20161115_235757/b/btfm_proc/bt_30/rampatch/bt/services/llm/build/wcss_ram_uart/cortex-m0/SCAQBAF/patch_LLM_multislot.o.i.i 0x00000000   Number         0  patch_LLM_multislot.o ABSOLUTE
    /local/mnt/workspace/CRMBuilds/BTFM.RM.2.2-00163-QCABTFMSWPZ-1_20161115_235757/b/btfm_proc/bt_30/rampatch/bt/services/llm/build/wcss_ram_uart/cortex-m0/SCAQBAF/patch_LLM_role_switch.o.i.i 0x00000000   Number         0  patch_LLM_role_switch.o ABSOLUTE
    /local/mnt/workspace/CRMBuilds/BTFM.RM.2.2-00163-QCABTFMSWPZ-1_20161115_235757/b/btfm_proc/bt_30/rampatch/bt/services/llm/build/wcss_ram_uart/cortex-m0/SCAQBAF/patch_llm_afh.o.i.i 0x00000000   Number         0  patch_llm_afh.o ABSOLUTE
    /local/mnt/workspace/CRMBuilds/BTFM.RM.2.2-00163-QCABTFMSWPZ-1_20161115_235757/b/btfm_proc/bt_30/rampatch/bt/services/llm/build/wcss_ram_uart/cortex-m0/SCAQBAF/patch_llm_chanassess.o.i.i 0x00000000   Number         0  patch_llm_chanassess.o ABSOLUTE
    /local/mnt/workspace/CRMBuilds/BTFM.RM.2.2-00163-QCABTFMSWPZ-1_20161115_235757/b/btfm_proc/bt_30/rampatch/bt/services/llm/build/wcss_ram_uart/cortex-m0/SCAQBAF/patch_llm_conndb.o.i.i 0x00000000   Number         0  patch_llm_conndb.o ABSOLUTE
    /local/mnt/workspace/CRMBuilds/BTFM.RM.2.2-00163-QCABTFMSWPZ-1_20161115_235757/b/btfm_proc/bt_30/rampatch/bt/services/llm/build/wcss_ram_uart/cortex-m0/SCAQBAF/patch_llm_connmngr.o.i.i 0x00000000   Number         0  patch_llm_connmngr.o ABSOLUTE
    /local/mnt/workspace/CRMBuilds/BTFM.RM.2.2-00163-QCABTFMSWPZ-1_20161115_235757/b/btfm_proc/bt_30/rampatch/bt/services/llm/build/wcss_ram_uart/cortex-m0/SCAQBAF/patch_llm_data.o.i.i 0x00000000   Number         0  patch_llm_data.o ABSOLUTE
    /local/mnt/workspace/CRMBuilds/BTFM.RM.2.2-00163-QCABTFMSWPZ-1_20161115_235757/b/btfm_proc/bt_30/rampatch/bt/services/llm/build/wcss_ram_uart/cortex-m0/SCAQBAF/patch_llm_eptm.o.i.i 0x00000000   Number         0  patch_llm_eptm.o ABSOLUTE
    /local/mnt/workspace/CRMBuilds/BTFM.RM.2.2-00163-QCABTFMSWPZ-1_20161115_235757/b/btfm_proc/bt_30/rampatch/bt/services/llm/build/wcss_ram_uart/cortex-m0/SCAQBAF/patch_llm_filter.o.i.i 0x00000000   Number         0  patch_llm_filter.o ABSOLUTE
    /local/mnt/workspace/CRMBuilds/BTFM.RM.2.2-00163-QCABTFMSWPZ-1_20161115_235757/b/btfm_proc/bt_30/rampatch/bt/services/llm/build/wcss_ram_uart/cortex-m0/SCAQBAF/patch_llm_fra.o.i.i 0x00000000   Number         0  patch_llm_fra.o ABSOLUTE
    /local/mnt/workspace/CRMBuilds/BTFM.RM.2.2-00163-QCABTFMSWPZ-1_20161115_235757/b/btfm_proc/bt_30/rampatch/bt/services/llm/build/wcss_ram_uart/cortex-m0/SCAQBAF/patch_llm_hcicommand.o.i.i 0x00000000   Number         0  patch_llm_hcicommand.o ABSOLUTE
    /local/mnt/workspace/CRMBuilds/BTFM.RM.2.2-00163-QCABTFMSWPZ-1_20161115_235757/b/btfm_proc/bt_30/rampatch/bt/services/llm/build/wcss_ram_uart/cortex-m0/SCAQBAF/patch_llm_hcievent.o.i.i 0x00000000   Number         0  patch_llm_hcievent.o ABSOLUTE
    /local/mnt/workspace/CRMBuilds/BTFM.RM.2.2-00163-QCABTFMSWPZ-1_20161115_235757/b/btfm_proc/bt_30/rampatch/bt/services/llm/build/wcss_ram_uart/cortex-m0/SCAQBAF/patch_llm_le_connmngr.o.i.i 0x00000000   Number         0  patch_llm_le_connmngr.o ABSOLUTE
    /local/mnt/workspace/CRMBuilds/BTFM.RM.2.2-00163-QCABTFMSWPZ-1_20161115_235757/b/btfm_proc/bt_30/rampatch/bt/services/llm/build/wcss_ram_uart/cortex-m0/SCAQBAF/patch_llm_lmp_pdu.o.i.i 0x00000000   Number         0  patch_llm_lmp_pdu.o ABSOLUTE
    /local/mnt/workspace/CRMBuilds/BTFM.RM.2.2-00163-QCABTFMSWPZ-1_20161115_235757/b/btfm_proc/bt_30/rampatch/bt/services/llm/build/wcss_ram_uart/cortex-m0/SCAQBAF/patch_llm_lnkmngr.o.i.i 0x00000000   Number         0  patch_llm_lnkmngr.o ABSOLUTE
    /local/mnt/workspace/CRMBuilds/BTFM.RM.2.2-00163-QCABTFMSWPZ-1_20161115_235757/b/btfm_proc/bt_30/rampatch/bt/services/llm/build/wcss_ram_uart/cortex-m0/SCAQBAF/patch_llm_pca.o.i.i 0x00000000   Number         0  patch_llm_pca.o ABSOLUTE
    /local/mnt/workspace/CRMBuilds/BTFM.RM.2.2-00163-QCABTFMSWPZ-1_20161115_235757/b/btfm_proc/bt_30/rampatch/bt/services/llm/build/wcss_ram_uart/cortex-m0/SCAQBAF/patch_llm_rmcdCommand.o.i.i 0x00000000   Number         0  patch_llm_rmcdCommand.o ABSOLUTE
    /local/mnt/workspace/CRMBuilds/BTFM.RM.2.2-00163-QCABTFMSWPZ-1_20161115_235757/b/btfm_proc/bt_30/rampatch/bt/services/llm/build/wcss_ram_uart/cortex-m0/SCAQBAF/patch_llm_sco.o.i.i 0x00000000   Number         0  patch_llm_sco.o ABSOLUTE
    /local/mnt/workspace/CRMBuilds/BTFM.RM.2.2-00163-QCABTFMSWPZ-1_20161115_235757/b/btfm_proc/bt_30/rampatch/bt/services/llm/build/wcss_ram_uart/cortex-m0/SCAQBAF/patch_llm_security.o.i.i 0x00000000   Number         0  patch_llm_security.o ABSOLUTE
    /local/mnt/workspace/CRMBuilds/BTFM.RM.2.2-00163-QCABTFMSWPZ-1_20161115_235757/b/btfm_proc/bt_30/rampatch/bt/services/llm/build/wcss_ram_uart/cortex-m0/SCAQBAF/patch_llm_server.o.i.i 0x00000000   Number         0  patch_llm_server.o ABSOLUTE
    /local/mnt/workspace/CRMBuilds/BTFM.RM.2.2-00163-QCABTFMSWPZ-1_20161115_235757/b/btfm_proc/bt_30/rampatch/bt/services/llm/build/wcss_ram_uart/cortex-m0/SCAQBAF/patch_llm_timer.o.i.i 0x00000000   Number         0  patch_llm_timer.o ABSOLUTE
    /local/mnt/workspace/CRMBuilds/BTFM.RM.2.2-00163-QCABTFMSWPZ-1_20161115_235757/b/btfm_proc/bt_30/rampatch/bt/services/pf/rm/build/wcss_ram_uart/cortex-m0/SCAQBAF/patch_PF_RM.o.i.i 0x00000000   Number         0  patch_PF_RM.o ABSOLUTE
    /local/mnt/workspace/CRMBuilds/BTFM.RM.2.2-00163-QCABTFMSWPZ-1_20161115_235757/b/btfm_proc/bt_30/rampatch/bt/services/pf/sleep/build/wcss_ram_uart/cortex-m0/SCAQBAF/patch_PF_SLEEP.o.i.i 0x00000000   Number         0  patch_PF_SLEEP.o ABSOLUTE
    /local/mnt/workspace/CRMBuilds/BTFM.RM.2.2-00163-QCABTFMSWPZ-1_20161115_235757/b/btfm_proc/bt_30/rampatch/bt/services/pf/txp/build/wcss_ram_uart/cortex-m0/SCAQBAF/patch_PF_TXP.o.i.i 0x00000000   Number         0  patch_PF_TXP.o ABSOLUTE
    /local/mnt/workspace/CRMBuilds/BTFM.RM.2.2-00163-QCABTFMSWPZ-1_20161115_235757/b/btfm_proc/bt_30/rampatch/bt/services/slc/build/wcss_ram_uart/cortex-m0/SCAQBAF/patch_SLC_AFH.o.i.i 0x00000000   Number         0  patch_SLC_AFH.o ABSOLUTE
    /local/mnt/workspace/CRMBuilds/BTFM.RM.2.2-00163-QCABTFMSWPZ-1_20161115_235757/b/btfm_proc/bt_30/rampatch/bt/services/slc/build/wcss_ram_uart/cortex-m0/SCAQBAF/patch_SLC_FrameInt.o.i.i 0x00000000   Number         0  patch_SLC_FrameInt.o ABSOLUTE
    /local/mnt/workspace/CRMBuilds/BTFM.RM.2.2-00163-QCABTFMSWPZ-1_20161115_235757/b/btfm_proc/bt_30/rampatch/bt/services/slc/build/wcss_ram_uart/cortex-m0/SCAQBAF/patch_SLC_Schedule.o.i.i 0x00000000   Number         0  patch_SLC_Schedule.o ABSOLUTE
    /local/mnt/workspace/CRMBuilds/BTFM.RM.2.2-00163-QCABTFMSWPZ-1_20161115_235757/b/btfm_proc/bt_30/rampatch/bt/services/slc/build/wcss_ram_uart/cortex-m0/SCAQBAF/patch_SLC_dispatcher.o.i.i 0x00000000   Number         0  patch_SLC_dispatcher.o ABSOLUTE
    /local/mnt/workspace/CRMBuilds/BTFM.RM.2.2-00163-QCABTFMSWPZ-1_20161115_235757/b/btfm_proc/bt_30/rampatch/bt/services/slc/build/wcss_ram_uart/cortex-m0/SCAQBAF/patch_SLC_poll.o.i.i 0x00000000   Number         0  patch_SLC_poll.o ABSOLUTE
    /local/mnt/workspace/CRMBuilds/BTFM.RM.2.2-00163-QCABTFMSWPZ-1_20161115_235757/b/btfm_proc/bt_30/rampatch/bt/services/slc/build/wcss_ram_uart/cortex-m0/SCAQBAF/patch_SLC_utils.o.i.i 0x00000000   Number         0  patch_SLC_utils.o ABSOLUTE
    /local/mnt/workspace/CRMBuilds/BTFM.RM.2.2-00163-QCABTFMSWPZ-1_20161115_235757/b/btfm_proc/bt_30/rampatch/bt/services/sys/build/wcss_ram_uart/cortex-m0/SCAQBAF/patch_SYS_database.o.i.i 0x00000000   Number         0  patch_SYS_database.o ABSOLUTE
    /local/mnt/workspace/CRMBuilds/BTFM.RM.2.2-00163-QCABTFMSWPZ-1_20161115_235757/b/btfm_proc/bt_30/rampatch/bt/services/sys/build/wcss_ram_uart/cortex-m0/SCAQBAF/patch_SYS_pollmgr.o.i.i 0x00000000   Number         0  patch_SYS_pollmgr.o ABSOLUTE
    /local/mnt/workspace/CRMBuilds/BTFM.RM.2.2-00163-QCABTFMSWPZ-1_20161115_235757/b/btfm_proc/bt_30/rampatch/build/wcss_ram_uart/cortex-m0/SCAQBAF/rampatch_main.o.i.i 0x00000000   Number         0  rampatch_main.o ABSOLUTE
    dc.s                                     0x00000000   Number         0  dc.o ABSOLUTE
    .data                                    0x0001deb0   Section       44  patch_PFAL_DBG_hci_vendor.o(.data)
    .data                                    0x0001dedc   Section        4  patch_PFAL_DBG.o(.data)
    .data                                    0x0001dee0   Section        1  patch_PFAL_LC.o(.data)
    .data                                    0x0001dee4   Section       12  patch_PFAL_LC_State.o(.data)
    PFAL_LC_STATE_IdScanRxSearchCnt          0x0001dee6   Data           2  patch_PFAL_LC_State.o(.data)
    .data                                    0x0001def0   Section        4  patch_PFAL_HUTCH.o(.data)
    .data                                    0x0001def4   Section       60  patch_PFAL_RM_HW.o(.data)
    bDataReady                               0x0001def5   Data           1  patch_PFAL_RM_HW.o(.data)
    wakeRestore                              0x0001def6   Data           1  patch_PFAL_RM_HW.o(.data)
    .data                                    0x0001df30   Section       12  patch_PFAL_RM_HW_EXT.o(.data)
    .data                                    0x0001df3c   Section       28  patch_PFAL_SLEEP.o(.data)
    lastGoodCalResult                        0x0001df54   Data           4  patch_PFAL_SLEEP.o(.data)
    .data                                    0x0001df58   Section        8  patch_PFAL_UART_Common.o(.data)
    isIOPMalloc                              0x0001df58   Data           1  patch_PFAL_UART_Common.o(.data)
    .data                                    0x0001df60   Section        1  patch_qcom_ant_interface.o(.data)
    .data                                    0x0001df64   Section       28  patch_llm_server.o(.data)
    tempCalRegUpdateState                    0x0001df64   Data           1  patch_llm_server.o(.data)
    ulPeriodicTimeout                        0x0001df68   Data           4  patch_llm_server.o(.data)
    ppPiconetArray                           0x0001df6c   Data           4  patch_llm_server.o(.data)
    .data                                    0x0001df80   Section        1  patch_llm_hcicommand.o(.data)
    .data                                    0x0001df84   Section        4  patch_llm_hcievent.o(.data)
    .data                                    0x0001df88   Section        2  patch_SLC_FrameInt.o(.data)
    .data                                    0x0001df8c   Section       36  patch_SYS_database.o(.data)
    .data                                    0x0001dfb0   Section        1  patch_PFAL_COEX_MCI.o(.data)
    .data                                    0x0001dfb4   Section        4  patch_PFAL_COEX_MCI.o(.data)
    .data                                    0x0001dfb8   Section        1  patch_PFAL_COEX_MCI_HW.o(.data)
    .data                                    0x0001dfbc   Section        8  patch_PFAL_COEX_MWS.o(.data)
    PTable                                   0x0001dfc4   Section        4  patch_SYS_database.o(PTable)
    .bss                                     0x0001dfc8   Section       24  patch_PF_OS.o(.bss)
    .bss                                     0x0001dfe0   Section      720  patch_PFAL_DBG_hci_vendor.o(.bss)
    .bss                                     0x0001e2b0   Section      322  patch_hif_profileDetect.o(.bss)
    .bss                                     0x0001e3f4   Section       92  patch_SYS_database.o(.bss)
    .bss                                     0x0001e450   Section      384  patch_SYS_database.o(.bss)
    .bss                                     0x0001e5d0   Section      224  patch_PFAL_COEX_MCI.o(.bss)
    ENTRY_POINT                              0x0001feb0   Section        0  rampatch_main.o(ENTRY_POINT)
    .text                                    0x000200e0   Section        0  patch_gap.o(.text)
    .text                                    0x00020188   Section        0  patch_BLE_SAL_Interface.o(.text)
    .text                                    0x000201b4   Section        0  patch_bth_stack.o(.text)
    .text                                    0x000201f4   Section        0  patch_PF_OS.o(.text)
    .text                                    0x000205bc   Section        0  patch_PFAL_DBG_hci_vendor.o(.text)
    HCI_AllowProdVSC                         0x00021cdb   Thumb Code    36  patch_PFAL_DBG_hci_vendor.o(.text)
    HCI_AllowDevVSC                          0x00021cff   Thumb Code    62  patch_PFAL_DBG_hci_vendor.o(.text)
    .text                                    0x00021db8   Section        0  patch_PFAL_DBG.o(.text)
    .text                                    0x000222e8   Section        0  patch_PFAL_AES.o(.text)
    .text                                    0x0002230c   Section        0  patch_PFAL_EEPROM.o(.text)
    .text                                    0x00022320   Section        0  patch_PFAL_GPIO_MUX.o(.text)
    .text                                    0x00022424   Section        0  patch_PFAL_LC.o(.text)
    .text                                    0x0002266c   Section        0  patch_PFAL_LC_State.o(.text)
    .text                                    0x00022fac   Section        0  patch_PFAL_HUTCH.o(.text)
    .text                                    0x00023180   Section        0  patch_PFAL_RM_HW.o(.text)
    .text                                    0x0002396c   Section        0  patch_PFAL_RM_HW_EXT.o(.text)
    .text                                    0x00023d4c   Section        0  patch_PFAL_SLEEP.o(.text)
    patch_PFAL_SLEEP_ClkCalibrationISR       0x00024253   Thumb Code   252  patch_PFAL_SLEEP.o(.text)
    .text                                    0x000243b8   Section      260  patch_PFAL_SLEEP_Recover.o(.text)
    patch_PFAL_SLEEP_recover                 0x00024439   Thumb Code    16  patch_PFAL_SLEEP_Recover.o(.text)
    patch_PFAL_SYS_ReturnPC                  0x00024449   Thumb Code    60  patch_PFAL_SLEEP_Recover.o(.text)
    .text                                    0x000244bc   Section       36  patch_PFAL_SYS_Init.o(.text)
    .text                                    0x000244e0   Section        0  patch_PFAL_SYS_CLK_EXT.o(.text)
    .text                                    0x00024594   Section        0  patch_PFAL_SYS.o(.text)
    .text                                    0x000245d8   Section        0  patch_PFAL_UART_Common.o(.text)
    .text                                    0x00024714   Section        0  patch_PFAL_UART.o(.text)
    .text                                    0x000247a0   Section        0  patch_PFAL_VOICE_NBS.o(.text)
    .text                                    0x000247e8   Section        0  patch_PFAL_VOICE_WBS.o(.text)
    .text                                    0x0002482c   Section        0  patch_PFAL_PRUHAL.o(.text)
    .text                                    0x00024a34   Section        0  patch_qcom_ant_interface.o(.text)
    .text                                    0x000250e4   Section        0  patch_hif_profileDetect.o(.text)
    .text                                    0x00025980   Section        0  patch_hif_server.o(.text)
    .text                                    0x00025b4c   Section        0  patch_llm_server.o(.text)
    .text                                    0x0002691c   Section        0  patch_llm_lnkmngr.o(.text)
    .text                                    0x00026ce4   Section        0  patch_llm_hcicommand.o(.text)
    .text                                    0x00026fac   Section        0  patch_llm_lmp_pdu.o(.text)
    .text                                    0x00027138   Section        0  patch_llm_eptm.o(.text)
    .text                                    0x0002716c   Section        0  patch_llm_data.o(.text)
    .text                                    0x000271a0   Section        0  patch_llm_fra.o(.text)
    .text                                    0x000271e0   Section        0  patch_llm_filter.o(.text)
    .text                                    0x00027200   Section        0  patch_llm_security.o(.text)
    .text                                    0x000275b4   Section        0  patch_llm_sco.o(.text)
    .text                                    0x000275f0   Section        0  patch_LLM_multislot.o(.text)
    .text                                    0x00027814   Section        0  patch_llm_afh.o(.text)
    .text                                    0x00027b0c   Section        0  patch_llm_le_connmngr.o(.text)
    .text                                    0x00028508   Section        0  patch_LLM_lp_sniff.o(.text)
    .text                                    0x0002884c   Section        0  patch_llm_timer.o(.text)
    .text                                    0x000288a0   Section        0  patch_LLM_CQDDR.o(.text)
    .text                                    0x000288d0   Section        0  patch_llm_connmngr.o(.text)
    .text                                    0x0002894c   Section        0  patch_llm_pca.o(.text)
    .text                                    0x00028ca0   Section        0  patch_llm_conndb.o(.text)
    .text                                    0x00028d04   Section        0  patch_LLM_HCI_LE_command.o(.text)
    .text                                    0x00029188   Section        0  patch_LLM_role_switch.o(.text)
    .text                                    0x000292c0   Section        0  patch_llm_rmcdCommand.o(.text)
    .text                                    0x00029638   Section        0  patch_LLM_LE_control_pdu.o(.text)
    .text                                    0x000297a0   Section        0  patch_LLM_SyncLinkMngr.o(.text)
    .text                                    0x0002a028   Section        0  patch_LLM_LE_encryption.o(.text)
    .text                                    0x0002a1f8   Section        0  patch_llm_hcievent.o(.text)
    .text                                    0x0002a424   Section        0  patch_PF_RM.o(.text)
    .text                                    0x0002a52c   Section        0  patch_SLC_utils.o(.text)
    .text                                    0x0002a968   Section        0  patch_SLC_dispatcher.o(.text)
    .text                                    0x0002b74c   Section        0  patch_SLC_FrameInt.o(.text)
    .text                                    0x0002bef8   Section        0  patch_SLC_AFH.o(.text)
    .text                                    0x0002bffc   Section        0  patch_SLC_poll.o(.text)
    .text                                    0x0002c3c0   Section        0  patch_SLC_Schedule.o(.text)
    .text                                    0x0002c560   Section        0  patch_SYS_pollmgr.o(.text)
    .text                                    0x0002c5e4   Section        0  patch_SYS_database.o(.text)
    .text                                    0x0002ddd4   Section        0  patch_PFAL_COEX_MCI.o(.text)
    .text                                    0x0002e780   Section        0  patch_PFAL_COEX_MCI_HW.o(.text)
    .text                                    0x0002e8bc   Section        0  patch_PFAL_COEX_MCI_UTIL.o(.text)
    .text                                    0x0002ead4   Section        0  patch_PFAL_COEX_MWS.o(.text)
    .text                                    0x0002ef88   Section        0  patch_PF_DBG.o(.text)
    .text                                    0x0002f008   Section        0  patch_PF_SLEEP.o(.text)
    .text                                    0x0002f188   Section        0  patch_PF_TXP.o(.text)
    .text                                    0x0002f1bc   Section        0  abort.o(.text)
    .text                                    0x0002f1cc   Section        0  defsig_abrt_outer.o(.text)
    .text                                    0x0002f1d8   Section        0  defsig_abrt_inner.o(.text)
    .constdata                               0x0002fab4   Section      724  patch_PFAL_UART_IOP_Rx.o(.constdata)
    .constdata                               0x0002fd88   Section       53  rampatch_main.o(.constdata)
    __tagsym$$used                           0x0002fd88   Number         0  rampatch_main.o(.constdata)
    __tagsym$$used                           0x0002fd94   Number         0  rampatch_main.o(.constdata)
    __tagsym$$used                           0x0002fd9d   Number         0  rampatch_main.o(.constdata)

    Global Symbols

    Symbol Name                              Value     Ov Type        Size  Object(Section)

    BuildAttributes$$THM_ISAv3M$S$PE$A:L22$X:L11$S22$IEEE1$IW$USESV6$~STKCKD$USESV7$~SHL$OTIME$ROPI$EBA8$STANDARDLIB$REQ8$PRES8$EABIv2 0x00000000   Number         0  anon$$obj.o ABSOLUTE
    RAM_Vectors                              0x00000000   Data           0  QCA6174_SCAQBAFM.sym ABSOLUTE
    _printf_flags                            0x00000000   Number         0  QCA6174_SCAQBAFM.sym ABSOLUTE
    _printf_return_value                     0x00000000   Number         0  QCA6174_SCAQBAFM.sym ABSOLUTE
    _printf_sizespec                         0x00000000   Number         0  QCA6174_SCAQBAFM.sym ABSOLUTE
    _printf_widthprec                        0x00000000   Number         0  QCA6174_SCAQBAFM.sym ABSOLUTE
    __rt_lib_shutdown                         - Undefined Weak Reference
    __sigvec_lookup                           - Undefined Weak Reference
    Reset_Handler_Hook                       0x000000c0   Data           0  QCA6174_SCAQBAFM.sym ABSOLUTE
    PFAL_LC_RxProcArqDone                    0x000000c4   Data           0  QCA6174_SCAQBAFM.sym ABSOLUTE
    PFAL_LC_coexistenceLowChan               0x000000c8   Data           0  QCA6174_SCAQBAFM.sym ABSOLUTE
    PFAL_LC_coexistenceHighChan              0x000000c9   Data           0  QCA6174_SCAQBAFM.sym ABSOLUTE
    PFAL_LC_bSynthEnable                     0x000000ca   Data           0  QCA6174_SCAQBAFM.sym ABSOLUTE
    PFAL_LC_nHopOffset                       0x000000cb   Data           0  QCA6174_SCAQBAFM.sym ABSOLUTE
    PFAL_LC_Rx2_enabled                      0x000000cc   Data           0  QCA6174_SCAQBAFM.sym ABSOLUTE
    PFAL_LC_w4_2ndHalfRx                     0x000000cd   Data           0  QCA6174_SCAQBAFM.sym ABSOLUTE
    PFAL_LC_TxLinkedListNdx                  0x000000ce   Data           0  QCA6174_SCAQBAFM.sym ABSOLUTE
    PFAL_LC_RxAclLinkedListCount             0x000000cf   Data           0  QCA6174_SCAQBAFM.sym ABSOLUTE
    PFAL_LC_RxAclLinkedListPeekNdx           0x000000d0   Data           0  QCA6174_SCAQBAFM.sym ABSOLUTE
    PFAL_LC_RxAclLinkedList_CleanElementCount 0x000000d1   Data           0  QCA6174_SCAQBAFM.sym ABSOLUTE
    PFAL_LC_loopbackEnable                   0x000000d2   Data           0  QCA6174_SCAQBAFM.sym ABSOLUTE
    PFAL_LC_ExtInqRxFirstHalf                0x000000d3   Data           0  QCA6174_SCAQBAFM.sym ABSOLUTE
    PFAL_LC_AdjustTimingAccuracy             0x000000d4   Data           0  QCA6174_SCAQBAFM.sym ABSOLUTE
    PFAL_LC_InitRelOscLPO                    0x000000d8   Data           0  QCA6174_SCAQBAFM.sym ABSOLUTE
    pPFAL_LC_burstTable                      0x000000dc   Data           0  QCA6174_SCAQBAFM.sym ABSOLUTE
    pPFAL_LC_LE_burstTable                   0x000000e0   Data           0  QCA6174_SCAQBAFM.sym ABSOLUTE
    PFAL_LC_TxLinkedList_NO_OUTPUT           0x000000e4   Data           0  QCA6174_SCAQBAFM.sym ABSOLUTE
    PFAL_LC_TxPktHdr                         0x000000e8   Data           0  QCA6174_SCAQBAFM.sym ABSOLUTE
    PFAL_LC_TxPyldHdr                        0x000000ec   Data           0  QCA6174_SCAQBAFM.sym ABSOLUTE
    PFAL_LC_RxLmpLinkedList                  0x000000f0   Data           0  QCA6174_SCAQBAFM.sym ABSOLUTE
    PFAL_LC_RxControlLinkedList              0x000000f8   Data           0  QCA6174_SCAQBAFM.sym ABSOLUTE
    PFAL_LC_TxAclPayloadBuffOffset           0x00000100   Data           0  QCA6174_SCAQBAFM.sym ABSOLUTE
    PFAL_LC_InqScanExtensions                0x00000104   Data           0  QCA6174_SCAQBAFM.sym ABSOLUTE
    PFAL_STMR_LastSetTicks                   0x00000108   Data           0  QCA6174_SCAQBAFM.sym ABSOLUTE
    PFAL_UART_RxDataNeeded                   0x0000010c   Data           0  QCA6174_SCAQBAFM.sym ABSOLUTE
    is_uart_running                          0x0000010d   Data           0  QCA6174_SCAQBAFM.sym ABSOLUTE
    PFAL_UART_TxISRActive                    0x0000010e   Data           0  QCA6174_SCAQBAFM.sym ABSOLUTE
    PFAL_UART_RxActive                       0x0000010f   Data           0  QCA6174_SCAQBAFM.sym ABSOLUTE
    PFAL_UART_TxActive                       0x00000110   Data           0  QCA6174_SCAQBAFM.sym ABSOLUTE
    PFAL_UART_TxPending                      0x00000111   Data           0  QCA6174_SCAQBAFM.sym ABSOLUTE
    PFAL_UART_ctsSafeMode                    0x00000112   Data           0  QCA6174_SCAQBAFM.sym ABSOLUTE
    PFAL_UART_TransportOptionsShadowCopy     0x00000113   Data           0  QCA6174_SCAQBAFM.sym ABSOLUTE
    PFAL_UART_LoggerDataStartBitErr          0x00000114   Data           0  QCA6174_SCAQBAFM.sym ABSOLUTE
    PFAL_UART_LoggerDataStopBitErr           0x00000115   Data           0  QCA6174_SCAQBAFM.sym ABSOLUTE
    PFAL_UART_LoggerDataFatalErr             0x00000116   Data           0  QCA6174_SCAQBAFM.sym ABSOLUTE
    PFAL_UART_LoggerDataPacketIdErr          0x00000117   Data           0  QCA6174_SCAQBAFM.sym ABSOLUTE
    Image$$PATCH_SSRAM$$Length               0x00000118   Number         0  anon$$obj.o ABSOLUTE
    PFAL_UART_SIBS_TxState                   0x00000118   Data           0  QCA6174_SCAQBAFM.sym ABSOLUTE
    PFAL_UART_SIBS_RxState                   0x00000119   Data           0  QCA6174_SCAQBAFM.sym ABSOLUTE
    PFAL_UART_SIBS_timerActive               0x0000011a   Data           0  QCA6174_SCAQBAFM.sym ABSOLUTE
    PFAL_UART_SIBS_txIdleTimerCount          0x0000011b   Data           0  QCA6174_SCAQBAFM.sym ABSOLUTE
    PFAL_UART_CurrentIBRD                    0x0000011c   Data           0  QCA6174_SCAQBAFM.sym ABSOLUTE
    PFAL_UART_CurrentFBRD                    0x0000011e   Data           0  QCA6174_SCAQBAFM.sym ABSOLUTE
    PFAL_UART_SIBS_rxWakeTimerCount          0x00000120   Data           0  QCA6174_SCAQBAFM.sym ABSOLUTE
    pos                                      0x00000124   Data           0  QCA6174_SCAQBAFM.sym ABSOLUTE
    uart_transport                           0x00000128   Data           0  QCA6174_SCAQBAFM.sym ABSOLUTE
    WIP_DBG_EVENT_QUEUE                      0x00000144   Data           0  QCA6174_SCAQBAFM.sym ABSOLUTE
    WIP_DBG_BUFFER_QUEUE                     0x0000014c   Data           0  QCA6174_SCAQBAFM.sym ABSOLUTE
    WIP_DBG_aMemPool                         0x00000154   Data           0  QCA6174_SCAQBAFM.sym ABSOLUTE
    PF_OS_topTimerList                       0x0000015c   Data           0  QCA6174_SCAQBAFM.sym ABSOLUTE
    PF_OS_TopTimerModified                   0x0000015d   Data           0  QCA6174_SCAQBAFM.sym ABSOLUTE
    PF_OS_bSystemReady                       0x0000015e   Data           0  QCA6174_SCAQBAFM.sym ABSOLUTE
    PF_OS_StartTaskMask                      0x0000015f   Data           0  QCA6174_SCAQBAFM.sym ABSOLUTE
    PF_OS_SystemReadyMask                    0x00000160   Data           0  QCA6174_SCAQBAFM.sym ABSOLUTE
    PF_OS_Ticks                              0x00000164   Data           0  QCA6174_SCAQBAFM.sym ABSOLUTE
    SYS_CFG_STACK_SIZES                      0x00000168   Data           0  QCA6174_SCAQBAFM.sym ABSOLUTE
    PF_OS_pHeapBottom                        0x00000174   Data           0  QCA6174_SCAQBAFM.sym ABSOLUTE
    PF_OS_pHeapTop                           0x00000178   Data           0  QCA6174_SCAQBAFM.sym ABSOLUTE
    PF_OS_pUpperHeapBottom                   0x0000017c   Data           0  QCA6174_SCAQBAFM.sym ABSOLUTE
    PF_OS_pUpperHeapTop                      0x00000180   Data           0  QCA6174_SCAQBAFM.sym ABSOLUTE
    PFAL_DBG_VS_Callback                     0x00000188   Data           0  QCA6174_SCAQBAFM.sym ABSOLUTE
    PFAL_DBG_LEAdvPCFCommands                0x0000018c   Data           0  QCA6174_SCAQBAFM.sym ABSOLUTE
    PFAL_DBG_LEPrivacyCommands               0x000001ac   Data           0  QCA6174_SCAQBAFM.sym ABSOLUTE
    LE_Rx_CryptoStatus                       0x000001c8   Data           0  QCA6174_SCAQBAFM.sym ABSOLUTE
    PFAL_LC_CRYPTO_pHlr                      0x000001cc   Data           0  QCA6174_SCAQBAFM.sym ABSOLUTE
    pCRYPTO_Ram                              0x000001d0   Data           0  QCA6174_SCAQBAFM.sym ABSOLUTE
    CryptoErrorFlag                          0x000001d4   Data           0  QCA6174_SCAQBAFM.sym ABSOLUTE
    PFAL_LC_DBCA_Scheduled                   0x000001d8   Data           0  QCA6174_SCAQBAFM.sym ABSOLUTE
    PFAL_LC_DataScanScanTO                   0x000001d9   Data           0  QCA6174_SCAQBAFM.sym ABSOLUTE
    PFAL_LC_STATE_LE_abortFlag               0x000001da   Data           0  QCA6174_SCAQBAFM.sym ABSOLUTE
    PFAL_LC_hlstPtr                          0x000001dc   Data           0  QCA6174_SCAQBAFM.sym ABSOLUTE
    PFAL_LC_LE_saved_RxPktHdrHardAlign       0x000001e0   Data           0  QCA6174_SCAQBAFM.sym ABSOLUTE
    OSIntrDisableStack                       0x000001e4   Data           0  QCA6174_SCAQBAFM.sym ABSOLUTE
    OSIntNesting                             0x000001e8   Data           0  QCA6174_SCAQBAFM.sym ABSOLUTE
    OSLockNesting                            0x000001e9   Data           0  QCA6174_SCAQBAFM.sym ABSOLUTE
    OSPrioCur                                0x000001ea   Data           0  QCA6174_SCAQBAFM.sym ABSOLUTE
    OSPrioHighRdy                            0x000001eb   Data           0  QCA6174_SCAQBAFM.sym ABSOLUTE
    OSRdyGrp                                 0x000001ec   Data           0  QCA6174_SCAQBAFM.sym ABSOLUTE
    OSRunning                                0x000001ed   Data           0  QCA6174_SCAQBAFM.sym ABSOLUTE
    OSTaskCtr                                0x000001ee   Data           0  QCA6174_SCAQBAFM.sym ABSOLUTE
    OSTickStepState                          0x000001ef   Data           0  QCA6174_SCAQBAFM.sym ABSOLUTE
    OSRdyTbl                                 0x000001f0   Data           0  QCA6174_SCAQBAFM.sym ABSOLUTE
    OSCtxSwCtr                               0x000001f4   Data           0  QCA6174_SCAQBAFM.sym ABSOLUTE
    OSEventFreeList                          0x000001f8   Data           0  QCA6174_SCAQBAFM.sym ABSOLUTE
    OSIdleCtr                                0x000001fc   Data           0  QCA6174_SCAQBAFM.sym ABSOLUTE
    OSTCBCur                                 0x00000200   Data           0  QCA6174_SCAQBAFM.sym ABSOLUTE
    OSTCBFreeList                            0x00000204   Data           0  QCA6174_SCAQBAFM.sym ABSOLUTE
    OSTCBHighRdy                             0x00000208   Data           0  QCA6174_SCAQBAFM.sym ABSOLUTE
    OSTCBList                                0x0000020c   Data           0  QCA6174_SCAQBAFM.sym ABSOLUTE
    OSTime                                   0x00000210   Data           0  QCA6174_SCAQBAFM.sym ABSOLUTE
    PFAL_RM_PHYRegValid                      0x00000218   Data           0  QCA6174_SCAQBAFM.sym ABSOLUTE
    coexRequestState                         0x00000219   Data           0  QCA6174_SCAQBAFM.sym ABSOLUTE
    TX_DC_CAL_IQ_LOOP_DURATION_USEC          0x0000021a   Data           0  QCA6174_SCAQBAFM.sym ABSOLUTE
    coeffCrossTxRsbCal                       0x0000021b   Data           0  QCA6174_SCAQBAFM.sym ABSOLUTE
    PFAL_RM_bTempFilterInit                  0x0000021c   Data           0  QCA6174_SCAQBAFM.sym ABSOLUTE
    PFAL_RM_bTempCodeRead                    0x0000021d   Data           0  QCA6174_SCAQBAFM.sym ABSOLUTE
    PFAL_RM_radioInitEnabled                 0x0000021e   Data           0  QCA6174_SCAQBAFM.sym ABSOLUTE
    PFAL_RM_WCNXO_Config                     0x0000021f   Data           0  QCA6174_SCAQBAFM.sym ABSOLUTE
    PFAL_RM_HW_txCoarseTempIndex             0x00000220   Data           0  QCA6174_SCAQBAFM.sym ABSOLUTE
    PFAL_RM_HW_txFineTempIndex               0x00000221   Data           0  QCA6174_SCAQBAFM.sym ABSOLUTE
    PFAL_RM_HW_rxCoarseTempIndex             0x00000222   Data           0  QCA6174_SCAQBAFM.sym ABSOLUTE
    PFAL_RM_HW_rxFineTempIndex               0x00000223   Data           0  QCA6174_SCAQBAFM.sym ABSOLUTE
    prev_txCoarseTempIndex                   0x00000224   Data           0  QCA6174_SCAQBAFM.sym ABSOLUTE
    prev_txFineTempIndex                     0x00000225   Data           0  QCA6174_SCAQBAFM.sym ABSOLUTE
    prev_rxCoarseTempIndex                   0x00000226   Data           0  QCA6174_SCAQBAFM.sym ABSOLUTE
    prev_rxFineTempIndex                     0x00000227   Data           0  QCA6174_SCAQBAFM.sym ABSOLUTE
    PFAL_RM_HW_filteredThermoCode            0x0000022b   Data           0  QCA6174_SCAQBAFM.sym ABSOLUTE
    PFAL_RM_TxPowerLevel                     0x0000022c   Data           0  QCA6174_SCAQBAFM.sym ABSOLUTE
    PFAL_RM_HW_CAL_ERROR_CODE                0x0000022d   Data           0  QCA6174_SCAQBAFM.sym ABSOLUTE
    gCurrentCal                              0x0000022e   Data           0  QCA6174_SCAQBAFM.sym ABSOLUTE
    PFAL_RM_STARTING_POWER_LEVEL_INDEX       0x0000022f   Data           0  QCA6174_SCAQBAFM.sym ABSOLUTE
    PFAL_RM_GFSK_MAX_POWER_LEVEL_INDEX       0x00000230   Data           0  QCA6174_SCAQBAFM.sym ABSOLUTE
    PFAL_RM_DQPSK_MAX_POWER_LEVEL_INDEX      0x00000231   Data           0  QCA6174_SCAQBAFM.sym ABSOLUTE
    PFAL_RM_8DPSK_MAX_POWER_LEVEL_INDEX      0x00000232   Data           0  QCA6174_SCAQBAFM.sym ABSOLUTE
    PFAL_RM_DQPSK_MIN_POWER_LEVEL_INDEX      0x00000233   Data           0  QCA6174_SCAQBAFM.sym ABSOLUTE
    PFAL_RM_8DPSK_MIN_POWER_LEVEL_INDEX      0x00000234   Data           0  QCA6174_SCAQBAFM.sym ABSOLUTE
    PFAL_RM_BROADCAST_POWER_LEVEL_INDEX      0x00000235   Data           0  QCA6174_SCAQBAFM.sym ABSOLUTE
    PFAL_RM_CLASS2_FALLBACK_POWER_LEVEL_INDEX 0x00000236   Data           0  QCA6174_SCAQBAFM.sym ABSOLUTE
    PFAL_RM_HW_MOM_CAP_COARSE_CORNER         0x00000237   Data           0  QCA6174_SCAQBAFM.sym ABSOLUTE
    PFAL_RM_HW_MOM_CAP_FINE_CORNER           0x00000238   Data           0  QCA6174_SCAQBAFM.sym ABSOLUTE
    PFAL_RM_HW_TX_NMOS_SVT_CORNER            0x00000239   Data           0  QCA6174_SCAQBAFM.sym ABSOLUTE
    PFAL_RM_txRtmomCal                       0x0000023a   Data           0  QCA6174_SCAQBAFM.sym ABSOLUTE
    PFAL_RM_txNmosSvtCal                     0x0000023b   Data           0  QCA6174_SCAQBAFM.sym ABSOLUTE
    PFAL_RM_txNmosSvtRtmom_0                 0x0000023c   Data           0  QCA6174_SCAQBAFM.sym ABSOLUTE
    PFAL_RM_txNmosSvtRtmom_1                 0x0000023d   Data           0  QCA6174_SCAQBAFM.sym ABSOLUTE
    PFAL_RM_txIQCompCtrl                     0x0000023e   Data           0  QCA6174_SCAQBAFM.sym ABSOLUTE
    PFAL_RM_txIQCompC2_8_1                   0x0000023f   Data           0  QCA6174_SCAQBAFM.sym ABSOLUTE
    PFAL_RM_HW_txEqCtrl                      0x00000240   Data           0  QCA6174_SCAQBAFM.sym ABSOLUTE
    store_TxLUT_30                           0x00000241   Data           0  QCA6174_SCAQBAFM.sym ABSOLUTE
    coeffCrossTx_RAM                         0x00000242   Data           0  QCA6174_SCAQBAFM.sym ABSOLUTE
    gmGain_RAM                               0x00000243   Data           0  QCA6174_SCAQBAFM.sym ABSOLUTE
    coeffCrossRx_RAM                         0x00000244   Data           0  QCA6174_SCAQBAFM.sym ABSOLUTE
    PFAL_RM_HW_rxIQCorrCoeffCrossGM_0        0x00000245   Data           0  QCA6174_SCAQBAFM.sym ABSOLUTE
    PFAL_RM_HW_rxIQCorrCoeffCrossGM_1        0x00000246   Data           0  QCA6174_SCAQBAFM.sym ABSOLUTE
    PFAL_RM_HW_rxIQCorrCoeffCrossGM_2        0x00000247   Data           0  QCA6174_SCAQBAFM.sym ABSOLUTE
    PFAL_RM_HW_rxIQCorrCoeffCrossGM_3        0x00000248   Data           0  QCA6174_SCAQBAFM.sym ABSOLUTE
    PFAL_RM_HW_rxIQCorrCoeffCrossGM_4        0x00000249   Data           0  QCA6174_SCAQBAFM.sym ABSOLUTE
    PFAL_RM_HW_rxIQCorrCoeffCrossGM_5        0x0000024a   Data           0  QCA6174_SCAQBAFM.sym ABSOLUTE
    PFAL_RM_HW_rxIQCorrCoeffCrossGM_6        0x0000024b   Data           0  QCA6174_SCAQBAFM.sym ABSOLUTE
    PFAL_RM_HW_SoftwarePowerCntlReg          0x0000024c   Data           0  QCA6174_SCAQBAFM.sym ABSOLUTE
    PFAL_RM_HW_TxUT_00                       0x0000024d   Data           0  QCA6174_SCAQBAFM.sym ABSOLUTE
    PFAL_RM_HW_TxNmosSvtRtmom_0              0x0000024e   Data           0  QCA6174_SCAQBAFM.sym ABSOLUTE
    PFAL_RM_HW_RxAdcTempLut_0                0x0000024f   Data           0  QCA6174_SCAQBAFM.sym ABSOLUTE
    PFAL_RM_HW_RxNmosRbiasTempLut_0          0x00000250   Data           0  QCA6174_SCAQBAFM.sym ABSOLUTE
    PFAL_RM_HW_RxDcNotchCtrl                 0x00000251   Data           0  QCA6174_SCAQBAFM.sym ABSOLUTE
    PFAL_RM_HW_RxDcNotchCtrl2                0x00000252   Data           0  QCA6174_SCAQBAFM.sym ABSOLUTE
    PFAL_RM_HW_RxDcNotchTrainPole_14_8       0x00000253   Data           0  QCA6174_SCAQBAFM.sym ABSOLUTE
    PFAL_RM_HW_RxDcNotchTrainPole_7_0        0x00000254   Data           0  QCA6174_SCAQBAFM.sym ABSOLUTE
    PFAL_RM_HW_RxDcNotchTrack_P1_14_8        0x00000255   Data           0  QCA6174_SCAQBAFM.sym ABSOLUTE
    PFAL_RM_HW_RxDcNotchTrack_P1_7_0         0x00000256   Data           0  QCA6174_SCAQBAFM.sym ABSOLUTE
    PFAL_RM_HW_RxDcNotchTrack_P2_14_8        0x00000257   Data           0  QCA6174_SCAQBAFM.sym ABSOLUTE
    PFAL_RM_HW_RxDcNotchTrack_P2_7_0         0x00000258   Data           0  QCA6174_SCAQBAFM.sym ABSOLUTE
    PFAL_RM_HW_RxDcNotchTrack_P3_14_8        0x00000259   Data           0  QCA6174_SCAQBAFM.sym ABSOLUTE
    PFAL_RM_HW_RxDcNotchTrack_P3_7_0         0x0000025a   Data           0  QCA6174_SCAQBAFM.sym ABSOLUTE
    PFAL_RM_HW_RxDcNotchTrack_P4_14_8        0x0000025b   Data           0  QCA6174_SCAQBAFM.sym ABSOLUTE
    PFAL_RM_HW_RxDcNotchTrack_P4_7_0         0x0000025c   Data           0  QCA6174_SCAQBAFM.sym ABSOLUTE
    PFAL_RM_HW_RxDcNotchTrack_P5_14_8        0x0000025d   Data           0  QCA6174_SCAQBAFM.sym ABSOLUTE
    PFAL_RM_HW_RxDcNotchTrack_P5_7_0         0x0000025e   Data           0  QCA6174_SCAQBAFM.sym ABSOLUTE
    PFAL_RM_HW_RxDcNotchTrainDur             0x0000025f   Data           0  QCA6174_SCAQBAFM.sym ABSOLUTE
    PFAL_RM_HW_RxDcNotchTrack_P1_DUR         0x00000260   Data           0  QCA6174_SCAQBAFM.sym ABSOLUTE
    PFAL_RM_HW_RxDcNotchTrack_P2_DUR         0x00000261   Data           0  QCA6174_SCAQBAFM.sym ABSOLUTE
    PFAL_RM_HW_RxDcNotchTrack_P3_DUR         0x00000262   Data           0  QCA6174_SCAQBAFM.sym ABSOLUTE
    PFAL_RM_HW_RxDcNotchTrack_P4_DUR         0x00000263   Data           0  QCA6174_SCAQBAFM.sym ABSOLUTE
    PFAL_RM_HW_RxAgcHighGainCode             0x00000264   Data           0  QCA6174_SCAQBAFM.sym ABSOLUTE
    PFAL_RM_HW_txDaTempLut0                  0x00000265   Data           0  QCA6174_SCAQBAFM.sym ABSOLUTE
    PFAL_RM_HW_txDaTempLut1                  0x00000266   Data           0  QCA6174_SCAQBAFM.sym ABSOLUTE
    PFAL_RM_HW_txTempCal                     0x00000267   Data           0  QCA6174_SCAQBAFM.sym ABSOLUTE
    PFAL_RM_HW_txDaNmosRtmomTempLut0_0       0x00000268   Data           0  QCA6174_SCAQBAFM.sym ABSOLUTE
    PFAL_RM_HW_txDaNmosRtmomTempLut0_1       0x00000269   Data           0  QCA6174_SCAQBAFM.sym ABSOLUTE
    PFAL_RM_HW_txDaNmosRtmomTempLut1_0       0x0000026a   Data           0  QCA6174_SCAQBAFM.sym ABSOLUTE
    PFAL_RM_HW_txDaNmosRtmomTempLut1_1       0x0000026b   Data           0  QCA6174_SCAQBAFM.sym ABSOLUTE
    PFAL_RM_HW_tempSignResultTiaRsOffset0    0x0000026c   Data           0  QCA6174_SCAQBAFM.sym ABSOLUTE
    PFAL_RM_HW_tempSignResultTiaRsOffset1    0x0000026d   Data           0  QCA6174_SCAQBAFM.sym ABSOLUTE
    PFAL_RM_HW_tempSignResultTiaCs           0x0000026e   Data           0  QCA6174_SCAQBAFM.sym ABSOLUTE
    PFAL_RM_txControl                        0x0000026f   Data           0  QCA6174_SCAQBAFM.sym ABSOLUTE
    PFAL_RM_RampGenForce4_en                 0x00000270   Data           0  QCA6174_SCAQBAFM.sym ABSOLUTE
    PFAL_RM_HW_RXRF_ADCRES                   0x00000271   Data           0  QCA6174_SCAQBAFM.sym ABSOLUTE
    PFAL_RM_XLNA_GAIN_dB                     0x00000272   Data           0  QCA6174_SCAQBAFM.sym ABSOLUTE
    PFAL_RM_HW_rawTempCode                   0x00000274   Data           0  QCA6174_SCAQBAFM.sym ABSOLUTE
    PFAL_RM_HW_rawTempCodeOffset             0x00000276   Data           0  QCA6174_SCAQBAFM.sym ABSOLUTE
    coeffDiagTxRsbCal                        0x00000278   Data           0  QCA6174_SCAQBAFM.sym ABSOLUTE
    PFAL_RM_HW_filteredTempCodeQ3            0x0000027a   Data           0  QCA6174_SCAQBAFM.sym ABSOLUTE
    PFAL_RM_HW_NMOS_SVT_Code                 0x0000027c   Data           0  QCA6174_SCAQBAFM.sym ABSOLUTE
    PFAL_RM_HW_MOM_CAP_Code                  0x0000027e   Data           0  QCA6174_SCAQBAFM.sym ABSOLUTE
    resCoeffDiagTx_RAM                       0x00000280   Data           0  QCA6174_SCAQBAFM.sym ABSOLUTE
    resCoeffCrossTx_RAM                      0x00000282   Data           0  QCA6174_SCAQBAFM.sym ABSOLUTE
    coeffDiagTx_RAM                          0x00000284   Data           0  QCA6174_SCAQBAFM.sym ABSOLUTE
    coeffDiagRx_RAM                          0x00000286   Data           0  QCA6174_SCAQBAFM.sym ABSOLUTE
    PFAL_RM_HW_rxIQCorrCoeffDiagGM_0_8_0     0x00000288   Data           0  QCA6174_SCAQBAFM.sym ABSOLUTE
    PFAL_RM_HW_rxIQCorrCoeffDiagGM_1_8_0     0x0000028a   Data           0  QCA6174_SCAQBAFM.sym ABSOLUTE
    PFAL_RM_HW_rxIQCorrCoeffDiagGM_2_8_0     0x0000028c   Data           0  QCA6174_SCAQBAFM.sym ABSOLUTE
    PFAL_RM_HW_rxIQCorrCoeffDiagGM_3_8_0     0x0000028e   Data           0  QCA6174_SCAQBAFM.sym ABSOLUTE
    PFAL_RM_HW_rxIQCorrCoeffDiagGM_4_8_0     0x00000290   Data           0  QCA6174_SCAQBAFM.sym ABSOLUTE
    PFAL_RM_HW_rxIQCorrCoeffDiagGM_5_8_0     0x00000292   Data           0  QCA6174_SCAQBAFM.sym ABSOLUTE
    PFAL_RM_HW_rxIQCorrCoeffDiagGM_6_8_0     0x00000294   Data           0  QCA6174_SCAQBAFM.sym ABSOLUTE
    pRM_Reg16_PHY                            0x00000298   Data           0  QCA6174_SCAQBAFM.sym ABSOLUTE
    PFAL_RM_nextTempCodeClkNative            0x0000029c   Data           0  QCA6174_SCAQBAFM.sym ABSOLUTE
    PFAL_RM_channelCalTablePtr               0x000002a0   Data           0  QCA6174_SCAQBAFM.sym ABSOLUTE
    gInterruptByWLANCounter                  0x000002a4   Data           0  QCA6174_SCAQBAFM.sym ABSOLUTE
    PFAL_RM_pThresholdInputParams            0x000002a8   Data           0  QCA6174_SCAQBAFM.sym ABSOLUTE
    PFAL_RM_TX_DC_CAL_GAIN_0_1               0x000002ac   Data           0  QCA6174_SCAQBAFM.sym ABSOLUTE
    PFAL_RM_TX_DC_CAL_GAIN_2_3               0x000002b0   Data           0  QCA6174_SCAQBAFM.sym ABSOLUTE
    PFAL_RM_TX_DC_CAL_GAIN_4_5               0x000002b4   Data           0  QCA6174_SCAQBAFM.sym ABSOLUTE
    PFAL_RM_TX_DC_CAL_GAIN_6_7               0x000002b8   Data           0  QCA6174_SCAQBAFM.sym ABSOLUTE
    PFAL_RM_TX_DC_CAL_GAIN_8_9               0x000002bc   Data           0  QCA6174_SCAQBAFM.sym ABSOLUTE
    PFAL_RM_TX_DC_CAL_GAIN_10_11             0x000002c0   Data           0  QCA6174_SCAQBAFM.sym ABSOLUTE
    PFAL_RM_TX_DC_CAL_GAIN_12_13             0x000002c4   Data           0  QCA6174_SCAQBAFM.sym ABSOLUTE
    PFAL_RM_TX_DC_CAL_GAIN_14_15             0x000002c8   Data           0  QCA6174_SCAQBAFM.sym ABSOLUTE
    rEVEN_RAM                                0x000002cc   Data           0  QCA6174_SCAQBAFM.sym ABSOLUTE
    rODD_RAM                                 0x000002d0   Data           0  QCA6174_SCAQBAFM.sym ABSOLUTE
    power_I_RAM                              0x000002d4   Data           0  QCA6174_SCAQBAFM.sym ABSOLUTE
    power_Q_RAM                              0x000002d8   Data           0  QCA6174_SCAQBAFM.sym ABSOLUTE
    cross_IQ_RAM                             0x000002dc   Data           0  QCA6174_SCAQBAFM.sym ABSOLUTE
    num_RAM                                  0x000002e0   Data           0  QCA6174_SCAQBAFM.sym ABSOLUTE
    denom_RAM                                0x000002e4   Data           0  QCA6174_SCAQBAFM.sym ABSOLUTE
    alphaTx_RAM                              0x000002e8   Data           0  QCA6174_SCAQBAFM.sym ABSOLUTE
    cosAlphaTx_RAM                           0x000002ec   Data           0  QCA6174_SCAQBAFM.sym ABSOLUTE
    alphaRx_RAM                              0x000002f0   Data           0  QCA6174_SCAQBAFM.sym ABSOLUTE
    cosAlphaRx_RAM                           0x000002f4   Data           0  QCA6174_SCAQBAFM.sym ABSOLUTE
    numTmp_RAM                               0x000002f8   Data           0  QCA6174_SCAQBAFM.sym ABSOLUTE
    cmmDen_RAM                               0x000002fc   Data           0  QCA6174_SCAQBAFM.sym ABSOLUTE
    cosSinRatio_RAM                          0x00000300   Data           0  QCA6174_SCAQBAFM.sym ABSOLUTE
    sinSinRatio_RAM                          0x00000304   Data           0  QCA6174_SCAQBAFM.sym ABSOLUTE
    invTan_RAM                               0x00000308   Data           0  QCA6174_SCAQBAFM.sym ABSOLUTE
    deltaR1_RAM                              0x0000030c   Data           0  QCA6174_SCAQBAFM.sym ABSOLUTE
    deltaR2_RAM                              0x00000310   Data           0  QCA6174_SCAQBAFM.sym ABSOLUTE
    halfDeltaR1_RAM                          0x00000314   Data           0  QCA6174_SCAQBAFM.sym ABSOLUTE
    firstMult_RAM                            0x00000318   Data           0  QCA6174_SCAQBAFM.sym ABSOLUTE
    secondMult_RAM                           0x0000031c   Data           0  QCA6174_SCAQBAFM.sym ABSOLUTE
    epson_Tx_RAM                             0x00000320   Data           0  QCA6174_SCAQBAFM.sym ABSOLUTE
    theta_Tx_RAM                             0x00000324   Data           0  QCA6174_SCAQBAFM.sym ABSOLUTE
    invTanDelta1_RAM                         0x00000328   Data           0  QCA6174_SCAQBAFM.sym ABSOLUTE
    invTanDelta2_RAM                         0x0000032c   Data           0  QCA6174_SCAQBAFM.sym ABSOLUTE
    tmp_RAM                                  0x00000330   Data           0  QCA6174_SCAQBAFM.sym ABSOLUTE
    epson_Rx_RAM                             0x00000334   Data           0  QCA6174_SCAQBAFM.sym ABSOLUTE
    doubR2_RAM                               0x00000338   Data           0  QCA6174_SCAQBAFM.sym ABSOLUTE
    theta_Rx_RAM                             0x0000033c   Data           0  QCA6174_SCAQBAFM.sym ABSOLUTE
    PFAL_RM_RX_Get_Normalized_RSSI           0x00000340   Data           0  QCA6174_SCAQBAFM.sym ABSOLUTE
    tempFixed                                0x00000348   Data           0  QCA6174_SCAQBAFM.sym ABSOLUTE
    tempFixed2                               0x00000350   Data           0  QCA6174_SCAQBAFM.sym ABSOLUTE
    resultFixed                              0x00000358   Data           0  QCA6174_SCAQBAFM.sym ABSOLUTE
    TempCalDataTx_Temp_Cal_Table             0x00000360   Data           0  QCA6174_SCAQBAFM.sym ABSOLUTE
    TempCalDataTx_NMOS_RTMOM_Table           0x00000388   Data           0  QCA6174_SCAQBAFM.sym ABSOLUTE
    ExtTempCalDataTx_NMOS_RTMOM_Table        0x0000039c   Data           0  QCA6174_SCAQBAFM.sym ABSOLUTE
    ADC_TEMP_CAL_DATA_RX                     0x000003b0   Data           0  QCA6174_SCAQBAFM.sym ABSOLUTE
    RX_NMOS_RBIAS_TEMP_PROCESS_CAL_OFFSET_TABLE 0x000003d8   Data           0  QCA6174_SCAQBAFM.sym ABSOLUTE
    RX_RTMOM_TEMP_PROCESS_CAL_OFFSET_TABLE   0x000003ec   Data           0  QCA6174_SCAQBAFM.sym ABSOLUTE
    metricIntegrationTimeAvg                 0x00000400   Data           0  QCA6174_SCAQBAFM.sym ABSOLUTE
    PFAL_RM_RMRegOverride                    0x00000410   Data           0  QCA6174_SCAQBAFM.sym ABSOLUTE
    PFAL_RM_pTxPowerCfgRM_Reg                0x000004c4   Data           0  QCA6174_SCAQBAFM.sym ABSOLUTE
    PFAL_RM_HW_RXBB_TIA_CM_CTRL              0x000004c8   Data           0  QCA6174_SCAQBAFM.sym ABSOLUTE
    PFAL_RM_HW_RXRF_LOAD_CTUNE               0x000004c9   Data           0  QCA6174_SCAQBAFM.sym ABSOLUTE
    PFAL_RM_anaPwrSaveDefault                0x000004cc   Data           0  QCA6174_SCAQBAFM.sym ABSOLUTE
    PFAL_SLEEP_ComparatorIntEnabled          0x000004d0   Data           0  QCA6174_SCAQBAFM.sym ABSOLUTE
    PFAL_SLEEP_clkCalLoggerDataReady         0x000004d1   Data           0  QCA6174_SCAQBAFM.sym ABSOLUTE
    PFAL_SLEEP_EnableShadowCopy              0x000004d2   Data           0  QCA6174_SCAQBAFM.sym ABSOLUTE
    PFAL_SLEEP_HciWakeSignalISR              0x000004d4   Data           0  QCA6174_SCAQBAFM.sym ABSOLUTE
    PFAL_SLEEP_GpioWakeSignalISR             0x000004d8   Data           0  QCA6174_SCAQBAFM.sym ABSOLUTE
    PFAL_SLEEP_clkCalTimeout                 0x000004e0   Data           0  QCA6174_SCAQBAFM.sym ABSOLUTE
    PFAL_SLEEP_clkComparatorCount            0x000004e4   Data           0  QCA6174_SCAQBAFM.sym ABSOLUTE
    PFAL_SLEEP_ComparatorValue               0x000004e8   Data           0  QCA6174_SCAQBAFM.sym ABSOLUTE
    LeAdvCnt                                 0x000004f0   Data           0  QCA6174_SCAQBAFM.sym ABSOLUTE
    RandomSeed                               0x000004f4   Data           0  QCA6174_SCAQBAFM.sym ABSOLUTE
    PFAL_SYS_VsHCIReset                      0x000004f8   Data           0  QCA6174_SCAQBAFM.sym ABSOLUTE
    PFAL_SYS_bZeroCacheOnWake                0x000004fc   Data           0  QCA6174_SCAQBAFM.sym ABSOLUTE
    PFAL_SYS_pwrModeCurrent                  0x000004fd   Data           0  QCA6174_SCAQBAFM.sym ABSOLUTE
    PFAL_SYS_GPIOInputShadowCopy             0x00000500   Data           0  QCA6174_SCAQBAFM.sym ABSOLUTE
    PFAL_SYS_powerModeRequestSemaphore       0x00000504   Data           0  QCA6174_SCAQBAFM.sym ABSOLUTE
    gOwiIntCallback                          0x00000508   Data           0  QCA6174_SCAQBAFM.sym ABSOLUTE
    gOwiIntParam                             0x0000050c   Data           0  QCA6174_SCAQBAFM.sym ABSOLUTE
    PFAL_SYS_RefFrequency                    0x00000510   Data           0  QCA6174_SCAQBAFM.sym ABSOLUTE
    PFAL_SYS_lppsPktDetCount                 0x00000514   Data           0  QCA6174_SCAQBAFM.sym ABSOLUTE
    syncDetectStatus                         0x00000515   Data           0  QCA6174_SCAQBAFM.sym ABSOLUTE
    berStatus                                0x00000516   Data           0  QCA6174_SCAQBAFM.sym ABSOLUTE
    totalBitErrors                           0x00000518   Data           0  QCA6174_SCAQBAFM.sym ABSOLUTE
    totalSyncDetect                          0x0000051a   Data           0  QCA6174_SCAQBAFM.sym ABSOLUTE
    PFAL_SYS_EDL_BERT_TriggerPin             0x0000051c   Data           0  QCA6174_SCAQBAFM.sym ABSOLUTE
    PFAL_SYS_EDL_ProdTestStatus              0x00000520   Data           0  QCA6174_SCAQBAFM.sym ABSOLUTE
    PFAL_SYS_EDL_ProdTestResult              0x00000524   Data           0  QCA6174_SCAQBAFM.sym ABSOLUTE
    DEBUG_BIT0_STORED                        0x00000528   Data           0  QCA6174_SCAQBAFM.sym ABSOLUTE
    DEBUG_BIT1_STORED                        0x0000052c   Data           0  QCA6174_SCAQBAFM.sym ABSOLUTE
    pEDL_Data                                0x00000530   Data           0  QCA6174_SCAQBAFM.sym ABSOLUTE
    PFAL_VOICE_State                         0x00000534   Data           0  QCA6174_SCAQBAFM.sym ABSOLUTE
    HIF_TaskHandle                           0x00000536   Data           0  QCA6174_SCAQBAFM.sym ABSOLUTE
    LLM_TaskHandle                           0x00000537   Data           0  QCA6174_SCAQBAFM.sym ABSOLUTE
    APP_TaskHandle                           0x00000538   Data           0  QCA6174_SCAQBAFM.sym ABSOLUTE
    MCI_TaskHandle                           0x00000539   Data           0  QCA6174_SCAQBAFM.sym ABSOLUTE
    MWS_TaskHandle                           0x0000053a   Data           0  QCA6174_SCAQBAFM.sym ABSOLUTE
    BKGD_TaskHandle                          0x0000053b   Data           0  QCA6174_SCAQBAFM.sym ABSOLUTE
    HIF_TimerMask                            0x0000053c   Data           0  QCA6174_SCAQBAFM.sym ABSOLUTE
    LLM_TimerMask                            0x00000540   Data           0  QCA6174_SCAQBAFM.sym ABSOLUTE
    APP_TimerMask                            0x00000544   Data           0  QCA6174_SCAQBAFM.sym ABSOLUTE
    MCI_TimerMask                            0x00000548   Data           0  QCA6174_SCAQBAFM.sym ABSOLUTE
    MWS_TimerMask                            0x0000054c   Data           0  QCA6174_SCAQBAFM.sym ABSOLUTE
    BKGD_TimerMask                           0x00000550   Data           0  QCA6174_SCAQBAFM.sym ABSOLUTE
    PF_DBG_LoggerWaitDuringResetProcessing   0x00000554   Data           0  QCA6174_SCAQBAFM.sym ABSOLUTE
    PF_DBG_pLoggerData                       0x00000558   Data           0  QCA6174_SCAQBAFM.sym ABSOLUTE
    PF_DBG_pSavedLogHead                     0x0000055c   Data           0  QCA6174_SCAQBAFM.sym ABSOLUTE
    PF_DBG_pSavedLogTail                     0x00000560   Data           0  QCA6174_SCAQBAFM.sym ABSOLUTE
    BKGD_State                               0x00000564   Data           0  QCA6174_SCAQBAFM.sym ABSOLUTE
    BKGD_ActivityCountdownTimer              0x00000566   Data           0  QCA6174_SCAQBAFM.sym ABSOLUTE
    BKGD_ActivityCountdownTimerReload        0x00000567   Data           0  QCA6174_SCAQBAFM.sym ABSOLUTE
    BKGD_LoggerCountdownTimer                0x00000568   Data           0  QCA6174_SCAQBAFM.sym ABSOLUTE
    BKGD_LoggerCountdownTimerReload          0x00000569   Data           0  QCA6174_SCAQBAFM.sym ABSOLUTE
    BKGD_ActivityPeriod                      0x0000056a   Data           0  QCA6174_SCAQBAFM.sym ABSOLUTE
    BKGD_TimerPeriod                         0x0000056c   Data           0  QCA6174_SCAQBAFM.sym ABSOLUTE
    HCI_largeHciCmdMaxNumber                 0x0000056e   Data           0  QCA6174_SCAQBAFM.sym ABSOLUTE
    HCI_hostSizeSCODataPayload               0x00000571   Data           0  QCA6174_SCAQBAFM.sym ABSOLUTE
    HCI_hcSizeSCODataPayload                 0x00000572   Data           0  QCA6174_SCAQBAFM.sym ABSOLUTE
    HCI_IsHostBufferSizeSet                  0x00000573   Data           0  QCA6174_SCAQBAFM.sym ABSOLUTE
    HCI_hostFlowControlEnable                0x00000574   Data           0  QCA6174_SCAQBAFM.sym ABSOLUTE
    HCI_smallCmdReadyCount                   0x00000575   Data           0  QCA6174_SCAQBAFM.sym ABSOLUTE
    HCI_largeCmdReadyCount                   0x00000576   Data           0  QCA6174_SCAQBAFM.sym ABSOLUTE
    HCI_hostTotalNumACLDataPackets           0x00000578   Data           0  QCA6174_SCAQBAFM.sym ABSOLUTE
    HCI_hostTotalNumSCODataPackets           0x0000057a   Data           0  QCA6174_SCAQBAFM.sym ABSOLUTE
    HCI_TxQueue                              0x0000057c   Data           0  QCA6174_SCAQBAFM.sym ABSOLUTE
    HCI_syncFlowControlEnable                0x00000584   Data           0  QCA6174_SCAQBAFM.sym ABSOLUTE
    txSeqMode1PktType                        0x00000586   Data           0  QCA6174_SCAQBAFM.sym ABSOLUTE
    txSeqMode2PktType                        0x000005bc   Data           0  QCA6174_SCAQBAFM.sym ABSOLUTE
    txSeqMode3PktType                        0x000005e0   Data           0  QCA6174_SCAQBAFM.sym ABSOLUTE
    SeqTestTxMode                            0x000005f4   Data           0  QCA6174_SCAQBAFM.sym ABSOLUTE
    SeqTestEnable                            0x000005f5   Data           0  QCA6174_SCAQBAFM.sym ABSOLUTE
    SeqTestLtAddr                            0x000005f6   Data           0  QCA6174_SCAQBAFM.sym ABSOLUTE
    SeqRxFirstStateNullPktAligned            0x000005f7   Data           0  QCA6174_SCAQBAFM.sym ABSOLUTE
    SeqTestTxIncNullPkt                      0x000005f8   Data           0  QCA6174_SCAQBAFM.sym ABSOLUTE
    ProdRxBurstCfgSupport                    0x000005f9   Data           0  QCA6174_SCAQBAFM.sym ABSOLUTE
    maxRxSeqStatsEventSz                     0x000005fa   Data           0  QCA6174_SCAQBAFM.sym ABSOLUTE
    MaxProdRxBurstPktNum                     0x000005fc   Data           0  QCA6174_SCAQBAFM.sym ABSOLUTE
    ProdRxBurstPktRecvNum                    0x00000600   Data           0  QCA6174_SCAQBAFM.sym ABSOLUTE
    txSeqModeInfo                            0x00000604   Data           0  QCA6174_SCAQBAFM.sym ABSOLUTE
    rxSeqPktType                             0x0000061c   Data           0  QCA6174_SCAQBAFM.sym ABSOLUTE
    PF_LC_swNCount                           0x00000628   Data           0  QCA6174_SCAQBAFM.sym ABSOLUTE
    PFAL_TXP_Data                            0x0000062c   Data           0  QCA6174_SCAQBAFM.sym ABSOLUTE
    PF_TXP_Functions                         0x00000630   Data           0  QCA6174_SCAQBAFM.sym ABSOLUTE
    SLC_AFH_InitRandNumSeedSlotCount         0x00000634   Data           0  QCA6174_SCAQBAFM.sym ABSOLUTE
    SLC_AFH_IsChanAssessmentFrameActive      0x00000635   Data           0  QCA6174_SCAQBAFM.sym ABSOLUTE
    SLC_AFH_LocalMetricChan                  0x00000636   Data           0  QCA6174_SCAQBAFM.sym ABSOLUTE
    SLC_AFH_ChannelAssessmentRequired        0x00000637   Data           0  QCA6174_SCAQBAFM.sym ABSOLUTE
    SLC_AFH_LocalRXErrorSum                  0x00000638   Data           0  QCA6174_SCAQBAFM.sym ABSOLUTE
    SLC_AFH_LocalRXCountSum                  0x0000063a   Data           0  QCA6174_SCAQBAFM.sym ABSOLUTE
    eSlaveRxAckNeeded                        0x0000063c   Data           0  QCA6174_SCAQBAFM.sym ABSOLUTE
    SLC_pScanAC_dispatchElem                 0x00000640   Data           0  QCA6174_SCAQBAFM.sym ABSOLUTE
    pSLC_accessScan                          0x00000644   Data           0  QCA6174_SCAQBAFM.sym ABSOLUTE
    pageRespTOCount                          0x00000648   Data           0  QCA6174_SCAQBAFM.sym ABSOLUTE
    newConnTOCount                           0x0000064c   Data           0  QCA6174_SCAQBAFM.sym ABSOLUTE
    slotCounter                              0x0000064e   Data           0  QCA6174_SCAQBAFM.sym ABSOLUTE
    SlaveSkipTx                              0x00000650   Data           0  QCA6174_SCAQBAFM.sym ABSOLUTE
    SLC_processedTxBlocks                    0x00000651   Data           0  QCA6174_SCAQBAFM.sym ABSOLUTE
    SLC_hostACLDataPacketLength              0x00000652   Data           0  QCA6174_SCAQBAFM.sym ABSOLUTE
    SLC_BB_RxPktMemBlks                      0x00000654   Data           0  QCA6174_SCAQBAFM.sym ABSOLUTE
    SLC_RX_ACL_LINKED_LIST_capacityInBytes   0x00000658   Data           0  QCA6174_SCAQBAFM.sym ABSOLUTE
    SLC_pIdScan                              0x0000065c   Data           0  QCA6174_SCAQBAFM.sym ABSOLUTE
    SLC_LE_savedSlaveDispatchClk             0x00000660   Data           0  QCA6174_SCAQBAFM.sym ABSOLUTE
    SLC_LE_stateInfo                         0x00000664   Data           0  QCA6174_SCAQBAFM.sym ABSOLUTE
    SLC_LE_pHlr_TxSetup                      0x00000668   Data           0  QCA6174_SCAQBAFM.sym ABSOLUTE
    LpbkTestPattern                          0x0000066c   Data           0  QCA6174_SCAQBAFM.sym ABSOLUTE
    activeMode                               0x0000066d   Data           0  QCA6174_SCAQBAFM.sym ABSOLUTE
    StatusAndControl                         0x0000066e   Data           0  QCA6174_SCAQBAFM.sym ABSOLUTE
    ptestBlock                               0x00000670   Data           0  QCA6174_SCAQBAFM.sym ABSOLUTE
    pTestStatistics                          0x00000674   Data           0  QCA6174_SCAQBAFM.sym ABSOLUTE
    SLC_TestMuxSource                        0x00000678   Data           0  QCA6174_SCAQBAFM.sym ABSOLUTE
    SDB_CondPerf_Flags                       0x0000067c   Data           0  QCA6174_SCAQBAFM.sym ABSOLUTE
    SDB_supportedCodecs                      0x00000680   Data           0  QCA6174_SCAQBAFM.sym ABSOLUTE
    SDB_LLR_ChannelMap                       0x00000688   Data           0  QCA6174_SCAQBAFM.sym ABSOLUTE
    SDB_SyncTrainChannels                    0x0000069a   Data           0  QCA6174_SCAQBAFM.sym ABSOLUTE
    SDB_HciDataTxPoolCount                   0x000006a0   Data           0  QCA6174_SCAQBAFM.sym ABSOLUTE
    SDB_HciDataRxPoolCount                   0x000006a1   Data           0  QCA6174_SCAQBAFM.sym ABSOLUTE
    SDB_HciLeDataTxPoolCount                 0x000006a2   Data           0  QCA6174_SCAQBAFM.sym ABSOLUTE
    SDB_inquiryPndCount                      0x000006a3   Data           0  QCA6174_SCAQBAFM.sym ABSOLUTE
    SDB_QOS_Format                           0x000006a4   Data           0  QCA6174_SCAQBAFM.sym ABSOLUTE
    SDB_deviceUnderTestMode                  0x000006a5   Data           0  QCA6174_SCAQBAFM.sym ABSOLUTE
    SDB_loopbackMode                         0x000006a6   Data           0  QCA6174_SCAQBAFM.sym ABSOLUTE
    SDB_scanEnable                           0x000006a7   Data           0  QCA6174_SCAQBAFM.sym ABSOLUTE
    SDB_authenticationEnable                 0x000006a8   Data           0  QCA6174_SCAQBAFM.sym ABSOLUTE
    SDB_SimplePairingMode                    0x000006a9   Data           0  QCA6174_SCAQBAFM.sym ABSOLUTE
    SDB_SimplePairingDebugMode               0x000006aa   Data           0  QCA6174_SCAQBAFM.sym ABSOLUTE
    SDB_encryptionMode                       0x000006ab   Data           0  QCA6174_SCAQBAFM.sym ABSOLUTE
    SDB_holdModeActivity                     0x000006ac   Data           0  QCA6174_SCAQBAFM.sym ABSOLUTE
    SDB_LE_Role                              0x000006ad   Data           0  QCA6174_SCAQBAFM.sym ABSOLUTE
    SDB_bEvalScatternetSched                 0x000006ae   Data           0  QCA6174_SCAQBAFM.sym ABSOLUTE
    SDB_SCO_FullStatus                       0x000006af   Data           0  QCA6174_SCAQBAFM.sym ABSOLUTE
    SDB_numActivePiconet                     0x000006b0   Data           0  QCA6174_SCAQBAFM.sym ABSOLUTE
    SDB_retransmitWindowInhibitMask          0x000006b1   Data           0  QCA6174_SCAQBAFM.sym ABSOLUTE
    SDB_nTotalpActiveConnCount               0x000006b2   Data           0  QCA6174_SCAQBAFM.sym ABSOLUTE
    SDB_nTotalpConnCount                     0x000006b3   Data           0  QCA6174_SCAQBAFM.sym ABSOLUTE
    SDB_bLinkSupervisionTimerActive          0x000006b4   Data           0  QCA6174_SCAQBAFM.sym ABSOLUTE
    SDB_bMaxAuthenTimerActive                0x000006b5   Data           0  QCA6174_SCAQBAFM.sym ABSOLUTE
    SDB_nTotalpLeConnCount                   0x000006b6   Data           0  QCA6174_SCAQBAFM.sym ABSOLUTE
    SDB_inquiryMaxPeriodLength               0x000006b8   Data           0  QCA6174_SCAQBAFM.sym ABSOLUTE
    SDB_inquiryMinPeriodLength               0x000006ba   Data           0  QCA6174_SCAQBAFM.sym ABSOLUTE
    SDB_SecureConnections                    0x000006bc   Data           0  QCA6174_SCAQBAFM.sym ABSOLUTE
    SDB_connectionAcceptTimeout              0x000006be   Data           0  QCA6174_SCAQBAFM.sym ABSOLUTE
    SDB_defaultLinkPolicySettings            0x000006c0   Data           0  QCA6174_SCAQBAFM.sym ABSOLUTE
    SDB_AuthenticationRetry                  0x000006c2   Data           0  QCA6174_SCAQBAFM.sym ABSOLUTE
    SDB_classOfDevice                        0x000006c4   Data           0  QCA6174_SCAQBAFM.sym ABSOLUTE
    SDB_HciDataTxPool                        0x000006c8   Data           0  QCA6174_SCAQBAFM.sym ABSOLUTE
    SDB_HciDataRxPool                        0x000006cc   Data           0  QCA6174_SCAQBAFM.sym ABSOLUTE
    SDB_HciLeDataTxPool                      0x000006d0   Data           0  QCA6174_SCAQBAFM.sym ABSOLUTE
    SDB_localLoopback_pConn                  0x000006d4   Data           0  QCA6174_SCAQBAFM.sym ABSOLUTE
    SDB_HV1pActiveConn                       0x000006d8   Data           0  QCA6174_SCAQBAFM.sym ABSOLUTE
    SDB_localParityBits                      0x000006dc   Data           0  QCA6174_SCAQBAFM.sym ABSOLUTE
    SDB_LE_randomDevAddr                     0x000006e1   Data           0  QCA6174_SCAQBAFM.sym ABSOLUTE
    Image$$PATCH_SSRAM$$ZI$$Length           0x000006e8   Number         0  anon$$obj.o ABSOLUTE
    SDB_RoleSwitch                           0x000006e8   Data           0  QCA6174_SCAQBAFM.sym ABSOLUTE
    SDB_focus                                0x000006f0   Data           0  QCA6174_SCAQBAFM.sym ABSOLUTE
    SDB_LE_DeviceFilterList                  0x000006f8   Data           0  QCA6174_SCAQBAFM.sym ABSOLUTE
    SDB_LE_AD_UUID_FilterList                0x00000700   Data           0  QCA6174_SCAQBAFM.sym ABSOLUTE
    SDB_LE_AdvPCFBcstAddrList                0x00000708   Data           0  QCA6174_SCAQBAFM.sym ABSOLUTE
    SDB_LE_AdvPCFServiceUUIDList             0x00000710   Data           0  QCA6174_SCAQBAFM.sym ABSOLUTE
    SDB_LE_AdvPCFServiceSolicitUUIDList      0x00000718   Data           0  QCA6174_SCAQBAFM.sym ABSOLUTE
    SDB_LE_AdvPCFLocalNameList               0x00000720   Data           0  QCA6174_SCAQBAFM.sym ABSOLUTE
    SDB_LE_AdvPCFManuDataList                0x00000728   Data           0  QCA6174_SCAQBAFM.sym ABSOLUTE
    SDB_LE_AdvPCFServiceDataList             0x00000730   Data           0  QCA6174_SCAQBAFM.sym ABSOLUTE
    SDB_LE_advDupFilterList                  0x00000738   Data           0  QCA6174_SCAQBAFM.sym ABSOLUTE
    SDB_LE_advDupFilterAddrList              0x00000740   Data           0  QCA6174_SCAQBAFM.sym ABSOLUTE
    SDB_em                                   0x00000748   Data           0  QCA6174_SCAQBAFM.sym ABSOLUTE
    SDB_em_p2                                0x00000750   Data           0  QCA6174_SCAQBAFM.sym ABSOLUTE
    SDB_LE_em                                0x00000758   Data           0  QCA6174_SCAQBAFM.sym ABSOLUTE
    SDB_aTotalpScoConn                       0x00000760   Data           0  QCA6174_SCAQBAFM.sym ABSOLUTE
    SDB_IRK_Table                            0x00000768   Data           0  QCA6174_SCAQBAFM.sym ABSOLUTE
    SDB_inquiryLength                        0x00000770   Data           0  QCA6174_SCAQBAFM.sym ABSOLUTE
    SDB_inquiryNumResponsesAllowed           0x00000771   Data           0  QCA6174_SCAQBAFM.sym ABSOLUTE
    SDB_inquiryNumResponses                  0x00000772   Data           0  QCA6174_SCAQBAFM.sym ABSOLUTE
    SDB_inquiryLAP                           0x00000773   Data           0  QCA6174_SCAQBAFM.sym ABSOLUTE
    SDB_KeepAlive                            0x0000077c   Data           0  QCA6174_SCAQBAFM.sym ABSOLUTE
    SDB_LE_BB_RxPktMemBlks                   0x00000784   Data           0  QCA6174_SCAQBAFM.sym ABSOLUTE
    SDB_LE_debugChMapUpdateIdx               0x00000785   Data           0  QCA6174_SCAQBAFM.sym ABSOLUTE
    SDB_broadcast_encryptionKeySize          0x00000786   Data           0  QCA6174_SCAQBAFM.sym ABSOLUTE
    SDB_HCI_EventFilters                     0x00000787   Data           0  QCA6174_SCAQBAFM.sym ABSOLUTE
    SDB_pLoggerCounters                      0x0000078c   Data           0  QCA6174_SCAQBAFM.sym ABSOLUTE
    PM_BT_CLK_AlwaysOn                       0x00000790   Data           0  QCA6174_SCAQBAFM.sym ABSOLUTE
    currBtState                              0x00000794   Data           0  QCA6174_SCAQBAFM.sym ABSOLUTE
    PFAL_DMR_LastChanAvoidanceNumber         0x0000079c   Data           0  QCA6174_SCAQBAFM.sym ABSOLUTE
    PFAL_DMR_PendingChanAvoidanceNumber      0x0000079d   Data           0  QCA6174_SCAQBAFM.sym ABSOLUTE
    MWS_RuntimeFlag                          0x000007a0   Data           0  QCA6174_SCAQBAFM.sym ABSOLUTE
    MWS_debugFlag                            0x000007a1   Data           0  QCA6174_SCAQBAFM.sym ABSOLUTE
    MWSIRQTable                              0x000007a4   Data           0  QCA6174_SCAQBAFM.sym ABSOLUTE
    IrqTableSize                             0x000007a8   Data           0  QCA6174_SCAQBAFM.sym ABSOLUTE
    rtsm_cont                                0x000007ac   Data           0  QCA6174_SCAQBAFM.sym ABSOLUTE
    pPF_CFG_BT_HCICommandOverride            0x000007b4   Data           0  QCA6174_SCAQBAFM.sym ABSOLUTE
    pPF_CFG_SYS_RegisterOverride             0x000007b8   Data           0  QCA6174_SCAQBAFM.sym ABSOLUTE
    pPF_CFG_SYS_StoredLinkKeys               0x000007bc   Data           0  QCA6174_SCAQBAFM.sym ABSOLUTE
    CFG_USB_REASSEMBLY                       0x000007c0   Data           0  QCA6174_SCAQBAFM.sym ABSOLUTE
    PFAL_CFG_MaxTagValue                     0x000007c4   Data           0  QCA6174_SCAQBAFM.sym ABSOLUTE
    PFAL_CFG_DataInit                        0x000007c8   Data           0  QCA6174_SCAQBAFM.sym ABSOLUTE
    PFAL_CFG_Read                            0x000007cc   Data           0  QCA6174_SCAQBAFM.sym ABSOLUTE
    PFAL_CFG_DynamicWrite                    0x000007d0   Data           0  QCA6174_SCAQBAFM.sym ABSOLUTE
    PFAL_CFG_DynamicWriteInit                0x000007d4   Data           0  QCA6174_SCAQBAFM.sym ABSOLUTE
    pCfgBase                                 0x000007d8   Data           0  QCA6174_SCAQBAFM.sym ABSOLUTE
    GTMR_Flag1                               0x000007dc   Data           0  QCA6174_SCAQBAFM.sym ABSOLUTE
    GTMR_Flag2                               0x000007dd   Data           0  QCA6174_SCAQBAFM.sym ABSOLUTE
    SavedTimerSettings                       0x000007de   Data           0  QCA6174_SCAQBAFM.sym ABSOLUTE
    gPRUHALTimeCount                         0x000007e4   Data           0  QCA6174_SCAQBAFM.sym ABSOLUTE
    gPRUHALDelayTime                         0x000007e6   Data           0  QCA6174_SCAQBAFM.sym ABSOLUTE
    PFAL_PRUHAL_pHlr                         0x000007e8   Data           0  QCA6174_SCAQBAFM.sym ABSOLUTE
    gPRUHALData                              0x000007ec   Data           0  QCA6174_SCAQBAFM.sym ABSOLUTE
    gPRUIPeriodicTimer                       0x000007f0   Data           0  QCA6174_SCAQBAFM.sym ABSOLUTE
    gPRUINotifyDelayTimer                    0x000007f4   Data           0  QCA6174_SCAQBAFM.sym ABSOLUTE
    wipower_otp_platform                     0x000007f8   Data           0  QCA6174_SCAQBAFM.sym ABSOLUTE
    wipower_otp_embedded                     0x00000804   Data           0  QCA6174_SCAQBAFM.sym ABSOLUTE
    pNX2A4WPData                             0x00000814   Data           0  QCA6174_SCAQBAFM.sym ABSOLUTE
    gStarkRevision                           0x00000818   Data           0  QCA6174_SCAQBAFM.sym ABSOLUTE
    gStarkRegAData                           0x00000819   Data           0  QCA6174_SCAQBAFM.sym ABSOLUTE
    pPFAL_RM_rmCfgfunc                       0x00000820   Data           0  QCA6174_SCAQBAFM.sym ABSOLUTE
    pPFAL_RM_rmPriorSleepFunc                0x00000824   Data           0  QCA6174_SCAQBAFM.sym ABSOLUTE
    pPFAL_RM_rmWakeFunc                      0x00000828   Data           0  QCA6174_SCAQBAFM.sym ABSOLUTE
    pPFAL_RM_RMRegOverride                   0x0000082c   Data           0  QCA6174_SCAQBAFM.sym ABSOLUTE
    pPFAL_RM_RMClockInit                     0x00000830   Data           0  QCA6174_SCAQBAFM.sym ABSOLUTE
    gBTStartupCalStatus                      0x00000834   Data           0  QCA6174_SCAQBAFM.sym ABSOLUTE
    PFAL_SYS_LPO_type                        0x00000837   Data           0  QCA6174_SCAQBAFM.sym ABSOLUTE
    PFAL_TXP_pExtFunctions                   0x00000838   Data           0  QCA6174_SCAQBAFM.sym ABSOLUTE
    transport                                0x0000083c   Data           0  QCA6174_SCAQBAFM.sym ABSOLUTE
    SiFlashOpCodes                           0x00000840   Data           0  QCA6174_SCAQBAFM.sym ABSOLUTE
    gEepromCtrlByte                          0x0000084c   Data           0  QCA6174_SCAQBAFM.sym ABSOLUTE
    EepromCtrlCode                           0x0000084d   Data           0  QCA6174_SCAQBAFM.sym ABSOLUTE
    efuse_api                                0x00000850   Data           0  QCA6174_SCAQBAFM.sym ABSOLUTE
    efuse_cache                              0x00000854   Data           0  QCA6174_SCAQBAFM.sym ABSOLUTE
    CFG_NvmType                              0x00000858   Data           0  QCA6174_SCAQBAFM.sym ABSOLUTE
    CFG_EXT_Init                             0x0000085c   Data           0  QCA6174_SCAQBAFM.sym ABSOLUTE
    CFG_EXT_GetConfigParameterInfo           0x00000860   Data           0  QCA6174_SCAQBAFM.sym ABSOLUTE
    CFG_EXT_WriteDynamicConfigParameters     0x00000864   Data           0  QCA6174_SCAQBAFM.sym ABSOLUTE
    CFG_EXT_NVM_GetTagEntry                  0x00000868   Data           0  QCA6174_SCAQBAFM.sym ABSOLUTE
    BKGD_pCallback                           0x0000086c   Data           0  QCA6174_SCAQBAFM.sym ABSOLUTE
    HIF_pCallback                            0x00000870   Data           0  QCA6174_SCAQBAFM.sym ABSOLUTE
    LLM_pCallback                            0x00000874   Data           0  QCA6174_SCAQBAFM.sym ABSOLUTE
    MCI_pCallback                            0x00000878   Data           0  QCA6174_SCAQBAFM.sym ABSOLUTE
    MWS_pCallback                            0x0000087c   Data           0  QCA6174_SCAQBAFM.sym ABSOLUTE
    ucEventQueTop                            0x00000880   Data           0  QCA6174_SCAQBAFM.sym ABSOLUTE
    ucEventQueBot                            0x00000881   Data           0  QCA6174_SCAQBAFM.sym ABSOLUTE
    ucRxSearchChannel                        0x00000882   Data           0  QCA6174_SCAQBAFM.sym ABSOLUTE
    ucCurrentSearchSharingCycle              0x00000883   Data           0  QCA6174_SCAQBAFM.sym ABSOLUTE
    ucAdjustTime                             0x00000884   Data           0  QCA6174_SCAQBAFM.sym ABSOLUTE
    eInitialState                            0x00000885   Data           0  QCA6174_SCAQBAFM.sym ABSOLUTE
    eCurrentState                            0x00000886   Data           0  QCA6174_SCAQBAFM.sym ABSOLUTE
    ucRxWindowDuration                       0x00000887   Data           0  QCA6174_SCAQBAFM.sym ABSOLUTE
    ucActiveChannel                          0x00000888   Data           0  QCA6174_SCAQBAFM.sym ABSOLUTE
    ucActiveChannelTimerIntervals            0x00000889   Data           0  QCA6174_SCAQBAFM.sym ABSOLUTE
    ucDelayTime                              0x0000088a   Data           0  QCA6174_SCAQBAFM.sym ABSOLUTE
    ucAdvPacketSize                          0x0000088b   Data           0  QCA6174_SCAQBAFM.sym ABSOLUTE
    ucAdvDataMesgSize                        0x0000088c   Data           0  QCA6174_SCAQBAFM.sym ABSOLUTE
    ucAdvPacketMaxSize                       0x0000088d   Data           0  QCA6174_SCAQBAFM.sym ABSOLUTE
    ucRadioMesgSize                          0x0000088e   Data           0  QCA6174_SCAQBAFM.sym ABSOLUTE
    ucAdvRequiredFields                      0x0000088f   Data           0  QCA6174_SCAQBAFM.sym ABSOLUTE
    ucAdvOptionalFields                      0x00000890   Data           0  QCA6174_SCAQBAFM.sym ABSOLUTE
    ucAdvNegotiationState                    0x00000891   Data           0  QCA6174_SCAQBAFM.sym ABSOLUTE
    ucAdvRetryIncrease                       0x00000892   Data           0  QCA6174_SCAQBAFM.sym ABSOLUTE
    ucAdvRetryIncreaseReset                  0x00000893   Data           0  QCA6174_SCAQBAFM.sym ABSOLUTE
    ucFreqHopIndex                           0x00000894   Data           0  QCA6174_SCAQBAFM.sym ABSOLUTE
    bANTTestMode                             0x00000895   Data           0  QCA6174_SCAQBAFM.sym ABSOLUTE
    ucANTBurstBlockedCount                   0x00000896   Data           0  QCA6174_SCAQBAFM.sym ABSOLUTE
    bSaveBurst                               0x00000897   Data           0  QCA6174_SCAQBAFM.sym ABSOLUTE
    ucSaveBurstChannel                       0x00000898   Data           0  QCA6174_SCAQBAFM.sym ABSOLUTE
    ucBurstQueuedChannel                     0x00000899   Data           0  QCA6174_SCAQBAFM.sym ABSOLUTE
    usStartTime                              0x0000089a   Data           0  QCA6174_SCAQBAFM.sym ABSOLUTE
    usAdvStallCount                          0x0000089c   Data           0  QCA6174_SCAQBAFM.sym ABSOLUTE
    usAdvStallCountReset                     0x0000089e   Data           0  QCA6174_SCAQBAFM.sym ABSOLUTE
    usPacketsReceived                        0x000008a0   Data           0  QCA6174_SCAQBAFM.sym ABSOLUTE
    usPacketsLost                            0x000008a2   Data           0  QCA6174_SCAQBAFM.sym ABSOLUTE
    usPacketsCRCError                        0x000008a4   Data           0  QCA6174_SCAQBAFM.sym ABSOLUTE
    usSearchCount                            0x000008a6   Data           0  QCA6174_SCAQBAFM.sym ABSOLUTE
    usTxPackets                              0x000008a8   Data           0  QCA6174_SCAQBAFM.sym ABSOLUTE
    usPacketLimit                            0x000008aa   Data           0  QCA6174_SCAQBAFM.sym ABSOLUTE
    ANT_CCR                                  0x000008ac   Data           0  QCA6174_SCAQBAFM.sym ABSOLUTE
    OLD_ANT_CCR                              0x000008ae   Data           0  QCA6174_SCAQBAFM.sym ABSOLUTE
    RADIO_DR1_CCR                            0x000008b0   Data           0  QCA6174_SCAQBAFM.sym ABSOLUTE
    CAPTURE_REF_ANT_CCR                      0x000008b2   Data           0  QCA6174_SCAQBAFM.sym ABSOLUTE
    usSearchEnvelopeLengthConfig             0x000008b4   Data           0  QCA6174_SCAQBAFM.sym ABSOLUTE
    usRadioSyncCRC                           0x000008b6   Data           0  QCA6174_SCAQBAFM.sym ABSOLUTE
    uChannelState                            0x000008b8   Data           0  QCA6174_SCAQBAFM.sym ABSOLUTE
    uExtAssign                               0x000008bc   Data           0  QCA6174_SCAQBAFM.sym ABSOLUTE
    uANTLibConfig                            0x000008c0   Data           0  QCA6174_SCAQBAFM.sym ABSOLUTE
    uGlobalControl1                          0x000008c4   Data           0  QCA6174_SCAQBAFM.sym ABSOLUTE
    uGlobalControl2                          0x000008c8   Data           0  QCA6174_SCAQBAFM.sym ABSOLUTE
    uGlobalControl3                          0x000008cc   Data           0  QCA6174_SCAQBAFM.sym ABSOLUTE
    uTrack                                   0x000008d0   Data           0  QCA6174_SCAQBAFM.sym ABSOLUTE
    uTxMesgControl                           0x000008d4   Data           0  QCA6174_SCAQBAFM.sym ABSOLUTE
    uRxMesgControl                           0x000008d8   Data           0  QCA6174_SCAQBAFM.sym ABSOLUTE
    uTransfer                                0x000008dc   Data           0  QCA6174_SCAQBAFM.sym ABSOLUTE
    uTxSavedMesgControl                      0x000008e0   Data           0  QCA6174_SCAQBAFM.sym ABSOLUTE
    stNegotiationMode                        0x000008e4   Data           0  QCA6174_SCAQBAFM.sym ABSOLUTE
    stActiveAdvancedMode                     0x000008e8   Data           0  QCA6174_SCAQBAFM.sym ABSOLUTE
    ulBitErrorCount                          0x000008ec   Data           0  QCA6174_SCAQBAFM.sym ABSOLUTE
    ACCUM_CCR_ERR                            0x000008f0   Data           0  QCA6174_SCAQBAFM.sym ABSOLUTE
    uANTControl                              0x000008f4   Data           0  QCA6174_SCAQBAFM.sym ABSOLUTE
    uANTEnvelope                             0x000008f8   Data           0  QCA6174_SCAQBAFM.sym ABSOLUTE
    aucFreqHopTable                          0x000008fc   Data           0  QCA6174_SCAQBAFM.sym ABSOLUTE
    aucChannelNetwork                        0x00000902   Data           0  QCA6174_SCAQBAFM.sym ABSOLUTE
    aucSearchTimeOut                         0x0000090a   Data           0  QCA6174_SCAQBAFM.sym ABSOLUTE
    aucSearchChPriority                      0x00000912   Data           0  QCA6174_SCAQBAFM.sym ABSOLUTE
    aucSearchSharingConfig                   0x0000091a   Data           0  QCA6174_SCAQBAFM.sym ABSOLUTE
    aucLowPrioritySearchTimeOut              0x00000922   Data           0  QCA6174_SCAQBAFM.sym ABSOLUTE
    aucRadioFrequency                        0x0000092a   Data           0  QCA6174_SCAQBAFM.sym ABSOLUTE
    BT_CCR                                   0x00000934   Data           0  QCA6174_SCAQBAFM.sym ABSOLUTE
    OLD_BT_CCR                               0x0000093c   Data           0  QCA6174_SCAQBAFM.sym ABSOLUTE
    CAPTURE_REF_BT_CCR                       0x00000944   Data           0  QCA6174_SCAQBAFM.sym ABSOLUTE
    aucANTConnIntervalPriorityConfig         0x0000094c   Data           0  QCA6174_SCAQBAFM.sym ABSOLUTE
    aucANTSearchIntervalPriorityConfig       0x00000954   Data           0  QCA6174_SCAQBAFM.sym ABSOLUTE
    aucANTBurstKeepAliveConfig               0x0000095c   Data           0  QCA6174_SCAQBAFM.sym ABSOLUTE
    aucANTConnIntervalCount                  0x00000964   Data           0  QCA6174_SCAQBAFM.sym ABSOLUTE
    aucANTSearchIntervalCount                0x0000096c   Data           0  QCA6174_SCAQBAFM.sym ABSOLUTE
    aucRadioTxPower                          0x00000974   Data           0  QCA6174_SCAQBAFM.sym ABSOLUTE
    aucRSSI                                  0x0000097c   Data           0  QCA6174_SCAQBAFM.sym ABSOLUTE
    aucRSSIProxConfig                        0x00000984   Data           0  QCA6174_SCAQBAFM.sym ABSOLUTE
    aucAFHTimeoutCount                       0x0000098c   Data           0  QCA6174_SCAQBAFM.sym ABSOLUTE
    stTxQueue                                0x00000994   Data           0  QCA6174_SCAQBAFM.sym ABSOLUTE
    SDB_LE_MaxAddrType                       0x0000099d   Data           0  QCA6174_SCAQBAFM.sym ABSOLUTE
    LLM_LE_TestRxHwModeEnabled               0x0000099e   Data           0  QCA6174_SCAQBAFM.sym ABSOLUTE
    LLM_AFH_LE_initChannelMap                0x0000099f   Data           0  QCA6174_SCAQBAFM.sym ABSOLUTE
    LLM_AFH_LE_HostChannelMap                0x000009a4   Data           0  QCA6174_SCAQBAFM.sym ABSOLUTE
    LLM_AFH_ChanClassEnabledByHost           0x000009a9   Data           0  QCA6174_SCAQBAFM.sym ABSOLUTE
    LLM_AFH_LocalChanAssessmentState         0x000009aa   Data           0  QCA6174_SCAQBAFM.sym ABSOLUTE
    LLM_AFH_LE_AssessChannelMap              0x000009ab   Data           0  QCA6174_SCAQBAFM.sym ABSOLUTE
    LLM_AFH_LE_WLANChannelMap                0x000009b0   Data           0  QCA6174_SCAQBAFM.sym ABSOLUTE
    LLM_AFH_LE_LTEChannelMap                 0x000009b5   Data           0  QCA6174_SCAQBAFM.sym ABSOLUTE
    LLM_randomNumberDataInitializedByReset   0x000009ba   Data           0  QCA6174_SCAQBAFM.sym ABSOLUTE
    LLM_activeConnectionAllocationCount      0x000009bc   Data           0  QCA6174_SCAQBAFM.sym ABSOLUTE
    LLM_aMemPoolActiveConnNoAccessLcHw       0x000009c0   Data           0  QCA6174_SCAQBAFM.sym ABSOLUTE
    LLM_lowPowerModePossible                 0x000009c8   Data           0  QCA6174_SCAQBAFM.sym ABSOLUTE
    LLM_extendedFeatures_p1                  0x000009c9   Data           0  QCA6174_SCAQBAFM.sym ABSOLUTE
    LLM_Rand_lsfr                            0x000009cc   Data           0  QCA6174_SCAQBAFM.sym ABSOLUTE
    LLM_CQDDRCssHCI_handle                   0x000009d0   Data           0  QCA6174_SCAQBAFM.sym ABSOLUTE
    LLM_CQDDRCssBitsReceived                 0x000009d4   Data           0  QCA6174_SCAQBAFM.sym ABSOLUTE
    LLM_CQDDRCssBER                          0x000009d8   Data           0  QCA6174_SCAQBAFM.sym ABSOLUTE
    LLM_CQDDRCssPER                          0x000009da   Data           0  QCA6174_SCAQBAFM.sym ABSOLUTE
    LLM_CQDDRCssPreferredPktType             0x000009dc   Data           0  QCA6174_SCAQBAFM.sym ABSOLUTE
    LLM_pageScanCount                        0x000009dd   Data           0  QCA6174_SCAQBAFM.sym ABSOLUTE
    LLM_inquiryScanCount                     0x000009de   Data           0  QCA6174_SCAQBAFM.sym ABSOLUTE
    LLM_trigScanCount                        0x000009df   Data           0  QCA6174_SCAQBAFM.sym ABSOLUTE
    LLM_connectionSetupFilterCount           0x000009e0   Data           0  QCA6174_SCAQBAFM.sym ABSOLUTE
    LLM_inquiryResultFilterCount             0x000009e1   Data           0  QCA6174_SCAQBAFM.sym ABSOLUTE
    LLM_scoChanDB                            0x000009e4   Data           0  QCA6174_SCAQBAFM.sym ABSOLUTE
    LLM_enableDeviceUnderTestMode            0x000009e8   Data           0  QCA6174_SCAQBAFM.sym ABSOLUTE
    LLM_Num_HCI_Command_Packets              0x000009e9   Data           0  QCA6174_SCAQBAFM.sym ABSOLUTE
    LLM_scanSuspended                        0x000009ea   Data           0  QCA6174_SCAQBAFM.sym ABSOLUTE
    LLM_lmCB                                 0x000009ec   Data           0  QCA6174_SCAQBAFM.sym ABSOLUTE
    LLM_hostPINtype                          0x000009f4   Data           0  QCA6174_SCAQBAFM.sym ABSOLUTE
    LLM_lmstate                              0x000009f5   Data           0  QCA6174_SCAQBAFM.sym ABSOLUTE
    pLMcommand                               0x000009f8   Data           0  QCA6174_SCAQBAFM.sym ABSOLUTE
    LLM_ltaddrDB                             0x000009fc   Data           0  QCA6174_SCAQBAFM.sym ABSOLUTE
    LLM_SDB_piconetHandleDB                  0x00000a04   Data           0  QCA6174_SCAQBAFM.sym ABSOLUTE
    LLM_SDB_HCI_connHandleDB                 0x00000a0c   Data           0  QCA6174_SCAQBAFM.sym ABSOLUTE
    LLM_xSCOchannelDB                        0x00000a14   Data           0  QCA6174_SCAQBAFM.sym ABSOLUTE
    LLM_lmpSeqSCO_DispatchQ                  0x00000a1c   Data           0  QCA6174_SCAQBAFM.sym ABSOLUTE
    LLM_xSCO_DelayMultiplierDefault          0x00000a24   Data           0  QCA6174_SCAQBAFM.sym ABSOLUTE
    LLM_xSCO_DelayMultiplier                 0x00000a25   Data           0  QCA6174_SCAQBAFM.sym ABSOLUTE
    LLM_CachedSyncLinkOffsetMap              0x00000a38   Data           0  QCA6174_SCAQBAFM.sym ABSOLUTE
    LLM_ExtFrameConfig                       0x00000a40   Data           0  QCA6174_SCAQBAFM.sym ABSOLUTE
    SLC_DisQ_CurrentClock                    0x00000a44   Data           0  QCA6174_SCAQBAFM.sym ABSOLUTE
    SCO_BadPktCntr                           0x00000a48   Data           0  QCA6174_SCAQBAFM.sym ABSOLUTE
    SLC_LE_scannerBackoffDisabled            0x00000a4c   Data           0  QCA6174_SCAQBAFM.sym ABSOLUTE
    SLC_lfsr                                 0x00000a50   Data           0  QCA6174_SCAQBAFM.sym ABSOLUTE
    PFAL_ACI_IsHWLocked                      0x00000a57   Data           0  QCA6174_SCAQBAFM.sym ABSOLUTE
    Clk1                                     0x00000a58   Data           0  QCA6174_SCAQBAFM.sym ABSOLUTE
    Clk2                                     0x00000a60   Data           0  QCA6174_SCAQBAFM.sym ABSOLUTE
    Clk12                                    0x00000a68   Data           0  QCA6174_SCAQBAFM.sym ABSOLUTE
    ucResetType                              0x00000a70   Data           0  QCA6174_SCAQBAFM.sym ABSOLUTE
    uANTMainCtrl                             0x00000a74   Data           0  QCA6174_SCAQBAFM.sym ABSOLUTE
    pucHCIDataSave                           0x00000a78   Data           0  QCA6174_SCAQBAFM.sym ABSOLUTE
    CQDDR_ihandle                            0x00000a7c   Data           0  QCA6174_SCAQBAFM.sym ABSOLUTE
    LLM_CQDDRCssEDR_eSCO_PreferredPktType    0x00000a7e   Data           0  QCA6174_SCAQBAFM.sym ABSOLUTE
    LLM_CQDDRCssWER                          0x00000a80   Data           0  QCA6174_SCAQBAFM.sym ABSOLUTE
    LLM_BDADDER_List                         0x00000a84   Data           0  QCA6174_SCAQBAFM.sym ABSOLUTE
    pLLM_HCI_CurrentCmdPkt                   0x00000a8c   Data           0  QCA6174_SCAQBAFM.sym ABSOLUTE
    LLM_LE_aMemPoolDefCmd                    0x00000a90   Data           0  QCA6174_SCAQBAFM.sym ABSOLUTE
    qLLM_LE_DefCmdQueue                      0x00000a98   Data           0  QCA6174_SCAQBAFM.sym ABSOLUTE
    ucANTTxSerialBufferingConfig             0x00000aa0   Data           0  QCA6174_SCAQBAFM.sym ABSOLUTE
    usANTTxSerialQueueTop                    0x00000aa2   Data           0  QCA6174_SCAQBAFM.sym ABSOLUTE
    usANTTxSerialQueueBot                    0x00000aa4   Data           0  QCA6174_SCAQBAFM.sym ABSOLUTE
    usANTRxSerialIndex                       0x00000aa6   Data           0  QCA6174_SCAQBAFM.sym ABSOLUTE
    usANTTxSerialBufferingSizeThreshold      0x00000aa8   Data           0  QCA6174_SCAQBAFM.sym ABSOLUTE
    usANTEventFilterConfig                   0x00000aaa   Data           0  QCA6174_SCAQBAFM.sym ABSOLUTE
    uANTDataPathCtrl                         0x00000aac   Data           0  QCA6174_SCAQBAFM.sym ABSOLUTE
    ulANTTxSerialBufferingTimeThreshold      0x00000ab0   Data           0  QCA6174_SCAQBAFM.sym ABSOLUTE
    stANTTxSerialBufferingFlushTime          0x00000ab4   Data           0  QCA6174_SCAQBAFM.sym ABSOLUTE
    s_accum                                  0x00000ac8   Data           0  QCA6174_SCAQBAFM.sym ABSOLUTE
    PFAL_LC_TxLinkedList                     0x00000ad0   Data           0  QCA6174_SCAQBAFM.sym ABSOLUTE
    PFAL_LC_RxScoLinkedList                  0x00000af0   Data           0  QCA6174_SCAQBAFM.sym ABSOLUTE
    PFAL_LC_RxAclLinkedList                  0x00000afc   Data           0  QCA6174_SCAQBAFM.sym ABSOLUTE
    PFAL_LC_TxScratchpad                     0x00000b40   Data           0  QCA6174_SCAQBAFM.sym ABSOLUTE
    PFAL_LC_RxScratchpad                     0x00000b5c   Data           0  QCA6174_SCAQBAFM.sym ABSOLUTE
    AM_AddrFilterCopy                        0x00000b7c   Data           0  QCA6174_SCAQBAFM.sym ABSOLUTE
    Default_AM_AddrFilter                    0x00000b8c   Data           0  QCA6174_SCAQBAFM.sym ABSOLUTE
    PFAL_LC_TxAclPayloadBuff                 0x00000b9c   Data           0  QCA6174_SCAQBAFM.sym ABSOLUTE
    gSha256Context                           0x00000fa0   Data           0  QCA6174_SCAQBAFM.sym ABSOLUTE
    sco_buffer                               0x00001008   Data           0  QCA6174_SCAQBAFM.sym ABSOLUTE
    rx_sco_pkt                               0x000011a8   Data           0  QCA6174_SCAQBAFM.sym ABSOLUTE
    CFG_Parameters_SYS                       0x000011b8   Data           0  QCA6174_SCAQBAFM.sym ABSOLUTE
    PF_OS_TaskStack                          0x000013bc   Data           0  QCA6174_SCAQBAFM.sym ABSOLUTE
    PF_OS_timerVal                           0x000013d4   Data           0  QCA6174_SCAQBAFM.sym ABSOLUTE
    PF_OS_aQueues                            0x00001510   Data           0  QCA6174_SCAQBAFM.sym ABSOLUTE
    PF_OS_timerNextStatus                    0x000015c8   Data           0  QCA6174_SCAQBAFM.sym ABSOLUTE
    TlvFile                                  0x00001618   Data           0  QCA6174_SCAQBAFM.sym ABSOLUTE
    PFAL_CRYPTO_Ram                          0x0000162c   Data           0  QCA6174_SCAQBAFM.sym ABSOLUTE
    aPFAL_OS_EventQ                          0x000016bc   Data           0  QCA6174_SCAQBAFM.sym ABSOLUTE
    SiW_Task_Events                          0x000016d8   Data           0  QCA6174_SCAQBAFM.sym ABSOLUTE
    SiW_Semaphores                           0x000016f0   Data           0  QCA6174_SCAQBAFM.sym ABSOLUTE
    OSEventTbl                               0x0000173c   Data           0  QCA6174_SCAQBAFM.sym ABSOLUTE
    OSTaskIdleStk                            0x0000196c   Data           0  QCA6174_SCAQBAFM.sym ABSOLUTE
    OSTCBPrioTbl                             0x00001b6c   Data           0  QCA6174_SCAQBAFM.sym ABSOLUTE
    OSTCBTbl                                 0x00001b90   Data           0  QCA6174_SCAQBAFM.sym ABSOLUTE
    PFAL_RM_CustomerPowerLevelMappingTbl     0x00001c90   Data           0  QCA6174_SCAQBAFM.sym ABSOLUTE
    PFAL_RM_HW_RXBB_TIA_RS_CTRL_BASELINE_wOFFSET 0x00001c9a   Data           0  QCA6174_SCAQBAFM.sym ABSOLUTE
    PFAL_RM_HW_RXBB_TIA_CS_CTRL_BASELINE_wOFFSET 0x00001cba   Data           0  QCA6174_SCAQBAFM.sym ABSOLUTE
    PFAL_RM_HW_RXBB_TIA_RS_CTRL_BASELINE     0x00001cda   Data           0  QCA6174_SCAQBAFM.sym ABSOLUTE
    PFAL_RM_HW_RXBB_TIA_CS_CTRL_BASELINE     0x00001cfa   Data           0  QCA6174_SCAQBAFM.sym ABSOLUTE
    PFAL_RM_HW_MODEM_TX_TEMP_CAL_TABLE       0x00001d1a   Data           0  QCA6174_SCAQBAFM.sym ABSOLUTE
    PFAL_SYS_pwrModeVote                     0x00001d24   Data           0  QCA6174_SCAQBAFM.sym ABSOLUTE
    uart_iop_data                            0x00001d30   Data           0  QCA6174_SCAQBAFM.sym ABSOLUTE
    uart_rx_flow_buf                         0x00001df8   Data           0  QCA6174_SCAQBAFM.sym ABSOLUTE
    voiceDebugBuf                            0x00001e08   Data           0  QCA6174_SCAQBAFM.sym ABSOLUTE
    PFAL_VOICE_bbTxSilenceBuffer             0x00001e30   Data           0  QCA6174_SCAQBAFM.sym ABSOLUTE
    hci_sco_rx_pkt                           0x00001e6c   Data           0  QCA6174_SCAQBAFM.sym ABSOLUTE
    hci_sco_tx_pkt                           0x000021b4   Data           0  QCA6174_SCAQBAFM.sym ABSOLUTE
    PFAL_VOICE_HCISCO                        0x000024fc   Data           0  QCA6174_SCAQBAFM.sym ABSOLUTE
    CFG_Parameters_BT                        0x000025fc   Data           0  QCA6174_SCAQBAFM.sym ABSOLUTE
    CFG_Parameters_Voice                     0x000026c0   Data           0  QCA6174_SCAQBAFM.sym ABSOLUTE
    aFMB_StaticPool                          0x000026fc   Data           0  QCA6174_SCAQBAFM.sym ABSOLUTE
    EPTM_cfgSeqRxState                       0x0000279c   Data           0  QCA6174_SCAQBAFM.sym ABSOLUTE
    EPTM_SeqRxPerfStatus                     0x0000281c   Data           0  QCA6174_SCAQBAFM.sym ABSOLUTE
    EptmSeqState                             0x00002a68   Data           0  QCA6174_SCAQBAFM.sym ABSOLUTE
    RxSeqStatsEventData                      0x00002a88   Data           0  QCA6174_SCAQBAFM.sym ABSOLUTE
    SLC_BCA                                  0x00002cd8   Data           0  QCA6174_SCAQBAFM.sym ABSOLUTE
    SLC_roleSwitchParam                      0x00002cf4   Data           0  QCA6174_SCAQBAFM.sym ABSOLUTE
    SLC_curContext                           0x00002d20   Data           0  QCA6174_SCAQBAFM.sym ABSOLUTE
    SLC_rxFifo                               0x00002d54   Data           0  QCA6174_SCAQBAFM.sym ABSOLUTE
    SLC_txFifo                               0x00002db8   Data           0  QCA6174_SCAQBAFM.sym ABSOLUTE
    SDB_inqCtrl                              0x00002dc4   Data           0  QCA6174_SCAQBAFM.sym ABSOLUTE
    SDB_OOB_info                             0x00002de0   Data           0  QCA6174_SCAQBAFM.sym ABSOLUTE
    SDB_inquiryScan                          0x00002e40   Data           0  QCA6174_SCAQBAFM.sym ABSOLUTE
    SDB_pageScan                             0x00002e94   Data           0  QCA6174_SCAQBAFM.sym ABSOLUTE
    SDB_TrigScan                             0x00002ec8   Data           0  QCA6174_SCAQBAFM.sym ABSOLUTE
    SDB_LE_AdvChanSyncWordInfo               0x00002ef0   Data           0  QCA6174_SCAQBAFM.sym ABSOLUTE
    SDB_LE_TestModeSyncWordInfo              0x00002f00   Data           0  QCA6174_SCAQBAFM.sym ABSOLUTE
    SDB_LE_Scan_Initiator                    0x00002f10   Data           0  QCA6174_SCAQBAFM.sym ABSOLUTE
    SDB_LE_Scan_Scanner                      0x00002f74   Data           0  QCA6174_SCAQBAFM.sym ABSOLUTE
    SDB_LE_Advertise                         0x00002fd8   Data           0  QCA6174_SCAQBAFM.sym ABSOLUTE
    SDB_Ant                                  0x00003018   Data           0  QCA6174_SCAQBAFM.sym ABSOLUTE
    SDB_inquiry                              0x000030cc   Data           0  QCA6174_SCAQBAFM.sym ABSOLUTE
    SDB_extInquiryData                       0x000030e8   Data           0  QCA6174_SCAQBAFM.sym ABSOLUTE
    SDB_page                                 0x00003110   Data           0  QCA6174_SCAQBAFM.sym ABSOLUTE
    SDB_broadcast                            0x00003140   Data           0  QCA6174_SCAQBAFM.sym ABSOLUTE
    SDB_scatternet                           0x0000315c   Data           0  QCA6174_SCAQBAFM.sym ABSOLUTE
    SDB_piconet                              0x000031f8   Data           0  QCA6174_SCAQBAFM.sym ABSOLUTE
    SDB_aTotalpActiveConn                    0x0000320c   Data           0  QCA6174_SCAQBAFM.sym ABSOLUTE
    SDB_HCI_connectionHandleMap              0x00003260   Data           0  QCA6174_SCAQBAFM.sym ABSOLUTE
    SDB_aTotalpLeConn                        0x00003318   Data           0  QCA6174_SCAQBAFM.sym ABSOLUTE
    SDB_BTUnitLocalName                      0x00003368   Data           0  QCA6174_SCAQBAFM.sym ABSOLUTE
    SDB_voiceSettings                        0x00003464   Data           0  QCA6174_SCAQBAFM.sym ABSOLUTE
    SDB_deferredAdvInd                       0x00003494   Data           0  QCA6174_SCAQBAFM.sym ABSOLUTE
    SDB_SyncTrain                            0x000034b8   Data           0  QCA6174_SCAQBAFM.sym ABSOLUTE
    SDB_Linkless                             0x000034d8   Data           0  QCA6174_SCAQBAFM.sym ABSOLUTE
    SDB_ExtTrigger                           0x0000351c   Data           0  QCA6174_SCAQBAFM.sym ABSOLUTE
    SDB_SyncTrainScan                        0x00003528   Data           0  QCA6174_SCAQBAFM.sym ABSOLUTE
    SDB_ClockAdjust                          0x00003584   Data           0  QCA6174_SCAQBAFM.sym ABSOLUTE
    SDB_qHCI_EventFilter                     0x00003594   Data           0  QCA6174_SCAQBAFM.sym ABSOLUTE
    SDB_Remote                               0x000035a4   Data           0  QCA6174_SCAQBAFM.sym ABSOLUTE
    PM_resourceListCurrState                 0x000035b8   Data           0  QCA6174_SCAQBAFM.sym ABSOLUTE
    g_mwsinfo                                0x000035cc   Data           0  QCA6174_SCAQBAFM.sym ABSOLUTE
    my_ctx                                   0x000035e4   Data           0  QCA6174_SCAQBAFM.sym ABSOLUTE
    gPRUIParams                              0x000036ec   Data           0  QCA6174_SCAQBAFM.sym ABSOLUTE
    PFAL_SYS_AudioData                       0x00003700   Data           0  QCA6174_SCAQBAFM.sym ABSOLUTE
    PFAL_VoiceChan                           0x00004f88   Data           0  QCA6174_SCAQBAFM.sym ABSOLUTE
    gSiFlashInfo                             0x00004f9c   Data           0  QCA6174_SCAQBAFM.sym ABSOLUTE
    gEepromInfo                              0x00004fa8   Data           0  QCA6174_SCAQBAFM.sym ABSOLUTE
    efuse_api_space                          0x00004fb8   Data           0  QCA6174_SCAQBAFM.sym ABSOLUTE
    efuse_space                              0x00005000   Data           0  QCA6174_SCAQBAFM.sym ABSOLUTE
    CFG_Parameters_RM                        0x00005200   Data           0  QCA6174_SCAQBAFM.sym ABSOLUTE
    aucTxAnt                                 0x0000575c   Data           0  QCA6174_SCAQBAFM.sym ABSOLUTE
    pucTxAnt                                 0x000057c4   Data           0  QCA6174_SCAQBAFM.sym ABSOLUTE
    aucTxAdvTransfer                         0x000057e4   Data           0  QCA6174_SCAQBAFM.sym ABSOLUTE
    aucRxAdvTransfer                         0x00005802   Data           0  QCA6174_SCAQBAFM.sym ABSOLUTE
    pucRxAnt                                 0x00005820   Data           0  QCA6174_SCAQBAFM.sym ABSOLUTE
    aucRxAnt                                 0x00005840   Data           0  QCA6174_SCAQBAFM.sym ABSOLUTE
    auChannelEvents                          0x000058a8   Data           0  QCA6174_SCAQBAFM.sym ABSOLUTE
    auChannelState                           0x000058c8   Data           0  QCA6174_SCAQBAFM.sym ABSOLUTE
    auChannelExtAssign                       0x000058e8   Data           0  QCA6174_SCAQBAFM.sym ABSOLUTE
    asIncExcListConf                         0x00005908   Data           0  QCA6174_SCAQBAFM.sym ABSOLUTE
    asChannelMonitor                         0x00005928   Data           0  QCA6174_SCAQBAFM.sym ABSOLUTE
    ausChannelTime                           0x00005938   Data           0  QCA6174_SCAQBAFM.sym ABSOLUTE
    ausChannelPeriod                         0x00005948   Data           0  QCA6174_SCAQBAFM.sym ABSOLUTE
    asEventQue                               0x00005958   Data           0  QCA6174_SCAQBAFM.sym ABSOLUTE
    ausRxSearchWaveForm                      0x00005968   Data           0  QCA6174_SCAQBAFM.sym ABSOLUTE
    astANTActivityInfo                       0x00005978   Data           0  QCA6174_SCAQBAFM.sym ABSOLUTE
    auANTCoexConfig                          0x000059f0   Data           0  QCA6174_SCAQBAFM.sym ABSOLUTE
    auANTAdvCoexConfig                       0x00005a10   Data           0  QCA6174_SCAQBAFM.sym ABSOLUTE
    ausANTTxConnKeepAliveConfig              0x00005a30   Data           0  QCA6174_SCAQBAFM.sym ABSOLUTE
    ausANTRxConnKeepAliveConfig              0x00005a40   Data           0  QCA6174_SCAQBAFM.sym ABSOLUTE
    ausConnPrioritySpacingConfig             0x00005a50   Data           0  QCA6174_SCAQBAFM.sym ABSOLUTE
    ausANTTxConnBlockedCount                 0x00005a60   Data           0  QCA6174_SCAQBAFM.sym ABSOLUTE
    ausANTRxConnBlockedCount                 0x00005a70   Data           0  QCA6174_SCAQBAFM.sym ABSOLUTE
    auANTCoexState                           0x00005a80   Data           0  QCA6174_SCAQBAFM.sym ABSOLUTE
    ausNetworkAddress                        0x00005aa0   Data           0  QCA6174_SCAQBAFM.sym ABSOLUTE
    ausTxTimeoutMonitor                      0x00005ab0   Data           0  QCA6174_SCAQBAFM.sym ABSOLUTE
    aucFreqTable                             0x00005ac0   Data           0  QCA6174_SCAQBAFM.sym ABSOLUTE
    aucIDList                                0x00005ad8   Data           0  QCA6174_SCAQBAFM.sym ABSOLUTE
    astTxBuffer                              0x00005b58   Data           0  QCA6174_SCAQBAFM.sym ABSOLUTE
    LLM_AFH_LocalChannelClassificationAFH    0x00005f58   Data           0  QCA6174_SCAQBAFM.sym ABSOLUTE
    LLM_AFH_LocalChannelClassificationUBC    0x00005f64   Data           0  QCA6174_SCAQBAFM.sym ABSOLUTE
    LLM_AFH_CombinedChannelClassificationAFH 0x00005f70   Data           0  QCA6174_SCAQBAFM.sym ABSOLUTE
    LLM_AFH_ChannelMapAFH                    0x00005f7c   Data           0  QCA6174_SCAQBAFM.sym ABSOLUTE
    LLM_AFH_ChannelMapUBC                    0x00005f88   Data           0  QCA6174_SCAQBAFM.sym ABSOLUTE
    LLM_AFH_HostSpecifiedChanMapUBC          0x00005f94   Data           0  QCA6174_SCAQBAFM.sym ABSOLUTE
    LLM_AFH_HostSpecifiedChanMapAFH          0x00005fa0   Data           0  QCA6174_SCAQBAFM.sym ABSOLUTE
    LLM_AFH_HostMaps                         0x00005fac   Data           0  QCA6174_SCAQBAFM.sym ABSOLUTE
    LLM_randomNumberData                     0x00005fd0   Data           0  QCA6174_SCAQBAFM.sym ABSOLUTE
    LLM_aMemPoolSDB                          0x00005ff0   Data           0  QCA6174_SCAQBAFM.sym ABSOLUTE
    LLM_sp                                   0x00006018   Data           0  QCA6174_SCAQBAFM.sym ABSOLUTE
    LLM_lmpSeqSCO                            0x00006090   Data           0  QCA6174_SCAQBAFM.sym ABSOLUTE
    LLM_utilityTimer                         0x000060f4   Data           0  QCA6174_SCAQBAFM.sym ABSOLUTE
    EIR_AllocData                            0x00006148   Data           0  QCA6174_SCAQBAFM.sym ABSOLUTE
    LLM_AfhData                              0x00006168   Data           0  QCA6174_SCAQBAFM.sym ABSOLUTE
    LLM_AfhHangBands                         0x00006314   Data           0  QCA6174_SCAQBAFM.sym ABSOLUTE
    SLC_DisQ_DispatchedElem                  0x00006328   Data           0  QCA6174_SCAQBAFM.sym ABSOLUTE
    VersionString                            0x00006338   Data           0  QCA6174_SCAQBAFM.sym ABSOLUTE
    gWipTmrMgmtObj                           0x0000639c   Data           0  QCA6174_SCAQBAFM.sym ABSOLUTE
    wci2_hdlc_buffer                         0x000063ac   Data           0  QCA6174_SCAQBAFM.sym ABSOLUTE
    PFAL_VOICE_PCM                           0x0000642c   Data           0  QCA6174_SCAQBAFM.sym ABSOLUTE
    PFAL_VOICE_NBSProcessor                  0x00006480   Data           0  QCA6174_SCAQBAFM.sym ABSOLUTE
    PFAL_VOICE_WBSProcessor                  0x000064a4   Data           0  QCA6174_SCAQBAFM.sym ABSOLUTE
    HID_Global                               0x000064bc   Data           0  QCA6174_SCAQBAFM.sym ABSOLUTE
    LLM_LE_encrStartEncryptionCommandSave    0x000065c4   Data           0  QCA6174_SCAQBAFM.sym ABSOLUTE
    stTxMessage                              0x000065e4   Data           0  QCA6174_SCAQBAFM.sym ABSOLUTE
    aucANTTxSerialQueue                      0x00006608   Data           0  QCA6174_SCAQBAFM.sym ABSOLUTE
    tempPoint1                               0x00006a08   Data           0  QCA6174_SCAQBAFM.sym ABSOLUTE
    tempPoint2                               0x00006a54   Data           0  QCA6174_SCAQBAFM.sym ABSOLUTE
    tempValue                                0x00006aa0   Data           0  QCA6174_SCAQBAFM.sym ABSOLUTE
    ctx256                                   0x00006ac8   Data           0  QCA6174_SCAQBAFM.sym ABSOLUTE
    w                                        0x00006b30   Data           0  QCA6174_SCAQBAFM.sym ABSOLUTE
    Q                                        0x00006bc0   Data           0  QCA6174_SCAQBAFM.sym ABSOLUTE
    SYS_Stack                                0x00006c48   Data           0  QCA6174_SCAQBAFM.sym ABSOLUTE
    __limit_sp                               0x00006c48   Data           0  QCA6174_SCAQBAFM.sym ABSOLUTE
    SYS_StackTop                             0x00007148   Data           0  QCA6174_SCAQBAFM.sym ABSOLUTE
    __initial_sp                             0x00007148   Data           0  QCA6174_SCAQBAFM.sym ABSOLUTE
    __initial_contex                         0x0000718c   Data           0  QCA6174_SCAQBAFM.sym ABSOLUTE
    PFAL_DBG_ActivityMask                    0x00010000   Data           0  QCA6174_SCAQBAFM.sym ABSOLUTE
    PFAL_DBG_UartInitialized                 0x00010001   Data           0  QCA6174_SCAQBAFM.sym ABSOLUTE
    gHostLogCtrlEnabled                      0x00010002   Data           0  QCA6174_SCAQBAFM.sym ABSOLUTE
    ISR_Log_DumpTopology                     0x00010003   Data           0  QCA6174_SCAQBAFM.sym ABSOLUTE
    PFAL_DBG_ActivityToggle                  0x00010006   Data           0  QCA6174_SCAQBAFM.sym ABSOLUTE
    PF_DBG_nSequenceCount                    0x00010007   Data           0  QCA6174_SCAQBAFM.sym ABSOLUTE
    PFAL_DBG_SysExceptionNotify              0x00010008   Data           0  QCA6174_SCAQBAFM.sym ABSOLUTE
    PFAL_DBG_pFaultData                      0x0001000c   Data           0  QCA6174_SCAQBAFM.sym ABSOLUTE
    gDbgScanTypeStr                          0x00010014   Data           0  QCA6174_SCAQBAFM.sym ABSOLUTE
    __stdout                                 0x00010020   Data           0  QCA6174_SCAQBAFM.sym ABSOLUTE
    wipowerAppState                          0x00010024   Data           0  QCA6174_SCAQBAFM.sym ABSOLUTE
    WlanCalWhileBTCal                        0x00010028   Data           0  QCA6174_SCAQBAFM.sym ABSOLUTE
    MCI_Predicted                            0x00010029   Data           0  QCA6174_SCAQBAFM.sym ABSOLUTE
    g_mci_ready                              0x0001002a   Data           0  QCA6174_SCAQBAFM.sym ABSOLUTE
    ScanActivityBitMapFlag                   0x0001002b   Data           0  QCA6174_SCAQBAFM.sym ABSOLUTE
    Gpm_queue_voerflow_flag                  0x0001002c   Data           0  QCA6174_SCAQBAFM.sym ABSOLUTE
    g_ANT_LinkID_Start                       0x0001002d   Data           0  QCA6174_SCAQBAFM.sym ABSOLUTE
    MCI_NoLinkState                          0x0001002e   Data           0  QCA6174_SCAQBAFM.sym ABSOLUTE
    mapMCIPrioIdx_ANT                        0x0001002f   Data           0  QCA6174_SCAQBAFM.sym ABSOLUTE
    ScanActivityBitMap                       0x00010034   Data           0  QCA6174_SCAQBAFM.sym ABSOLUTE
    ScanActivityBitMapWakeUpCopy             0x00010038   Data           0  QCA6174_SCAQBAFM.sym ABSOLUTE
    LE_time_start                            0x0001003c   Data           0  QCA6174_SCAQBAFM.sym ABSOLUTE
    LE_time_offset                           0x00010040   Data           0  QCA6174_SCAQBAFM.sym ABSOLUTE
    pgSniffConn                              0x00010044   Data           0  QCA6174_SCAQBAFM.sym ABSOLUTE
    pgVoiceConn                              0x00010048   Data           0  QCA6174_SCAQBAFM.sym ABSOLUTE
    PFAL_COEX_MCI_BT_CAL_REQ_CB              0x0001004c   Data           0  QCA6174_SCAQBAFM.sym ABSOLUTE
    MCI_Schd_Send_Func                       0x00010050   Data           0  QCA6174_SCAQBAFM.sym ABSOLUTE
    LE_last_tx_duration                      0x00010054   Data           0  QCA6174_SCAQBAFM.sym ABSOLUTE
    LE_last_rx_duration                      0x00010056   Data           0  QCA6174_SCAQBAFM.sym ABSOLUTE
    tech_token                               0x00010058   Data           0  QCA6174_SCAQBAFM.sym ABSOLUTE
    pcoex_qmi_idl_service_object             0x0001005c   Data           0  QCA6174_SCAQBAFM.sym ABSOLUTE
    PFAL_GPIO_FunctionMappingTbl             0x00010060   Data           0  QCA6174_SCAQBAFM.sym ABSOLUTE
    PFAL_GPIO_RomePinMap_Usb                 0x00010064   Data           0  QCA6174_SCAQBAFM.sym ABSOLUTE
    PFAL_GPIO_RomePinMap_Uart                0x0001007f   Data           0  QCA6174_SCAQBAFM.sym ABSOLUTE
    PFAL_GPIO_RomePinMap_QctWiPower          0x0001009a   Data           0  QCA6174_SCAQBAFM.sym ABSOLUTE
    PFAL_GPIO_RomePinMap_3rdWiPower          0x000100b5   Data           0  QCA6174_SCAQBAFM.sym ABSOLUTE
    PFAL_IM_NVIC_Enabled                     0x000100d0   Data           0  QCA6174_SCAQBAFM.sym ABSOLUTE
    PFAL_IM_NVIC_Irq_EnMask                  0x000100d4   Data           0  QCA6174_SCAQBAFM.sym ABSOLUTE
    PFAL_FS_IsInitalized                     0x000100d8   Data           0  QCA6174_SCAQBAFM.sym ABSOLUTE
    PFAL_FS_DEV_pFunctions                   0x000100dc   Data           0  QCA6174_SCAQBAFM.sym ABSOLUTE
    gFSFileTable                             0x000100e0   Data           0  QCA6174_SCAQBAFM.sym ABSOLUTE
    PFAL_FS_SiFlashFunctions                 0x000100f8   Data           0  QCA6174_SCAQBAFM.sym ABSOLUTE
    PFAL_FS_EepromFunctions                  0x00010114   Data           0  QCA6174_SCAQBAFM.sym ABSOLUTE
    pruHandOffState                          0x00010130   Data           0  QCA6174_SCAQBAFM.sym ABSOLUTE
    pA4wpPeroidTimer                         0x00010134   Data           0  QCA6174_SCAQBAFM.sym ABSOLUTE
    fBtShouldRecalibrate                     0x00010138   Data           0  QCA6174_SCAQBAFM.sym ABSOLUTE
    is_sw_trigger                            0x00010139   Data           0  QCA6174_SCAQBAFM.sym ABSOLUTE
    gpm_parsebuf_addr                        0x0001013c   Data           0  QCA6174_SCAQBAFM.sym ABSOLUTE
    MCI_RX_CMD                               0x00010140   Data           0  QCA6174_SCAQBAFM.sym ABSOLUTE
    g_usb_inited                             0x00010150   Data           0  QCA6174_SCAQBAFM.sym ABSOLUTE
    usb_str_man                              0x00010151   Data           0  QCA6174_SCAQBAFM.sym ABSOLUTE
    usb_str_pro                              0x00010152   Data           0  QCA6174_SCAQBAFM.sym ABSOLUTE
    usb_str_ser                              0x00010153   Data           0  QCA6174_SCAQBAFM.sym ABSOLUTE
    usb_str_con                              0x00010154   Data           0  QCA6174_SCAQBAFM.sym ABSOLUTE
    rtw_1                                    0x00010156   Data           0  QCA6174_SCAQBAFM.sym ABSOLUTE
    USBPolicyConfig                          0x00010158   Data           0  QCA6174_SCAQBAFM.sym ABSOLUTE
    glpm                                     0x0001015c   Data           0  QCA6174_SCAQBAFM.sym ABSOLUTE
    usb_hw_cap                               0x00010160   Data           0  QCA6174_SCAQBAFM.sym ABSOLUTE
    USBStringTable                           0x00010168   Data           0  QCA6174_SCAQBAFM.sym ABSOLUTE
    USB_Assco_Desc                           0x00010170   Data           0  QCA6174_SCAQBAFM.sym ABSOLUTE
    USBStrings                               0x00010178   Data           0  QCA6174_SCAQBAFM.sym ABSOLUTE
    hid_kbd_iid                              0x00010200   Data           0  QCA6174_SCAQBAFM.sym ABSOLUTE
    hid_ms_iid                               0x00010201   Data           0  QCA6174_SCAQBAFM.sym ABSOLUTE
    hid_on                                   0x00010202   Data           0  QCA6174_SCAQBAFM.sym ABSOLUTE
    hid_endpoint                             0x00010204   Data           0  QCA6174_SCAQBAFM.sym ABSOLUTE
    hid_eps                                  0x0001020c   Data           0  QCA6174_SCAQBAFM.sym ABSOLUTE
    hid_kbd_intferface                       0x00010214   Data           0  QCA6174_SCAQBAFM.sym ABSOLUTE
    hid_ms_intferface                        0x00010224   Data           0  QCA6174_SCAQBAFM.sym ABSOLUTE
    g_patched                                0x00010234   Data           0  QCA6174_SCAQBAFM.sym ABSOLUTE
    dfu_iid                                  0x00010235   Data           0  QCA6174_SCAQBAFM.sym ABSOLUTE
    dfu_eps                                  0x00010238   Data           0  QCA6174_SCAQBAFM.sym ABSOLUTE
    dfu_endpoint                             0x0001023c   Data           0  QCA6174_SCAQBAFM.sym ABSOLUTE
    dfu_interface                            0x00010244   Data           0  QCA6174_SCAQBAFM.sym ABSOLUTE
    gp_hciCtx                                0x00010254   Data           0  QCA6174_SCAQBAFM.sym ABSOLUTE
    stack_initialized                        0x00010270   Data           0  QCA6174_SCAQBAFM.sym ABSOLUTE
    sal_costom_gap_cb                        0x00010274   Data           0  QCA6174_SCAQBAFM.sym ABSOLUTE
    gapProfileState                          0x00010278   Data           0  QCA6174_SCAQBAFM.sym ABSOLUTE
    scanRspData                              0x0001027a   Data           0  QCA6174_SCAQBAFM.sym ABSOLUTE
    advertData                               0x00010288   Data           0  QCA6174_SCAQBAFM.sym ABSOLUTE
    pruCachedSetting                         0x00010294   Data           0  QCA6174_SCAQBAFM.sym ABSOLUTE
    appParam                                 0x00010298   Data           0  QCA6174_SCAQBAFM.sym ABSOLUTE
    pWipLeStackMemPoolObj                    0x000102e4   Data           0  QCA6174_SCAQBAFM.sym ABSOLUTE
    coex_tech_band_type_data_v02             0x000102e8   Data           0  QCA6174_SCAQBAFM.sym ABSOLUTE
    coex_antenna_state_data_v02              0x000102ed   Data           0  QCA6174_SCAQBAFM.sym ABSOLUTE
    coex_tech_sync_state_data_v02            0x000102f2   Data           0  QCA6174_SCAQBAFM.sym ABSOLUTE
    coex_tech_state_update_req_data_v02      0x000102f7   Data           0  QCA6174_SCAQBAFM.sym ABSOLUTE
    coex_wwan_lte_state_data_v02             0x000102fa   Data           0  QCA6174_SCAQBAFM.sym ABSOLUTE
    coex_wwan_tdscdma_state_data_v02         0x00010307   Data           0  QCA6174_SCAQBAFM.sym ABSOLUTE
    coex_wwan_gsm_state_data_v02             0x00010310   Data           0  QCA6174_SCAQBAFM.sym ABSOLUTE
    coex_wwan_onex_state_data_v02            0x00010319   Data           0  QCA6174_SCAQBAFM.sym ABSOLUTE
    coex_wwan_hdr_state_data_v02             0x00010322   Data           0  QCA6174_SCAQBAFM.sym ABSOLUTE
    coex_wwan_wcdma_state_data_v02           0x0001032b   Data           0  QCA6174_SCAQBAFM.sym ABSOLUTE
    coex_wlan_wifi_connection_info_data_v02  0x00010334   Data           0  QCA6174_SCAQBAFM.sym ABSOLUTE
    coex_wlan_wifi_state_data_v02            0x0001033b   Data           0  QCA6174_SCAQBAFM.sym ABSOLUTE
    coex_diversity_antenna_state_data_v02    0x0001034a   Data           0  QCA6174_SCAQBAFM.sym ABSOLUTE
    qmi_coex_tech_sync_req_msg_data_v02      0x00010351   Data           0  QCA6174_SCAQBAFM.sym ABSOLUTE
    qmi_coex_tech_sync_resp_msg_data_v02     0x00010359   Data           0  QCA6174_SCAQBAFM.sym ABSOLUTE
    qmi_coex_tech_sync_update_ind_msg_data_v02 0x00010361   Data           0  QCA6174_SCAQBAFM.sym ABSOLUTE
    qmi_coex_tech_state_update_req_msg_data_v02 0x00010367   Data           0  QCA6174_SCAQBAFM.sym ABSOLUTE
    qmi_coex_wwan_lte_state_ind_msg_data_v02 0x0001036f   Data           0  QCA6174_SCAQBAFM.sym ABSOLUTE
    qmi_coex_wwan_tdscdma_state_ind_msg_data_v02 0x00010375   Data           0  QCA6174_SCAQBAFM.sym ABSOLUTE
    qmi_coex_wwan_gsm_state_ind_msg_data_v02 0x0001037b   Data           0  QCA6174_SCAQBAFM.sym ABSOLUTE
    qmi_coex_wwan_onex_state_ind_msg_data_v02 0x00010381   Data           0  QCA6174_SCAQBAFM.sym ABSOLUTE
    qmi_coex_wwan_hdr_state_ind_msg_data_v02 0x00010387   Data           0  QCA6174_SCAQBAFM.sym ABSOLUTE
    qmi_coex_wwan_wcdma_state_ind_msg_data_v02 0x0001038d   Data           0  QCA6174_SCAQBAFM.sym ABSOLUTE
    qmi_coex_wlan_wifi_state_ind_msg_data_v02 0x00010393   Data           0  QCA6174_SCAQBAFM.sym ABSOLUTE
    qmi_coex_diversity_antenna_state_ind_msg_data_v02 0x00010399   Data           0  QCA6174_SCAQBAFM.sym ABSOLUTE
    coex_type_table_v02                      0x000103a0   Data           0  QCA6174_SCAQBAFM.sym ABSOLUTE
    coex_message_table_v02                   0x00010408   Data           0  QCA6174_SCAQBAFM.sym ABSOLUTE
    coex_qmi_idl_type_table_object_referenced_tables_v02 0x00010470   Data           0  QCA6174_SCAQBAFM.sym ABSOLUTE
    coex_qmi_idl_type_table_object_v02       0x00010478   Data           0  QCA6174_SCAQBAFM.sym ABSOLUTE
    coex_service_indication_messages_v02     0x00010490   Data           0  QCA6174_SCAQBAFM.sym ABSOLUTE
    coex_qmi_idl_service_object_v02          0x000104e0   Data           0  QCA6174_SCAQBAFM.sym ABSOLUTE
    g_txp_retry_bits                         0x00010510   Data           0  QCA6174_SCAQBAFM.sym ABSOLUTE
    bt_iid0                                  0x00010514   Data           0  QCA6174_SCAQBAFM.sym ABSOLUTE
    bt_iid1                                  0x00010515   Data           0  QCA6174_SCAQBAFM.sym ABSOLUTE
    g_drop_data                              0x00010516   Data           0  QCA6174_SCAQBAFM.sym ABSOLUTE
    usb_sco_rx_idx                           0x00010517   Data           0  QCA6174_SCAQBAFM.sym ABSOLUTE
    usb_sco_tx_idx                           0x00010518   Data           0  QCA6174_SCAQBAFM.sym ABSOLUTE
    static_sco_pkt_len                       0x00010519   Data           0  QCA6174_SCAQBAFM.sym ABSOLUTE
    is_sco_start                             0x0001051a   Data           0  QCA6174_SCAQBAFM.sym ABSOLUTE
    isoout                                   0x0001051c   Data           0  QCA6174_SCAQBAFM.sym ABSOLUTE
    isoin                                    0x00010520   Data           0  QCA6174_SCAQBAFM.sym ABSOLUTE
    bt_in_endpoint                           0x00010524   Data           0  QCA6174_SCAQBAFM.sym ABSOLUTE
    bt_out_endpoint                          0x0001052c   Data           0  QCA6174_SCAQBAFM.sym ABSOLUTE
    bt_intf0_intferface                      0x00010534   Data           0  QCA6174_SCAQBAFM.sym ABSOLUTE
    bt_intf1_intferface                      0x00010544   Data           0  QCA6174_SCAQBAFM.sym ABSOLUTE
    usb_transport                            0x00010554   Data           0  QCA6174_SCAQBAFM.sym ABSOLUTE
    loc_controllers                          0x00010580   Data           0  QCA6174_SCAQBAFM.sym ABSOLUTE
    BDADDR_EMPTY                             0x00010584   Data           0  QCA6174_SCAQBAFM.sym ABSOLUTE
    gap_users                                0x0001058c   Data           0  QCA6174_SCAQBAFM.sym ABSOLUTE
    pass_through_mode                        0x00010594   Data           0  QCA6174_SCAQBAFM.sym ABSOLUTE
    att_opeartion_timeout                    0x00010598   Data           0  QCA6174_SCAQBAFM.sym ABSOLUTE
    hci_wrap                                 0x0001059c   Data           0  QCA6174_SCAQBAFM.sym ABSOLUTE
    adp_ctx                                  0x000105a0   Data           0  QCA6174_SCAQBAFM.sym ABSOLUTE
    a4wpServiceUUID                          0x000105a4   Data           0  QCA6174_SCAQBAFM.sym ABSOLUTE
    a4wpPruControlProps                      0x000105a6   Data           0  QCA6174_SCAQBAFM.sym ABSOLUTE
    a4wpPruControl                           0x000105b9   Data           0  QCA6174_SCAQBAFM.sym ABSOLUTE
    a4wpPtuStaticParamProps                  0x000105be   Data           0  QCA6174_SCAQBAFM.sym ABSOLUTE
    a4wpPruAlertProps                        0x000105d1   Data           0  QCA6174_SCAQBAFM.sym ABSOLUTE
    a4wpPruAlert                             0x000105e4   Data           0  QCA6174_SCAQBAFM.sym ABSOLUTE
    a4wpPruAlertDesc                         0x000105e6   Data           0  QCA6174_SCAQBAFM.sym ABSOLUTE
    a4wpPruStaticParamProps                  0x000105e8   Data           0  QCA6174_SCAQBAFM.sym ABSOLUTE
    a4wpPruDynamicParamProps                 0x000105fb   Data           0  QCA6174_SCAQBAFM.sym ABSOLUTE
    a4wpParamTable                           0x00010610   Data           0  QCA6174_SCAQBAFM.sym ABSOLUTE
    a4wpAttrTbl                              0x00010640   Data           0  QCA6174_SCAQBAFM.sym ABSOLUTE
    qmi_response_type_data_v01               0x00010790   Data           0  QCA6174_SCAQBAFM.sym ABSOLUTE
    qmi_get_supported_msgs_resp_data_v01     0x00010795   Data           0  QCA6174_SCAQBAFM.sym ABSOLUTE
    qmi_get_supported_fields_req_data_v01    0x000107a1   Data           0  QCA6174_SCAQBAFM.sym ABSOLUTE
    qmi_get_supported_fields_resp_data_v01   0x000107a4   Data           0  QCA6174_SCAQBAFM.sym ABSOLUTE
    common_type_table_v01                    0x000107bc   Data           0  QCA6174_SCAQBAFM.sym ABSOLUTE
    common_message_table_v01                 0x000107c4   Data           0  QCA6174_SCAQBAFM.sym ABSOLUTE
    common_qmi_idl_type_table_object_referenced_tables_v01 0x000107e4   Data           0  QCA6174_SCAQBAFM.sym ABSOLUTE
    common_qmi_idl_type_table_object_v01     0x000107e8   Data           0  QCA6174_SCAQBAFM.sym ABSOLUTE
    l2cap_context                            0x00010804   Data           0  QCA6174_SCAQBAFM.sym ABSOLUTE
    io_cap_table                             0x00010808   Data           0  QCA6174_SCAQBAFM.sym ABSOLUTE
    const_Rb                                 0x00010821   Data           0  QCA6174_SCAQBAFM.sym ABSOLUTE
    PFAL_PROC_CRC32                          0x00010834   Data           0  QCA6174_SCAQBAFM.sym ABSOLUTE
    PFAL_PROC_rand16                         0x00010838   Data           0  QCA6174_SCAQBAFM.sym ABSOLUTE
    PFAL_PROC_Uint16Msb                      0x0001083c   Data           0  QCA6174_SCAQBAFM.sym ABSOLUTE
    PFAL_PROC_Uint16Lsb                      0x00010840   Data           0  QCA6174_SCAQBAFM.sym ABSOLUTE
    PFAL_PROC_Uint32Byte3                    0x00010844   Data           0  QCA6174_SCAQBAFM.sym ABSOLUTE
    PFAL_PROC_Uint32Byte2                    0x00010848   Data           0  QCA6174_SCAQBAFM.sym ABSOLUTE
    PFAL_PROC_Uint32Byte1                    0x0001084c   Data           0  QCA6174_SCAQBAFM.sym ABSOLUTE
    PFAL_PROC_Uint32Byte0                    0x00010850   Data           0  QCA6174_SCAQBAFM.sym ABSOLUTE
    PFAL_DBG_UART_Init                       0x00010854   Data           0  QCA6174_SCAQBAFM.sym ABSOLUTE
    PFAL_DBG_UART_Write                      0x00010858   Data           0  QCA6174_SCAQBAFM.sym ABSOLUTE
    PFAL_DBG_ActivateLoggerPort              0x0001085c   Data           0  QCA6174_SCAQBAFM.sym ABSOLUTE
    PFAL_DBG_DeactivateLoggerPort            0x00010860   Data           0  QCA6174_SCAQBAFM.sym ABSOLUTE
    PFAL_DBG_DumpContext                     0x00010864   Data           0  QCA6174_SCAQBAFM.sym ABSOLUTE
    PFAL_DBG_Fault                           0x00010868   Data           0  QCA6174_SCAQBAFM.sym ABSOLUTE
    PFAL_DBG_SetLedState                     0x0001086c   Data           0  QCA6174_SCAQBAFM.sym ABSOLUTE
    PFAL_DBG_ActivityStateEval               0x00010870   Data           0  QCA6174_SCAQBAFM.sym ABSOLUTE
    PFAL_DBG_ResetReasonSet                  0x00010874   Data           0  QCA6174_SCAQBAFM.sym ABSOLUTE
    PFAL_DBG_ISR_LogMsg                      0x00010878   Data           0  QCA6174_SCAQBAFM.sym ABSOLUTE
    PFAL_DBG_AllocMem                        0x0001087c   Data           0  QCA6174_SCAQBAFM.sym ABSOLUTE
    PFAL_DBG_Log_HexDump                     0x00010880   Data           0  QCA6174_SCAQBAFM.sym ABSOLUTE
    PFAL_DBG_Log_VStr                        0x00010884   Data           0  QCA6174_SCAQBAFM.sym ABSOLUTE
    PFAL_DBG_Log_Var                         0x00010888   Data           0  QCA6174_SCAQBAFM.sym ABSOLUTE
    PFAL_DBG_Log_VStrForced                  0x0001088c   Data           0  QCA6174_SCAQBAFM.sym ABSOLUTE
    PFAL_DBG_SaveReason_TriggerReset         0x00010890   Data           0  QCA6174_SCAQBAFM.sym ABSOLUTE
    PFAL_DBG_UART_Reset                      0x00010894   Data           0  QCA6174_SCAQBAFM.sym ABSOLUTE
    PFAL_DBG_EXCEPTION_DumpMemory            0x00010898   Data           0  QCA6174_SCAQBAFM.sym ABSOLUTE
    PFAL_DBG_BootToEDL                       0x0001089c   Data           0  QCA6174_SCAQBAFM.sym ABSOLUTE
    PFAL_DBG_ActivityInit                    0x000108a0   Data           0  QCA6174_SCAQBAFM.sym ABSOLUTE
    PFAL_DBG_ActivitySet                     0x000108a4   Data           0  QCA6174_SCAQBAFM.sym ABSOLUTE
    PFAL_DBG_ActivityClear                   0x000108a8   Data           0  QCA6174_SCAQBAFM.sym ABSOLUTE
    PFAL_DBG_ActivityTimer                   0x000108ac   Data           0  QCA6174_SCAQBAFM.sym ABSOLUTE
    PFAL_DBG_SetDebugFunctions               0x000108b0   Data           0  QCA6174_SCAQBAFM.sym ABSOLUTE
    PFAL_DBG_ISR_DumpLog                     0x000108b4   Data           0  QCA6174_SCAQBAFM.sym ABSOLUTE
    PFAL_DBG_ISR_DumpTopology                0x000108b8   Data           0  QCA6174_SCAQBAFM.sym ABSOLUTE
    PFAL_DBG_Log_CStr                        0x000108bc   Data           0  QCA6174_SCAQBAFM.sym ABSOLUTE
    PFAL_DBG_Log_Packet                      0x000108c0   Data           0  QCA6174_SCAQBAFM.sym ABSOLUTE
    PFAL_DBG_CheckStacks                     0x000108c4   Data           0  QCA6174_SCAQBAFM.sym ABSOLUTE
    PFAL_DBG_DisplayStacks                   0x000108c8   Data           0  QCA6174_SCAQBAFM.sym ABSOLUTE
    PFAL_LC_loadBurstTimers                  0x000108cc   Data           0  QCA6174_SCAQBAFM.sym ABSOLUTE
    PFAL_LC_LE_loadBurstTimers               0x000108d0   Data           0  QCA6174_SCAQBAFM.sym ABSOLUTE
    PFAL_LC_Clk_Calc_Integer                 0x000108d4   Data           0  QCA6174_SCAQBAFM.sym ABSOLUTE
    PFAL_LC_Clk_A_GetInteger                 0x000108d8   Data           0  QCA6174_SCAQBAFM.sym ABSOLUTE
    PFAL_LC_Clk_Calc_SlotOffset              0x000108dc   Data           0  QCA6174_SCAQBAFM.sym ABSOLUTE
    PFAL_LC_Clk_Add                          0x000108e0   Data           0  QCA6174_SCAQBAFM.sym ABSOLUTE
    PFAL_LC_Clk_Subtract                     0x000108e4   Data           0  QCA6174_SCAQBAFM.sym ABSOLUTE
    PFAL_LC_INT0_ISR                         0x000108e8   Data           0  QCA6174_SCAQBAFM.sym ABSOLUTE
    PFAL_LC_INT0_Handler                     0x000108ec   Data           0  QCA6174_SCAQBAFM.sym ABSOLUTE
    PFAL_LC_INT1_ISR                         0x000108f0   Data           0  QCA6174_SCAQBAFM.sym ABSOLUTE
    PFAL_LC_INT1_Handler                     0x000108f4   Data           0  QCA6174_SCAQBAFM.sym ABSOLUTE
    PFAL_LC_FSYNC_ISR                        0x000108f8   Data           0  QCA6174_SCAQBAFM.sym ABSOLUTE
    PFAL_LC_GetLLRMsgType                    0x000108fc   Data           0  QCA6174_SCAQBAFM.sym ABSOLUTE
    PFAL_LC_ContextFrame_CONN_MASTER         0x00010900   Data           0  QCA6174_SCAQBAFM.sym ABSOLUTE
    PFAL_LC_ContextRx_CONN_MASTER            0x00010904   Data           0  QCA6174_SCAQBAFM.sym ABSOLUTE
    PFAL_LC_writeBdAddr                      0x00010908   Data           0  QCA6174_SCAQBAFM.sym ABSOLUTE
    PFAL_LC_procTxFHSCommon                  0x0001090c   Data           0  QCA6174_SCAQBAFM.sym ABSOLUTE
    PFAL_LC_procRxFHSCommon                  0x00010910   Data           0  QCA6174_SCAQBAFM.sym ABSOLUTE
    PFAL_LC_writeTxPktHdr                    0x00010914   Data           0  QCA6174_SCAQBAFM.sym ABSOLUTE
    PFAL_WriteSyncTrainPacket                0x00010918   Data           0  QCA6174_SCAQBAFM.sym ABSOLUTE
    PFAL_LC_setScrambleFECOptions            0x0001091c   Data           0  QCA6174_SCAQBAFM.sym ABSOLUTE
    PFAL_LC_setHoppingOptions                0x00010920   Data           0  QCA6174_SCAQBAFM.sym ABSOLUTE
    PFAL_LC_RxRssiDbmGet                     0x00010924   Data           0  QCA6174_SCAQBAFM.sym ABSOLUTE
    PFAL_LC_PeekNextRxAclPayload             0x00010928   Data           0  QCA6174_SCAQBAFM.sym ABSOLUTE
    PFAL_LC_GetNextRxAclFMB                  0x0001092c   Data           0  QCA6174_SCAQBAFM.sym ABSOLUTE
    PFAL_LC_ContextTx_ContinuousPayloadSetup 0x00010930   Data           0  QCA6174_SCAQBAFM.sym ABSOLUTE
    PFAL_LC_ContextTx_BurstPacketSetup       0x00010934   Data           0  QCA6174_SCAQBAFM.sym ABSOLUTE
    PFAL_LC_LE_writeAdvChanPDU_Hdr           0x00010938   Data           0  QCA6174_SCAQBAFM.sym ABSOLUTE
    PFAL_LC_LE_writeTestModePDU_Hdr          0x0001093c   Data           0  QCA6174_SCAQBAFM.sym ABSOLUTE
    PFAL_LC_LE_GetRxUlpFMB                   0x00010940   Data           0  QCA6174_SCAQBAFM.sym ABSOLUTE
    PFAL_LC_LE_setAdvertisingChannel         0x00010944   Data           0  QCA6174_SCAQBAFM.sym ABSOLUTE
    PFAL_LC_LE_getDataChan                   0x00010948   Data           0  QCA6174_SCAQBAFM.sym ABSOLUTE
    PFAL_LC_LE_setDataChannel                0x0001094c   Data           0  QCA6174_SCAQBAFM.sym ABSOLUTE
    PFAL_LC_Stop                             0x00010950   Data           0  QCA6174_SCAQBAFM.sym ABSOLUTE
    PFAL_LC_Init                             0x00010954   Data           0  QCA6174_SCAQBAFM.sym ABSOLUTE
    PFAL_LC_Clk_N_GetInteger                 0x00010958   Data           0  QCA6174_SCAQBAFM.sym ABSOLUTE
    PFAL_LC_Clk_N_GetFull                    0x0001095c   Data           0  QCA6174_SCAQBAFM.sym ABSOLUTE
    PFAL_LC_Clk_Calc_Full                    0x00010960   Data           0  QCA6174_SCAQBAFM.sym ABSOLUTE
    PFAL_LC_Clk_Sign_Inverse                 0x00010964   Data           0  QCA6174_SCAQBAFM.sym ABSOLUTE
    PFAL_LC_Clk_2_NxtFrame                   0x00010968   Data           0  QCA6174_SCAQBAFM.sym ABSOLUTE
    PFAL_LC_Clk_Convert_Ticks_Clock          0x0001096c   Data           0  QCA6174_SCAQBAFM.sym ABSOLUTE
    PFAL_LC_IM_Connect                       0x00010970   Data           0  QCA6174_SCAQBAFM.sym ABSOLUTE
    PFAL_LC_ContextFrame_PAGE_ID             0x00010974   Data           0  QCA6174_SCAQBAFM.sym ABSOLUTE
    PFAL_LC_ContextFrame_PAGE_FHS            0x00010978   Data           0  QCA6174_SCAQBAFM.sym ABSOLUTE
    PFAL_LC_ContextTx_PAGE_ID                0x0001097c   Data           0  QCA6174_SCAQBAFM.sym ABSOLUTE
    PFAL_LC_ContextTx_PAGE_FHS               0x00010980   Data           0  QCA6174_SCAQBAFM.sym ABSOLUTE
    PFAL_LC_ContextTx_PAGE_POLL              0x00010984   Data           0  QCA6174_SCAQBAFM.sym ABSOLUTE
    PFAL_LC_BuildLLRPacket                   0x00010988   Data           0  QCA6174_SCAQBAFM.sym ABSOLUTE
    PFAL_LC_HandleLLRPacket                  0x0001098c   Data           0  QCA6174_SCAQBAFM.sym ABSOLUTE
    PFAL_LC_ContextRx_NONE                   0x00010990   Data           0  QCA6174_SCAQBAFM.sym ABSOLUTE
    PFAL_LC_ContextRx_PAGE_ID                0x00010994   Data           0  QCA6174_SCAQBAFM.sym ABSOLUTE
    PFAL_LC_ContextRx_PAGE_FHS               0x00010998   Data           0  QCA6174_SCAQBAFM.sym ABSOLUTE
    PFAL_LC_ContextFrame_CONN_SLAVE          0x0001099c   Data           0  QCA6174_SCAQBAFM.sym ABSOLUTE
    PFAL_LC_ContextFrame_SEMI_CONN           0x000109a0   Data           0  QCA6174_SCAQBAFM.sym ABSOLUTE
    PFAL_LC_ContextTx_CONN_MASTER            0x000109a4   Data           0  QCA6174_SCAQBAFM.sym ABSOLUTE
    PFAL_LC_ContextFrame_INQUIRY             0x000109a8   Data           0  QCA6174_SCAQBAFM.sym ABSOLUTE
    PFAL_LC_ContextTx_INQUIRY                0x000109ac   Data           0  QCA6174_SCAQBAFM.sym ABSOLUTE
    PFAL_LC_ContextRx_INQUIRY                0x000109b0   Data           0  QCA6174_SCAQBAFM.sym ABSOLUTE
    PFAL_LC_ContextRx_INQUIRY_EXT_DATA       0x000109b4   Data           0  QCA6174_SCAQBAFM.sym ABSOLUTE
    PFAL_LC_ContextFrame_RSW2M_TDD           0x000109b8   Data           0  QCA6174_SCAQBAFM.sym ABSOLUTE
    PFAL_LC_ContextFrame_RSW2M_PSW           0x000109bc   Data           0  QCA6174_SCAQBAFM.sym ABSOLUTE
    PFAL_LC_ContextFrame_RSW2S_TDD           0x000109c0   Data           0  QCA6174_SCAQBAFM.sym ABSOLUTE
    PFAL_LC_ContextFrame_RSW2S_PSW           0x000109c4   Data           0  QCA6174_SCAQBAFM.sym ABSOLUTE
    PFAL_LC_ContextTx_RSW2M                  0x000109c8   Data           0  QCA6174_SCAQBAFM.sym ABSOLUTE
    PFAL_LC_ContextRx_RSW2M_ID               0x000109cc   Data           0  QCA6174_SCAQBAFM.sym ABSOLUTE
    PFAL_LC_procRxFHS                        0x000109d0   Data           0  QCA6174_SCAQBAFM.sym ABSOLUTE
    PFAL_LC_procRxFHS_Switch                 0x000109d4   Data           0  QCA6174_SCAQBAFM.sym ABSOLUTE
    PFAL_LC_procRxFHSInqResp                 0x000109d8   Data           0  QCA6174_SCAQBAFM.sym ABSOLUTE
    PFAL_LC_putFHSPktConnection              0x000109dc   Data           0  QCA6174_SCAQBAFM.sym ABSOLUTE
    PFAL_LC_putFHSPktInquiryResponse         0x000109e0   Data           0  QCA6174_SCAQBAFM.sym ABSOLUTE
    PFAL_LC_putFHSPktRoleSwitch              0x000109e4   Data           0  QCA6174_SCAQBAFM.sym ABSOLUTE
    PFAL_LC_putPOLLPacket                    0x000109e8   Data           0  QCA6174_SCAQBAFM.sym ABSOLUTE
    PFAL_LC_writeTxPayloadHeader             0x000109ec   Data           0  QCA6174_SCAQBAFM.sym ABSOLUTE
    PFAL_LC_getRxPacketHeader                0x000109f0   Data           0  QCA6174_SCAQBAFM.sym ABSOLUTE
    PFAL_LC_procRxACLPayloadHdr              0x000109f4   Data           0  QCA6174_SCAQBAFM.sym ABSOLUTE
    PFAL_LC_writeEncrKey                     0x000109f8   Data           0  QCA6174_SCAQBAFM.sym ABSOLUTE
    PFAL_LC_ContextFrame_PSCAN               0x000109fc   Data           0  QCA6174_SCAQBAFM.sym ABSOLUTE
    PFAL_LC_ContextFrame_PAGE_SCAN_RESPONSE  0x00010a00   Data           0  QCA6174_SCAQBAFM.sym ABSOLUTE
    PFAL_LC_ContextTx_PSCAN                  0x00010a04   Data           0  QCA6174_SCAQBAFM.sym ABSOLUTE
    PFAL_LC_ContextRx_PSCAN                  0x00010a08   Data           0  QCA6174_SCAQBAFM.sym ABSOLUTE
    PFAL_LC_ContextRx_LPPSCAN                0x00010a0c   Data           0  QCA6174_SCAQBAFM.sym ABSOLUTE
    PFAL_LC_ContextFrame_PSCAN_FHS           0x00010a10   Data           0  QCA6174_SCAQBAFM.sym ABSOLUTE
    PFAL_LC_ContextRx_PSCAN_FHS              0x00010a14   Data           0  QCA6174_SCAQBAFM.sym ABSOLUTE
    PFAL_LC_ContextTx_PSCAN_FHS              0x00010a18   Data           0  QCA6174_SCAQBAFM.sym ABSOLUTE
    PFAL_LC_ContextFrame_INQUIRY_SCAN        0x00010a1c   Data           0  QCA6174_SCAQBAFM.sym ABSOLUTE
    PFAL_LC_ContextFrame_INQUIRY_SCAN_RESPONSE 0x00010a20   Data           0  QCA6174_SCAQBAFM.sym ABSOLUTE
    PFAL_LC_ContextRx_INQUIRY_SCAN           0x00010a24   Data           0  QCA6174_SCAQBAFM.sym ABSOLUTE
    PFAL_LC_ContextTx_INQUIRY_SCAN           0x00010a28   Data           0  QCA6174_SCAQBAFM.sym ABSOLUTE
    PFAL_LC_ContextTx_EXT_INQUIRY_RES        0x00010a2c   Data           0  QCA6174_SCAQBAFM.sym ABSOLUTE
    PFAL_LC_ContextTx_SYNC_TRAIN             0x00010a30   Data           0  QCA6174_SCAQBAFM.sym ABSOLUTE
    PFAL_LC_ContextTx_LINKLESS_BC            0x00010a34   Data           0  QCA6174_SCAQBAFM.sym ABSOLUTE
    PFAL_LC_ContextRx_ASSOCIATION            0x00010a38   Data           0  QCA6174_SCAQBAFM.sym ABSOLUTE
    PFAL_LC_ContextTx_ASSOCIATION            0x00010a3c   Data           0  QCA6174_SCAQBAFM.sym ABSOLUTE
    PFAL_LC_ContextFrame_SYNC_TRAIN_SCAN     0x00010a40   Data           0  QCA6174_SCAQBAFM.sym ABSOLUTE
    PFAL_LC_ContextRx_SYNC_TRAIN_SCAN        0x00010a44   Data           0  QCA6174_SCAQBAFM.sym ABSOLUTE
    PFAL_LC_ContextFrame_DATA_SCAN           0x00010a48   Data           0  QCA6174_SCAQBAFM.sym ABSOLUTE
    PFAL_LC_ContextRx_DATA_SCAN              0x00010a4c   Data           0  QCA6174_SCAQBAFM.sym ABSOLUTE
    PFAL_LC_ContextRx_MEASURE_RSSI           0x00010a50   Data           0  QCA6174_SCAQBAFM.sym ABSOLUTE
    PFAL_LC_ContextRx_CHAN_ASSESSMENT        0x00010a54   Data           0  QCA6174_SCAQBAFM.sym ABSOLUTE
    PFAL_LC_ContextRx_PROC_CHAN_ASSESSMENT   0x00010a58   Data           0  QCA6174_SCAQBAFM.sym ABSOLUTE
    PFAL_LC_testSetRxSlotOptions             0x00010a5c   Data           0  QCA6174_SCAQBAFM.sym ABSOLUTE
    PFAL_LC_testSetTxSlotOptions             0x00010a60   Data           0  QCA6174_SCAQBAFM.sym ABSOLUTE
    PFAL_LC_ResizeBBPackets                  0x00010a64   Data           0  QCA6174_SCAQBAFM.sym ABSOLUTE
    PFAL_LC_InitRxBuffers                    0x00010a68   Data           0  QCA6174_SCAQBAFM.sym ABSOLUTE
    PFAL_LC_PeekRxLmpPayload                 0x00010a6c   Data           0  QCA6174_SCAQBAFM.sym ABSOLUTE
    PFAL_LC_GetRxLmpFMB                      0x00010a70   Data           0  QCA6174_SCAQBAFM.sym ABSOLUTE
    PFAL_LC_procConfigDUT_TESTER_xSCO_Rx     0x00010a74   Data           0  QCA6174_SCAQBAFM.sym ABSOLUTE
    PFAL_LC_procAclTxLoopBack                0x00010a78   Data           0  QCA6174_SCAQBAFM.sym ABSOLUTE
    PFAL_LC_procRxL2cap                      0x00010a7c   Data           0  QCA6174_SCAQBAFM.sym ABSOLUTE
    PFAL_LC_procRx_EPTM                      0x00010a80   Data           0  QCA6174_SCAQBAFM.sym ABSOLUTE
    PFAL_LC_EPTM_procRxQueue_4_BitErrors     0x00010a84   Data           0  QCA6174_SCAQBAFM.sym ABSOLUTE
    PFAL_LC_ContextTx_Continuous             0x00010a88   Data           0  QCA6174_SCAQBAFM.sym ABSOLUTE
    PFAL_LC_ContextTx_Burst                  0x00010a8c   Data           0  QCA6174_SCAQBAFM.sym ABSOLUTE
    PFAL_LC_LE_ContextTx_Continuous          0x00010a90   Data           0  QCA6174_SCAQBAFM.sym ABSOLUTE
    PFAL_LC_SetLoopbackMode                  0x00010a94   Data           0  QCA6174_SCAQBAFM.sym ABSOLUTE
    PFAL_LC_GetLoopbackMode                  0x00010a98   Data           0  QCA6174_SCAQBAFM.sym ABSOLUTE
    PFAL_LC_ExtendedInquiryCheck             0x00010a9c   Data           0  QCA6174_SCAQBAFM.sym ABSOLUTE
    PFAL_LC_procRxExtInqData                 0x00010aa0   Data           0  QCA6174_SCAQBAFM.sym ABSOLUTE
    PFAL_LC_SetExtInqFirstHalfSlotRx         0x00010aa4   Data           0  QCA6174_SCAQBAFM.sym ABSOLUTE
    PFAL_LC_GetExtInqFirstHalfSlotRx         0x00010aa8   Data           0  QCA6174_SCAQBAFM.sym ABSOLUTE
    PFAL_LC_SetExtAccessFunctions            0x00010aac   Data           0  QCA6174_SCAQBAFM.sym ABSOLUTE
    PFAL_LC_ContextFrame_LE_SCAN             0x00010ab0   Data           0  QCA6174_SCAQBAFM.sym ABSOLUTE
    PFAL_LC_ContextRx_LE_SCAN                0x00010ab4   Data           0  QCA6174_SCAQBAFM.sym ABSOLUTE
    PFAL_LC_ContextRx_LE_TEST_RX_SCAN        0x00010ab8   Data           0  QCA6174_SCAQBAFM.sym ABSOLUTE
    PFAL_LC_ContextRx_LE_SCAN_SCAN_REQ       0x00010abc   Data           0  QCA6174_SCAQBAFM.sym ABSOLUTE
    PFAL_LC_ContextRx_LE_ADVERTISE           0x00010ac0   Data           0  QCA6174_SCAQBAFM.sym ABSOLUTE
    PFAL_LC_ContextRx_LE_CONN_SLAVE_SYNC     0x00010ac4   Data           0  QCA6174_SCAQBAFM.sym ABSOLUTE
    PFAL_LC_ContextRx_LE_CONN_SLAVE          0x00010ac8   Data           0  QCA6174_SCAQBAFM.sym ABSOLUTE
    PFAL_LC_ContextRx_LE_CONN_MASTER         0x00010acc   Data           0  QCA6174_SCAQBAFM.sym ABSOLUTE
    PFAL_LC_ContextFrame_LE_ADVERTISE        0x00010ad0   Data           0  QCA6174_SCAQBAFM.sym ABSOLUTE
    PFAL_LC_ContextFrame_LE_CONN             0x00010ad4   Data           0  QCA6174_SCAQBAFM.sym ABSOLUTE
    PFAL_LC_ContextFrame_LE_TEST             0x00010ad8   Data           0  QCA6174_SCAQBAFM.sym ABSOLUTE
    PFAL_LC_ContextTx_LE_TEST_TX             0x00010adc   Data           0  QCA6174_SCAQBAFM.sym ABSOLUTE
    PFAL_LC_ContextTx_LE_ADVERTISE           0x00010ae0   Data           0  QCA6174_SCAQBAFM.sym ABSOLUTE
    PFAL_LC_ContextTx_LE_CONN                0x00010ae4   Data           0  QCA6174_SCAQBAFM.sym ABSOLUTE
    PFAL_LC_ContextTx_LE_SCAN_ACTIVE         0x00010ae8   Data           0  QCA6174_SCAQBAFM.sym ABSOLUTE
    PFAL_LC_LE_putAdvPacket                  0x00010aec   Data           0  QCA6174_SCAQBAFM.sym ABSOLUTE
    PFAL_LC_LE_putScanReqPacket              0x00010af0   Data           0  QCA6174_SCAQBAFM.sym ABSOLUTE
    PFAL_LC_LE_putScanRspPacket              0x00010af4   Data           0  QCA6174_SCAQBAFM.sym ABSOLUTE
    PFAL_LC_LE_putConnectReqPacket           0x00010af8   Data           0  QCA6174_SCAQBAFM.sym ABSOLUTE
    PFAL_LC_LE_putConnParmsInConnectReqPacket 0x00010afc   Data           0  QCA6174_SCAQBAFM.sym ABSOLUTE
    PFAL_LC_LE_writeDataChanPDU_Hdr          0x00010b00   Data           0  QCA6174_SCAQBAFM.sym ABSOLUTE
    PFAL_LC_LE_writeTestTxPacket             0x00010b04   Data           0  QCA6174_SCAQBAFM.sym ABSOLUTE
    PFAL_LC_LE_procRxAdvChanHeader           0x00010b08   Data           0  QCA6174_SCAQBAFM.sym ABSOLUTE
    PFAL_LC_LE_getAdvPayloadPtr              0x00010b0c   Data           0  QCA6174_SCAQBAFM.sym ABSOLUTE
    PFAL_LC_LE_procRxAdvPayload              0x00010b10   Data           0  QCA6174_SCAQBAFM.sym ABSOLUTE
    PFAL_LC_LE_procRxAdvConnectReqAdd        0x00010b14   Data           0  QCA6174_SCAQBAFM.sym ABSOLUTE
    PFAL_LC_LE_procRxDataChan_PDUheader      0x00010b18   Data           0  QCA6174_SCAQBAFM.sym ABSOLUTE
    PFAL_LC_LE_computeClockOffset            0x00010b1c   Data           0  QCA6174_SCAQBAFM.sym ABSOLUTE
    PFAL_LC_LE_EnableRxHwTestMode            0x00010b20   Data           0  QCA6174_SCAQBAFM.sym ABSOLUTE
    PFAL_LC_LE_DisableRxHwTestMode           0x00010b24   Data           0  QCA6174_SCAQBAFM.sym ABSOLUTE
    PFAL_LC_ANT_writeTestTxPacket            0x00010b28   Data           0  QCA6174_SCAQBAFM.sym ABSOLUTE
    PFAL_LC_ANT_exitANTMode                  0x00010b2c   Data           0  QCA6174_SCAQBAFM.sym ABSOLUTE
    PFAL_LC_ContextFrame_ANT                 0x00010b30   Data           0  QCA6174_SCAQBAFM.sym ABSOLUTE
    PFAL_LC_ContextTx_ANT_TX                 0x00010b34   Data           0  QCA6174_SCAQBAFM.sym ABSOLUTE
    PFAL_LC_ContextRx_ANT_RX_SCAN            0x00010b38   Data           0  QCA6174_SCAQBAFM.sym ABSOLUTE
    PFAL_LC_SET_ENCR_CNTRL_CRYPTO_W_MIC_ENABLE 0x00010b3c   Data           0  QCA6174_SCAQBAFM.sym ABSOLUTE
    OSTaskIdleHook                           0x00010b40   Data           0  QCA6174_SCAQBAFM.sym ABSOLUTE
    PFAL_STMR_Handler                        0x00010b44   Data           0  QCA6174_SCAQBAFM.sym ABSOLUTE
    PFAL_STMR_Open                           0x00010b48   Data           0  QCA6174_SCAQBAFM.sym ABSOLUTE
    PFAL_STMR_ConvertToTicks                 0x00010b4c   Data           0  QCA6174_SCAQBAFM.sym ABSOLUTE
    PFAL_STMR_Start                          0x00010b50   Data           0  QCA6174_SCAQBAFM.sym ABSOLUTE
    PFAL_STMR_GetElapsedTicks                0x00010b54   Data           0  QCA6174_SCAQBAFM.sym ABSOLUTE
    PFAL_SYS_TOP_IsWiPowerFastbootEnabled    0x00010b58   Data           0  QCA6174_SCAQBAFM.sym ABSOLUTE
    PFAL_SYS_TOP_IsBootModeWiPower           0x00010b5c   Data           0  QCA6174_SCAQBAFM.sym ABSOLUTE
    PFAL_SYS_TOP_IsCoexMCIEnable             0x00010b60   Data           0  QCA6174_SCAQBAFM.sym ABSOLUTE
    PFAL_SYS_TOP_WLAN_SDIO                   0x00010b64   Data           0  QCA6174_SCAQBAFM.sym ABSOLUTE
    PFAL_SYS_TOP_IsEmulation                 0x00010b68   Data           0  QCA6174_SCAQBAFM.sym ABSOLUTE
    PFAL_SYS_TOP_IsRMPhyMode                 0x00010b6c   Data           0  QCA6174_SCAQBAFM.sym ABSOLUTE
    PFAL_SYS_TOP_LoadDSet                    0x00010b70   Data           0  QCA6174_SCAQBAFM.sym ABSOLUTE
    PFAL_SYS_TOP_StoreToOTP                  0x00010b74   Data           0  QCA6174_SCAQBAFM.sym ABSOLUTE
    PFAL_SYS_TOP_StoreToNVM                  0x00010b78   Data           0  QCA6174_SCAQBAFM.sym ABSOLUTE
    PFAL_SYS_TOP_IsTuffeloSoC                0x00010b7c   Data           0  QCA6174_SCAQBAFM.sym ABSOLUTE
    PFAL_UART_Rx_Handler                     0x00010b80   Data           0  QCA6174_SCAQBAFM.sym ABSOLUTE
    PFAL_UART_Tx_Handler                     0x00010b84   Data           0  QCA6174_SCAQBAFM.sym ABSOLUTE
    PFAL_UART_Er_Handler                     0x00010b88   Data           0  QCA6174_SCAQBAFM.sym ABSOLUTE
    PFAL_IM_TIMER_2_INT_Handler              0x00010b8c   Data           0  QCA6174_SCAQBAFM.sym ABSOLUTE
    PFAL_UART_SetCTS_Mode                    0x00010b90   Data           0  QCA6174_SCAQBAFM.sym ABSOLUTE
    PFAL_VOICE_UART_Fill_Rx_SCO_Buff         0x00010b94   Data           0  QCA6174_SCAQBAFM.sym ABSOLUTE
    PFAL_UART_Rx_ISR                         0x00010b98   Data           0  QCA6174_SCAQBAFM.sym ABSOLUTE
    PFAL_UART_Tx_ISR                         0x00010b9c   Data           0  QCA6174_SCAQBAFM.sym ABSOLUTE
    PFAL_UART_Error_ISR                      0x00010ba0   Data           0  QCA6174_SCAQBAFM.sym ABSOLUTE
    PFAL_UART_HandlePacketFromHost           0x00010ba4   Data           0  QCA6174_SCAQBAFM.sym ABSOLUTE
    PFAL_UART_Activate                       0x00010ba8   Data           0  QCA6174_SCAQBAFM.sym ABSOLUTE
    PFAL_UART_Deactivate                     0x00010bac   Data           0  QCA6174_SCAQBAFM.sym ABSOLUTE
    PFAL_UART_fillRxLL                       0x00010bb0   Data           0  QCA6174_SCAQBAFM.sym ABSOLUTE
    PFAL_UART_fillTxLL                       0x00010bb4   Data           0  QCA6174_SCAQBAFM.sym ABSOLUTE
    PFAL_UART_InitRxActiveState              0x00010bb8   Data           0  QCA6174_SCAQBAFM.sym ABSOLUTE
    PFAL_UART_GetBaudRateFromNVM             0x00010bbc   Data           0  QCA6174_SCAQBAFM.sym ABSOLUTE
    PFAL_UART_Setup                          0x00010bc0   Data           0  QCA6174_SCAQBAFM.sym ABSOLUTE
    PFAL_UART_ResetBaud                      0x00010bc4   Data           0  QCA6174_SCAQBAFM.sym ABSOLUTE
    PFAL_UART_HW_wait4Tx                     0x00010bc8   Data           0  QCA6174_SCAQBAFM.sym ABSOLUTE
    PFAL_UART_IOMUX                          0x00010bcc   Data           0  QCA6174_SCAQBAFM.sym ABSOLUTE
    PFAL_UART_SIBS_SendSignalingByte         0x00010bd0   Data           0  QCA6174_SCAQBAFM.sym ABSOLUTE
    PFAL_UART_SIBS_VoteRxWake                0x00010bd4   Data           0  QCA6174_SCAQBAFM.sym ABSOLUTE
    PFAL_UART_SIBS_TxIdle                    0x00010bd8   Data           0  QCA6174_SCAQBAFM.sym ABSOLUTE
    PFAL_UART_SIBS_TxWakeAckRcvd             0x00010bdc   Data           0  QCA6174_SCAQBAFM.sym ABSOLUTE
    PFAL_UART_SIBS_TxTimeout                 0x00010be0   Data           0  QCA6174_SCAQBAFM.sym ABSOLUTE
    PFAL_UART_SIBS_TxRequest                 0x00010be4   Data           0  QCA6174_SCAQBAFM.sym ABSOLUTE
    PFAL_UART_SIBS_RxWake                    0x00010be8   Data           0  QCA6174_SCAQBAFM.sym ABSOLUTE
    PFAL_UART_SIBS_RxWakeInt                 0x00010bec   Data           0  QCA6174_SCAQBAFM.sym ABSOLUTE
    PFAL_UART_SIBS_RxTimeout                 0x00010bf0   Data           0  QCA6174_SCAQBAFM.sym ABSOLUTE
    PFAL_UART_SIBS_RxSleep                   0x00010bf4   Data           0  QCA6174_SCAQBAFM.sym ABSOLUTE
    PFAL_UART_SIBS_ExtWakeISR                0x00010bf8   Data           0  QCA6174_SCAQBAFM.sym ABSOLUTE
    PFAL_UART_SIBS_TimeoutIsr                0x00010bfc   Data           0  QCA6174_SCAQBAFM.sym ABSOLUTE
    PFAL_UART_SIBS_StartTimer                0x00010c00   Data           0  QCA6174_SCAQBAFM.sym ABSOLUTE
    PFAL_UART_SIBS_StopTimer                 0x00010c04   Data           0  QCA6174_SCAQBAFM.sym ABSOLUTE
    CFG_SYS_Init                             0x00010c08   Data           0  QCA6174_SCAQBAFM.sym ABSOLUTE
    CFG_SYS_GetConfigParameterInfo           0x00010c0c   Data           0  QCA6174_SCAQBAFM.sym ABSOLUTE
    CFG_SYS_GetTagEntry                      0x00010c10   Data           0  QCA6174_SCAQBAFM.sym ABSOLUTE
    WIP_VTXP_HandOffToHost                   0x00010c14   Data           0  QCA6174_SCAQBAFM.sym ABSOLUTE
    WIP_VTXP_HandOffToVirtualTxp             0x00010c18   Data           0  QCA6174_SCAQBAFM.sym ABSOLUTE
    WIP_VTXP_Write                           0x00010c1c   Data           0  QCA6174_SCAQBAFM.sym ABSOLUTE
    WIP_VTXP_SendReset                       0x00010c20   Data           0  QCA6174_SCAQBAFM.sym ABSOLUTE
    WIP_VTXP_SendCommand                     0x00010c24   Data           0  QCA6174_SCAQBAFM.sym ABSOLUTE
    WIP_VTXP_SendEventToBleStack             0x00010c28   Data           0  QCA6174_SCAQBAFM.sym ABSOLUTE
    WIP_VTXP_SendAclDataToBleStack           0x00010c2c   Data           0  QCA6174_SCAQBAFM.sym ABSOLUTE
    PackA4wpCommandHeader                    0x00010c30   Data           0  QCA6174_SCAQBAFM.sym ABSOLUTE
    WIP_VTXP_GetTxpMsgAtomic                 0x00010c34   Data           0  QCA6174_SCAQBAFM.sym ABSOLUTE
    WIP_VTXP_SendAclDataFromBleStack         0x00010c38   Data           0  QCA6174_SCAQBAFM.sym ABSOLUTE
    WIP_VTXP_A4WP_SetCurrentLimit            0x00010c3c   Data           0  QCA6174_SCAQBAFM.sym ABSOLUTE
    WIP_VTXP_A4WP_SetChargeOutput            0x00010c40   Data           0  QCA6174_SCAQBAFM.sym ABSOLUTE
    WIP_VTXP_A4WP_EnableAlertNotify          0x00010c44   Data           0  QCA6174_SCAQBAFM.sym ABSOLUTE
    WIP_VTXP_A4WP_EnableDataNotify           0x00010c48   Data           0  QCA6174_SCAQBAFM.sym ABSOLUTE
    WIP_VTXP_A4WP_EnablePowerApplyNotify     0x00010c4c   Data           0  QCA6174_SCAQBAFM.sym ABSOLUTE
    WIP_VTXP_A4WP_GetCurrentLimit            0x00010c50   Data           0  QCA6174_SCAQBAFM.sym ABSOLUTE
    WIP_VTXP_A4WP_GetChargeOutput            0x00010c54   Data           0  QCA6174_SCAQBAFM.sym ABSOLUTE
    WIP_VTXP_HandlePacketIn                  0x00010c58   Data           0  QCA6174_SCAQBAFM.sym ABSOLUTE
    WIP_DBG_LogDbgData                       0x00010c5c   Data           0  QCA6174_SCAQBAFM.sym ABSOLUTE
    WIP_DBG_SendDbgEvent                     0x00010c60   Data           0  QCA6174_SCAQBAFM.sym ABSOLUTE
    WIP_DBG_DeInitMem                        0x00010c64   Data           0  QCA6174_SCAQBAFM.sym ABSOLUTE
    WIP_DBG_SendEventViaDbgChannel           0x00010c68   Data           0  QCA6174_SCAQBAFM.sym ABSOLUTE
    WIP_DBG_SendCommandCompleteEventViaDbgChannel 0x00010c6c   Data           0  QCA6174_SCAQBAFM.sym ABSOLUTE
    WIP_DBG_GetNextLogEvent                  0x00010c70   Data           0  QCA6174_SCAQBAFM.sym ABSOLUTE
    PFAL_COEX_MCI_Get_Starttime              0x00010c74   Data           0  QCA6174_SCAQBAFM.sym ABSOLUTE
    PFAL_COEX_MCI_Next_JobCat_Proc           0x00010c78   Data           0  QCA6174_SCAQBAFM.sym ABSOLUTE
    MCI_Schd_Update                          0x00010c7c   Data           0  QCA6174_SCAQBAFM.sym ABSOLUTE
    MCI_Schd_Delete_Expire                   0x00010c80   Data           0  QCA6174_SCAQBAFM.sym ABSOLUTE
    MCI_Schd_Update_Msg                      0x00010c84   Data           0  QCA6174_SCAQBAFM.sym ABSOLUTE
    MCI_Schd_Insert_Msg                      0x00010c88   Data           0  QCA6174_SCAQBAFM.sym ABSOLUTE
    MCI_Schd_Get_Resend_Max                  0x00010c8c   Data           0  QCA6174_SCAQBAFM.sym ABSOLUTE
    MCI_Schd_Do_Resend                       0x00010c90   Data           0  QCA6174_SCAQBAFM.sym ABSOLUTE
    MCI_Schd_CheckTag                        0x00010c94   Data           0  QCA6174_SCAQBAFM.sym ABSOLUTE
    MCI_Schd_Gen_Entry                       0x00010c98   Data           0  QCA6174_SCAQBAFM.sym ABSOLUTE
    MCI_Schd_Send_Msg                        0x00010c9c   Data           0  QCA6174_SCAQBAFM.sym ABSOLUTE
    MCI_Submit_Sched_Msg                     0x00010ca0   Data           0  QCA6174_SCAQBAFM.sym ABSOLUTE
    PFAL_COEX_MCI_Schd_Next_Frame            0x00010ca4   Data           0  QCA6174_SCAQBAFM.sym ABSOLUTE
    MCI_Msg_Queue_Free                       0x00010ca8   Data           0  QCA6174_SCAQBAFM.sym ABSOLUTE
    MCI_Empty_Tx_Queue                       0x00010cac   Data           0  QCA6174_SCAQBAFM.sym ABSOLUTE
    MCI_Tx_Msg_Enqueue                       0x00010cb0   Data           0  QCA6174_SCAQBAFM.sym ABSOLUTE
    MCI_Tx_Msg_Dequeue                       0x00010cb4   Data           0  QCA6174_SCAQBAFM.sym ABSOLUTE
    MCI_Msg_Queue_Alloc                      0x00010cb8   Data           0  QCA6174_SCAQBAFM.sym ABSOLUTE
    MCI_GPM_Queue_Overflow_Handle            0x00010cbc   Data           0  QCA6174_SCAQBAFM.sym ABSOLUTE
    PFAL_COEX_MCI_TxScanUpdate               0x00010cc0   Data           0  QCA6174_SCAQBAFM.sym ABSOLUTE
    PFAL_COEX_MCI_TxConnUpdate               0x00010cc4   Data           0  QCA6174_SCAQBAFM.sym ABSOLUTE
    MCI_ProcessStatusReq                     0x00010cc8   Data           0  QCA6174_SCAQBAFM.sym ABSOLUTE
    MCI_UpdateTopology                       0x00010ccc   Data           0  QCA6174_SCAQBAFM.sym ABSOLUTE
    MCI_ProcessVersionReq                    0x00010cd0   Data           0  QCA6174_SCAQBAFM.sym ABSOLUTE
    MCI_TxDebugGPM                           0x00010cd4   Data           0  QCA6174_SCAQBAFM.sym ABSOLUTE
    MCI_TxWlanBTPrio                         0x00010cd8   Data           0  QCA6174_SCAQBAFM.sym ABSOLUTE
    MCI_TxSchedMsgTrigRsp                    0x00010cdc   Data           0  QCA6174_SCAQBAFM.sym ABSOLUTE
    MCI_ReplyRXSSLowerThresholdToWLAN        0x00010ce0   Data           0  QCA6174_SCAQBAFM.sym ABSOLUTE
    PFAL_COEX_MCI_Update_Scan_Bit_Map        0x00010ce4   Data           0  QCA6174_SCAQBAFM.sym ABSOLUTE
    MCI_Queue_Overflow_GPM                   0x00010ce8   Data           0  QCA6174_SCAQBAFM.sym ABSOLUTE
    MCI_Scans_Upadate                        0x00010cec   Data           0  QCA6174_SCAQBAFM.sym ABSOLUTE
    MCI_SetRXSSLowerThreshold                0x00010cf0   Data           0  QCA6174_SCAQBAFM.sym ABSOLUTE
    MCI_ProcessWLANChan                      0x00010cf4   Data           0  QCA6174_SCAQBAFM.sym ABSOLUTE
    MCI_ProcessSchedInfoTrigger              0x00010cf8   Data           0  QCA6174_SCAQBAFM.sym ABSOLUTE
    MCI_ProcessRecievedGPM                   0x00010cfc   Data           0  QCA6174_SCAQBAFM.sym ABSOLUTE
    PFAL_IM_MCI_INT_Handler                  0x00010d00   Data           0  QCA6174_SCAQBAFM.sym ABSOLUTE
    PFAL_IM_BT_MCI_POWER_INT_Handler         0x00010d04   Data           0  QCA6174_SCAQBAFM.sym ABSOLUTE
    PFAL_COEX_MCI_Send_Remote_Reset_Msg      0x00010d08   Data           0  QCA6174_SCAQBAFM.sym ABSOLUTE
    MCI_UpdateLinkStatus                     0x00010d0c   Data           0  QCA6174_SCAQBAFM.sym ABSOLUTE
    MCI_Schd_Readjust_Prio                   0x00010d10   Data           0  QCA6174_SCAQBAFM.sym ABSOLUTE
    MCI_SCO_Prio_Convert                     0x00010d14   Data           0  QCA6174_SCAQBAFM.sym ABSOLUTE
    MCI_ACL_Prio_Convert                     0x00010d18   Data           0  QCA6174_SCAQBAFM.sym ABSOLUTE
    MCI_Prio_Convert                         0x00010d1c   Data           0  QCA6174_SCAQBAFM.sym ABSOLUTE
    PFAL_COEX_MCI_CAL_Notify                 0x00010d20   Data           0  QCA6174_SCAQBAFM.sym ABSOLUTE
    PFAL_COEX_MCI_BT_CAL_Grant_TX            0x00010d24   Data           0  QCA6174_SCAQBAFM.sym ABSOLUTE
    PFAL_COEX_MCI_Schedule_MSG_Check         0x00010d28   Data           0  QCA6174_SCAQBAFM.sym ABSOLUTE
    PFAL_COEX_MCI_Send_Schedule_MSG          0x00010d2c   Data           0  QCA6174_SCAQBAFM.sym ABSOLUTE
    PFAL_COEX_MCI_INFO_Copy                  0x00010d30   Data           0  QCA6174_SCAQBAFM.sym ABSOLUTE
    PFAL_COEX_MCI_Find_MSG_Before            0x00010d34   Data           0  QCA6174_SCAQBAFM.sym ABSOLUTE
    PFAL_COEX_MCI_Clean_Para                 0x00010d38   Data           0  QCA6174_SCAQBAFM.sym ABSOLUTE
    PFAL_COEX_MCI_PRIO_SET                   0x00010d3c   Data           0  QCA6174_SCAQBAFM.sym ABSOLUTE
    PFAL_COEX_MCI_CONTMSG_SET                0x00010d40   Data           0  QCA6174_SCAQBAFM.sym ABSOLUTE
    MCI_Schd_Resend_Check_Set                0x00010d44   Data           0  QCA6174_SCAQBAFM.sym ABSOLUTE
    MCI_Enqueue_Msg                          0x00010d48   Data           0  QCA6174_SCAQBAFM.sym ABSOLUTE
    MCI_Send_Queued_Msg                      0x00010d4c   Data           0  QCA6174_SCAQBAFM.sym ABSOLUTE
    PFAL_COEX_MCI_TxBTSystemReset            0x00010d50   Data           0  QCA6174_SCAQBAFM.sym ABSOLUTE
    MCI_Parse_Gpm                            0x00010d54   Data           0  QCA6174_SCAQBAFM.sym ABSOLUTE
    PFAL_COEX_MCI_ProfileRemove              0x00010d58   Data           0  QCA6174_SCAQBAFM.sym ABSOLUTE
    PFAL_COEX_MCI_ProfileAdd                 0x00010d5c   Data           0  QCA6174_SCAQBAFM.sym ABSOLUTE
    MCI_TxVersionReq                         0x00010d60   Data           0  QCA6174_SCAQBAFM.sym ABSOLUTE
    MCI_TxStatusReq                          0x00010d64   Data           0  QCA6174_SCAQBAFM.sym ABSOLUTE
    MCI_SendSchedTriggerResp                 0x00010d68   Data           0  QCA6174_SCAQBAFM.sym ABSOLUTE
    PFAL_COEX_MCI_TxScanActivity             0x00010d6c   Data           0  QCA6174_SCAQBAFM.sym ABSOLUTE
    PFAL_COEX_MCI_Connect                    0x00010d70   Data           0  QCA6174_SCAQBAFM.sym ABSOLUTE
    PFAL_COEX_MCI_Init                       0x00010d74   Data           0  QCA6174_SCAQBAFM.sym ABSOLUTE
    MCI_SendRemoteResetIfWarranted           0x00010d78   Data           0  QCA6174_SCAQBAFM.sym ABSOLUTE
    PFAL_COEX_MCI_UpdatePerformanceState     0x00010d7c   Data           0  QCA6174_SCAQBAFM.sym ABSOLUTE
    PFAL_COEX_MCI_UpdatexSCOMap              0x00010d80   Data           0  QCA6174_SCAQBAFM.sym ABSOLUTE
    PFAL_COEX_MCI_UpdateSniffMapActivity     0x00010d84   Data           0  QCA6174_SCAQBAFM.sym ABSOLUTE
    PFAL_COEX_MCI_UpdateSniffMap             0x00010d88   Data           0  QCA6174_SCAQBAFM.sym ABSOLUTE
    PFAL_COEX_MCI_TrackPageScanInterval      0x00010d8c   Data           0  QCA6174_SCAQBAFM.sym ABSOLUTE
    PFAL_COEX_MCI_BT_CAL_Done_TX             0x00010d90   Data           0  QCA6174_SCAQBAFM.sym ABSOLUTE
    PFAL_COEX_MCI_CHECK_WLAN_CAL_GRANT       0x00010d94   Data           0  QCA6174_SCAQBAFM.sym ABSOLUTE
    PFAL_COEX_MCI_TX_REQ                     0x00010d98   Data           0  QCA6174_SCAQBAFM.sym ABSOLUTE
    PFAL_COEX_MCI_RX_REQ                     0x00010d9c   Data           0  QCA6174_SCAQBAFM.sym ABSOLUTE
    PFAL_COEX_MCI_Prediction_Thread          0x00010da0   Data           0  QCA6174_SCAQBAFM.sym ABSOLUTE
    PFAL_COEX_MCI_Prediction                 0x00010da4   Data           0  QCA6174_SCAQBAFM.sym ABSOLUTE
    PFAL_COEX_MCI_Schedule                   0x00010da8   Data           0  QCA6174_SCAQBAFM.sym ABSOLUTE
    PFAL_COEX_MCI_Wake_Up                    0x00010dac   Data           0  QCA6174_SCAQBAFM.sym ABSOLUTE
    PFAL_COEX_MCI_SetOsInit                  0x00010db0   Data           0  QCA6174_SCAQBAFM.sym ABSOLUTE
    PFAL_RM_HW_CoexistenceGrantRequestMCI    0x00010db4   Data           0  QCA6174_SCAQBAFM.sym ABSOLUTE
    PFAL_COEX_MWS_Disable_Algorithm          0x00010db8   Data           0  QCA6174_SCAQBAFM.sym ABSOLUTE
    PFAL_COEX_MWS_ProcBandInfo               0x00010dbc   Data           0  QCA6174_SCAQBAFM.sym ABSOLUTE
    PFAL_COEX_MWS_Calc_SWITCH_Time           0x00010dc0   Data           0  QCA6174_SCAQBAFM.sym ABSOLUTE
    PFAL_COEX_MWS_Get_TargetCLK              0x00010dc4   Data           0  QCA6174_SCAQBAFM.sym ABSOLUTE
    PFAL_COEX_MWS_Calc_Delta                 0x00010dc8   Data           0  QCA6174_SCAQBAFM.sym ABSOLUTE
    PFAL_COEX_MWS_Pwr_Backoff_TxPwrLimit_Default 0x00010dcc   Data           0  QCA6174_SCAQBAFM.sym ABSOLUTE
    SLC_Timestamp_getArrival                 0x00010dd0   Data           0  QCA6174_SCAQBAFM.sym ABSOLUTE
    PFLA_COEX_MWS_A2DP_Pwr_Backoff_Calculation 0x00010dd4   Data           0  QCA6174_SCAQBAFM.sym ABSOLUTE
    PFLA_COEX_MWS_eSCO_Pwr_Backoff_Calculation 0x00010dd8   Data           0  QCA6174_SCAQBAFM.sym ABSOLUTE
    PFAL_COEX_MWS_Pwr_Backoff_Timer_handler  0x00010ddc   Data           0  QCA6174_SCAQBAFM.sym ABSOLUTE
    PFAL_COEX_MWS_BtTxPwrLimit               0x00010de0   Data           0  QCA6174_SCAQBAFM.sym ABSOLUTE
    PFAL_COEX_MWS_updateAFHMap_4_LTEchan     0x00010de4   Data           0  QCA6174_SCAQBAFM.sym ABSOLUTE
    PFAL_COEX_MWS_HandleLteChanMapUpdate     0x00010de8   Data           0  QCA6174_SCAQBAFM.sym ABSOLUTE
    LLM_MWS_CP_handleSetLinkPolicySettings   0x00010dec   Data           0  QCA6174_SCAQBAFM.sym ABSOLUTE
    LLM_MWS_CP_handleRoleSwitch2Master       0x00010df0   Data           0  QCA6174_SCAQBAFM.sym ABSOLUTE
    wci2_decode_sync_req                     0x00010df4   Data           0  QCA6174_SCAQBAFM.sym ABSOLUTE
    wci2_sync_resp_encode_send               0x00010df8   Data           0  QCA6174_SCAQBAFM.sym ABSOLUTE
    wci2_decode_sync_resp                    0x00010dfc   Data           0  QCA6174_SCAQBAFM.sym ABSOLUTE
    wci2_decode_tech_update_req              0x00010e00   Data           0  QCA6174_SCAQBAFM.sym ABSOLUTE
    wci2_decode_state_ind                    0x00010e04   Data           0  QCA6174_SCAQBAFM.sym ABSOLUTE
    PFAL_COEX_MWS_DEBUG_PrintfBitMap         0x00010e08   Data           0  QCA6174_SCAQBAFM.sym ABSOLUTE
    LTE_SubFrameType                         0x00010e0c   Data           0  QCA6174_SCAQBAFM.sym ABSOLUTE
    LTE_FreqPowerTable                       0x00010e68   Data           0  QCA6174_SCAQBAFM.sym ABSOLUTE
    PFAL_COEX_MWS_Pwr_Backoff_Init           0x00010e80   Data           0  QCA6174_SCAQBAFM.sym ABSOLUTE
    PFAL_COEX_MWS_Pwr_Backoff_Calc_TXFER     0x00010e84   Data           0  QCA6174_SCAQBAFM.sym ABSOLUTE
    PFAL_COEX_MWS_timer_handle               0x00010e88   Data           0  QCA6174_SCAQBAFM.sym ABSOLUTE
    PFAL_COEX_MWS_timer2_handle              0x00010e8c   Data           0  QCA6174_SCAQBAFM.sym ABSOLUTE
    MWS_Block_Master_Role_Switch             0x00010e90   Data           0  QCA6174_SCAQBAFM.sym ABSOLUTE
    MWS_Perform_Role_Switch_2_Master         0x00010e94   Data           0  QCA6174_SCAQBAFM.sym ABSOLUTE
    wci2_type2_route_received_msg            0x00010e98   Data           0  QCA6174_SCAQBAFM.sym ABSOLUTE
    wci2_encode_send_sync_req                0x00010e9c   Data           0  QCA6174_SCAQBAFM.sym ABSOLUTE
    PFAL_COEX_MWS_State_Reset                0x00010ea0   Data           0  QCA6174_SCAQBAFM.sym ABSOLUTE
    PF_OS_Init                               0x00010ea4   Data           0  QCA6174_SCAQBAFM.sym ABSOLUTE
    PF_OS_StartTasks                         0x00010ea8   Data           0  QCA6174_SCAQBAFM.sym ABSOLUTE
    PF_OS_DisableScheduling                  0x00010eac   Data           0  QCA6174_SCAQBAFM.sym ABSOLUTE
    PF_OS_EnableScheduling                   0x00010eb0   Data           0  QCA6174_SCAQBAFM.sym ABSOLUTE
    PF_OS_EnableTask                         0x00010eb4   Data           0  QCA6174_SCAQBAFM.sym ABSOLUTE
    PF_OS_SystemPreReset                     0x00010eb8   Data           0  QCA6174_SCAQBAFM.sym ABSOLUTE
    PF_OS_SystemReset                        0x00010ebc   Data           0  QCA6174_SCAQBAFM.sym ABSOLUTE
    PF_OS_SystemReady                        0x00010ec0   Data           0  QCA6174_SCAQBAFM.sym ABSOLUTE
    PF_OS_InitFMBPool                        0x00010ec4   Data           0  QCA6174_SCAQBAFM.sym ABSOLUTE
    PF_OS_AllocMem                           0x00010ec8   Data           0  QCA6174_SCAQBAFM.sym ABSOLUTE
    PF_OS_FreeMem                            0x00010ecc   Data           0  QCA6174_SCAQBAFM.sym ABSOLUTE
    PF_OS_EnqueueMsgEx                       0x00010ed0   Data           0  QCA6174_SCAQBAFM.sym ABSOLUTE
    PF_OS_EnqueueMsgEx_LIFO                  0x00010ed4   Data           0  QCA6174_SCAQBAFM.sym ABSOLUTE
    PF_OS_EnqueueQueueEx                     0x00010ed8   Data           0  QCA6174_SCAQBAFM.sym ABSOLUTE
    PF_OS_DequeueMsgEx                       0x00010edc   Data           0  QCA6174_SCAQBAFM.sym ABSOLUTE
    PF_OS_DequeueMsgExAt                     0x00010ee0   Data           0  QCA6174_SCAQBAFM.sym ABSOLUTE
    PF_OS_FreeAllQueueMsgEx                  0x00010ee4   Data           0  QCA6174_SCAQBAFM.sym ABSOLUTE
    PF_OS_FreeNQueueMsgEx                    0x00010ee8   Data           0  QCA6174_SCAQBAFM.sym ABSOLUTE
    PF_OS_StartTimer                         0x00010eec   Data           0  QCA6174_SCAQBAFM.sym ABSOLUTE
    PF_OS_StopTimer                          0x00010ef0   Data           0  QCA6174_SCAQBAFM.sym ABSOLUTE
    PF_OS_ProcessTimer                       0x00010ef4   Data           0  QCA6174_SCAQBAFM.sym ABSOLUTE
    PF_OS_DequeueTimer                       0x00010ef8   Data           0  QCA6174_SCAQBAFM.sym ABSOLUTE
    PF_OS_InitMalloc                         0x00010efc   Data           0  QCA6174_SCAQBAFM.sym ABSOLUTE
    PF_OS_Malloc                             0x00010f00   Data           0  QCA6174_SCAQBAFM.sym ABSOLUTE
    PF_OS_MallocWordAligned                  0x00010f04   Data           0  QCA6174_SCAQBAFM.sym ABSOLUTE
    PF_PROC_DelayMS                          0x00010f08   Data           0  QCA6174_SCAQBAFM.sym ABSOLUTE
    HCI_SendStatus                           0x00010f0c   Data           0  QCA6174_SCAQBAFM.sym ABSOLUTE
    HCI_SendTLVStatus                        0x00010f10   Data           0  QCA6174_SCAQBAFM.sym ABSOLUTE
    HCI_SendVersionString                    0x00010f14   Data           0  QCA6174_SCAQBAFM.sym ABSOLUTE
    HCI_SendVersionInteger                   0x00010f18   Data           0  QCA6174_SCAQBAFM.sym ABSOLUTE
    HCI_VSSet_VariableRegParameter           0x00010f1c   Data           0  QCA6174_SCAQBAFM.sym ABSOLUTE
    HCI_VS_ReadVersionInfo                   0x00010f20   Data           0  QCA6174_SCAQBAFM.sym ABSOLUTE
    HCI_VS_ReadActiveRssi                    0x00010f24   Data           0  QCA6174_SCAQBAFM.sym ABSOLUTE
    HCI_Process_VSC_Write_DDB_Key_Entry      0x00010f28   Data           0  QCA6174_SCAQBAFM.sym ABSOLUTE
    HCI_Process_VSC_Read_DDB_Key_Entry_By_Index 0x00010f2c   Data           0  QCA6174_SCAQBAFM.sym ABSOLUTE
    HCI_Process_VSC_Read_DDB_Key_Entry       0x00010f30   Data           0  QCA6174_SCAQBAFM.sym ABSOLUTE
    HCI_Process_VSC_Delete_DDB_Key_Entry     0x00010f34   Data           0  QCA6174_SCAQBAFM.sym ABSOLUTE
    HCI_Process_VSC_Delete_All_DDB_Key_Entry 0x00010f38   Data           0  QCA6174_SCAQBAFM.sym ABSOLUTE
    HCI_Process_VSC_BdAddrWriteCmd           0x00010f3c   Data           0  QCA6174_SCAQBAFM.sym ABSOLUTE
    HCI_Process_VSC_SetFeatureBit            0x00010f40   Data           0  QCA6174_SCAQBAFM.sym ABSOLUTE
    HCI_Process_VSC_ConfigGpio               0x00010f44   Data           0  QCA6174_SCAQBAFM.sym ABSOLUTE
    HCI_Process_VSC_ReadGpio                 0x00010f48   Data           0  QCA6174_SCAQBAFM.sym ABSOLUTE
    HCI_Process_VSC_ReadPSdata               0x00010f4c   Data           0  QCA6174_SCAQBAFM.sym ABSOLUTE
    HCI_Process_VSC_WritePSdata              0x00010f50   Data           0  QCA6174_SCAQBAFM.sym ABSOLUTE
    HCI_sendDebugEventPacket                 0x00010f54   Data           0  QCA6174_SCAQBAFM.sym ABSOLUTE
    CFG_HandleVariableConfigParameter        0x00010f58   Data           0  QCA6174_SCAQBAFM.sym ABSOLUTE
    PFAL_NVM_Parse                           0x00010f5c   Data           0  QCA6174_SCAQBAFM.sym ABSOLUTE
    PFAL_TLV_Start                           0x00010f60   Data           0  QCA6174_SCAQBAFM.sym ABSOLUTE
    PFAL_TLV_Continue                        0x00010f64   Data           0  QCA6174_SCAQBAFM.sym ABSOLUTE
    PFAL_TLV_Done                            0x00010f68   Data           0  QCA6174_SCAQBAFM.sym ABSOLUTE
    PFAL_TLV_Process                         0x00010f6c   Data           0  QCA6174_SCAQBAFM.sym ABSOLUTE
    PFAL_DBG_IsMemoryAccessible              0x00010f70   Data           0  QCA6174_SCAQBAFM.sym ABSOLUTE
    PFAL_ConfigureModulationPowerLevelOverride 0x00010f74   Data           0  QCA6174_SCAQBAFM.sym ABSOLUTE
    PFAL_ConfigureExtendedModulationPowerLevelOverride 0x00010f78   Data           0  QCA6174_SCAQBAFM.sym ABSOLUTE
    PFAL_MemAccess_Command                   0x00010f7c   Data           0  QCA6174_SCAQBAFM.sym ABSOLUTE
    HCI_SendUploadResponse                   0x00010f80   Data           0  QCA6174_SCAQBAFM.sym ABSOLUTE
    PFAL_DBG_VS_GetBufferForTagReturnEvent   0x00010f84   Data           0  QCA6174_SCAQBAFM.sym ABSOLUTE
    PFAL_DBG_HostLogCtrl                     0x00010f88   Data           0  QCA6174_SCAQBAFM.sym ABSOLUTE
    FlashAccess                              0x00010f8c   Data           0  QCA6174_SCAQBAFM.sym ABSOLUTE
    PFAL_DBG_BluetoothCommands               0x00010fb0   Data           0  QCA6174_SCAQBAFM.sym ABSOLUTE
    HCI_VendorCommand                        0x00010fdc   Data           0  QCA6174_SCAQBAFM.sym ABSOLUTE
    PFAL_DBG_SendVSEventWithData             0x00010fe0   Data           0  QCA6174_SCAQBAFM.sym ABSOLUTE
    PFAL_DBG_Bluetooth_sendRSSI_ThresholdEvent 0x00010fe4   Data           0  QCA6174_SCAQBAFM.sym ABSOLUTE
    PFAL_DBG_VS_InstallAppCmdCallback        0x00010fe8   Data           0  QCA6174_SCAQBAFM.sym ABSOLUTE
    TempReverseWriteByteArray                0x00010fec   Data           0  QCA6174_SCAQBAFM.sym ABSOLUTE
    PFAL_LC_CRYPTO_Hlr                       0x00010ff0   Data           0  QCA6174_SCAQBAFM.sym ABSOLUTE
    PFAL_LC_CRYPTO_WriteKeyReverseOrder      0x00011024   Data           0  QCA6174_SCAQBAFM.sym ABSOLUTE
    PFAL_LC_CRYPTO_Platform_Init             0x00011028   Data           0  QCA6174_SCAQBAFM.sym ABSOLUTE
    PFAL_GPIO_Init                           0x0001102c   Data           0  QCA6174_SCAQBAFM.sym ABSOLUTE
    PFAL_GPIO_Mux                            0x00011030   Data           0  QCA6174_SCAQBAFM.sym ABSOLUTE
    PFAL_GPIO_SetInterruptLevel              0x00011034   Data           0  QCA6174_SCAQBAFM.sym ABSOLUTE
    PFAL_GPIO_SetDirection                   0x00011038   Data           0  QCA6174_SCAQBAFM.sym ABSOLUTE
    PFAL_GPIO_ConfigureInterrupt             0x0001103c   Data           0  QCA6174_SCAQBAFM.sym ABSOLUTE
    PFAL_GPIO_EnableInterrupt                0x00011040   Data           0  QCA6174_SCAQBAFM.sym ABSOLUTE
    PFAL_GPIO_DisableInterrupt               0x00011044   Data           0  QCA6174_SCAQBAFM.sym ABSOLUTE
    PFAL_GPIO_AUDIO_IO_Mux                   0x00011048   Data           0  QCA6174_SCAQBAFM.sym ABSOLUTE
    PFAL_GPIO_SPI_IO_Mux                     0x0001104c   Data           0  QCA6174_SCAQBAFM.sym ABSOLUTE
    PFAL_GPIO_I2C_IO_Mux                     0x00011050   Data           0  QCA6174_SCAQBAFM.sym ABSOLUTE
    PFAL_GPIO_DBG_UART_IO_Mux                0x00011054   Data           0  QCA6174_SCAQBAFM.sym ABSOLUTE
    PFAL_GPIO_HCI_UART_IO_Mux                0x00011058   Data           0  QCA6174_SCAQBAFM.sym ABSOLUTE
    PFAL_GPIO_OWI_UART_IO_Mux                0x0001105c   Data           0  QCA6174_SCAQBAFM.sym ABSOLUTE
    PFAL_GPIO_OWI_CheckPinState              0x00011060   Data           0  QCA6174_SCAQBAFM.sym ABSOLUTE
    PFAL_IM_Init                             0x00011064   Data           0  QCA6174_SCAQBAFM.sym ABSOLUTE
    PFAL_IM_Connect                          0x00011068   Data           0  QCA6174_SCAQBAFM.sym ABSOLUTE
    PFAL_IM_ENABLE_IRQ_INT                   0x0001106c   Data           0  QCA6174_SCAQBAFM.sym ABSOLUTE
    PFAL_IM_DISABLE_IRQ_INT                  0x00011070   Data           0  QCA6174_SCAQBAFM.sym ABSOLUTE
    PFAL_IM_ENABLE_MASK_IRQ_INT              0x00011074   Data           0  QCA6174_SCAQBAFM.sym ABSOLUTE
    PFAL_IM_DISABLE_MASK_IRQ_INT             0x00011078   Data           0  QCA6174_SCAQBAFM.sym ABSOLUTE
    PFAL_IM_READ_IRQ_ENABLE                  0x0001107c   Data           0  QCA6174_SCAQBAFM.sym ABSOLUTE
    PFAL_IM_RESTORE_PRI_IRQ_INT              0x00011080   Data           0  QCA6174_SCAQBAFM.sym ABSOLUTE
    PFAL_LC_Start                            0x00011084   Data           0  QCA6174_SCAQBAFM.sym ABSOLUTE
    PFAL_LC_hlstSLC_ContextSwitch            0x00011088   Data           0  QCA6174_SCAQBAFM.sym ABSOLUTE
    PFAL_LC_hlstMConnEntry                   0x0001108c   Data           0  QCA6174_SCAQBAFM.sym ABSOLUTE
    PFAL_LC_hlstMConnSyncEval                0x00011090   Data           0  QCA6174_SCAQBAFM.sym ABSOLUTE
    PFAL_LC_hlstMConnRxHdr1                  0x00011094   Data           0  QCA6174_SCAQBAFM.sym ABSOLUTE
    PFAL_LC_hlstMConnRxHdr2                  0x00011098   Data           0  QCA6174_SCAQBAFM.sym ABSOLUTE
    PFAL_LC_hlstMConnRxHdrDone               0x0001109c   Data           0  QCA6174_SCAQBAFM.sym ABSOLUTE
    PFAL_LC_hlstMConnRxSlot                  0x000110a0   Data           0  QCA6174_SCAQBAFM.sym ABSOLUTE
    PFAL_LC_hlstMConnTxSlot                  0x000110a4   Data           0  QCA6174_SCAQBAFM.sym ABSOLUTE
    PFAL_LC_hlstMConnSkipTx                  0x000110a8   Data           0  QCA6174_SCAQBAFM.sym ABSOLUTE
    PFAL_LC_hlstMConnDummy5                  0x000110ac   Data           0  QCA6174_SCAQBAFM.sym ABSOLUTE
    PFAL_LC_hlstMConnSkipRx                  0x000110b0   Data           0  QCA6174_SCAQBAFM.sym ABSOLUTE
    PFAL_LC_hlstEBCASync                     0x000110b4   Data           0  QCA6174_SCAQBAFM.sym ABSOLUTE
    PFAL_LC_hlstEBCAEntry                    0x000110b8   Data           0  QCA6174_SCAQBAFM.sym ABSOLUTE
    PFAL_LC_hlstEBCADone                     0x000110bc   Data           0  QCA6174_SCAQBAFM.sym ABSOLUTE
    PFAL_LC_hlstMConnDummy2                  0x000110c0   Data           0  QCA6174_SCAQBAFM.sym ABSOLUTE
    PFAL_LC_hlstMContextSwitchLC             0x000110c4   Data           0  QCA6174_SCAQBAFM.sym ABSOLUTE
    PFAL_LC_hlstIDScanSync                   0x000110c8   Data           0  QCA6174_SCAQBAFM.sym ABSOLUTE
    PFAL_LC_hlstIDScanEntry                  0x000110cc   Data           0  QCA6174_SCAQBAFM.sym ABSOLUTE
    PFAL_LC_hlstIDScanRxSearch               0x000110d0   Data           0  QCA6174_SCAQBAFM.sym ABSOLUTE
    PFAL_LC_hlstIDScanWaitPreSlot            0x000110d4   Data           0  QCA6174_SCAQBAFM.sym ABSOLUTE
    PFAL_LC_hlstIDScanWaitLC                 0x000110d8   Data           0  QCA6174_SCAQBAFM.sym ABSOLUTE
    PFAL_LC_hlstIDScanWaitRx                 0x000110dc   Data           0  QCA6174_SCAQBAFM.sym ABSOLUTE
    PFAL_LC_hlstIDScanWaitExtTx              0x000110e0   Data           0  QCA6174_SCAQBAFM.sym ABSOLUTE
    PFAL_LC_hlstIDScanAssocNotifyWaitPreSlotRx 0x000110e4   Data           0  QCA6174_SCAQBAFM.sym ABSOLUTE
    PFAL_LC_hlstIDScanAssocNotifyWaitRx      0x000110e8   Data           0  QCA6174_SCAQBAFM.sym ABSOLUTE
    PFAL_LC_hlstIDScanAssocNotifyRxHdr       0x000110ec   Data           0  QCA6174_SCAQBAFM.sym ABSOLUTE
    PFAL_LC_hlstIDScanAssocNotifyTx          0x000110f0   Data           0  QCA6174_SCAQBAFM.sym ABSOLUTE
    PFAL_LC_hlstSConnEntry                   0x000110f4   Data           0  QCA6174_SCAQBAFM.sym ABSOLUTE
    PFAL_LC_hlstSConnSyncSetup               0x000110f8   Data           0  QCA6174_SCAQBAFM.sym ABSOLUTE
    PFAL_LC_hlstSConnSkipTxD                 0x000110fc   Data           0  QCA6174_SCAQBAFM.sym ABSOLUTE
    PFAL_LC_hlstSConnSkipTx                  0x00011100   Data           0  QCA6174_SCAQBAFM.sym ABSOLUTE
    PFAL_LC_hlstSConnSyncRx                  0x00011104   Data           0  QCA6174_SCAQBAFM.sym ABSOLUTE
    PFAL_LC_hlstSConnEnterRxAck              0x00011108   Data           0  QCA6174_SCAQBAFM.sym ABSOLUTE
    PFAL_LC_hlstSConnEnterRx                 0x0001110c   Data           0  QCA6174_SCAQBAFM.sym ABSOLUTE
    PFAL_LC_hlstSConnRxHdr1                  0x00011110   Data           0  QCA6174_SCAQBAFM.sym ABSOLUTE
    PFAL_LC_hlstSConnRxHdr2                  0x00011114   Data           0  QCA6174_SCAQBAFM.sym ABSOLUTE
    PFAL_LC_hlstSConnRxHdrDone               0x00011118   Data           0  QCA6174_SCAQBAFM.sym ABSOLUTE
    PFAL_LC_hlstSConnSwitchOnPreslot         0x0001111c   Data           0  QCA6174_SCAQBAFM.sym ABSOLUTE
    PFAL_LC_hlstSConnRxSlot                  0x00011120   Data           0  QCA6174_SCAQBAFM.sym ABSOLUTE
    PFAL_LC_hlstSConnDummy                   0x00011124   Data           0  QCA6174_SCAQBAFM.sym ABSOLUTE
    PFAL_LC_hlstSConnTxSlot                  0x00011128   Data           0  QCA6174_SCAQBAFM.sym ABSOLUTE
    PFAL_LC_hlstSConnTxPreSlot               0x0001112c   Data           0  QCA6174_SCAQBAFM.sym ABSOLUTE
    PFAL_LC_hlstSConnTxLC                    0x00011130   Data           0  QCA6174_SCAQBAFM.sym ABSOLUTE
    PFAL_LC_hlstDataScanEntry                0x00011134   Data           0  QCA6174_SCAQBAFM.sym ABSOLUTE
    PFAL_LC_hlstDataScanSync                 0x00011138   Data           0  QCA6174_SCAQBAFM.sym ABSOLUTE
    PFAL_LC_hlstDataScanScan                 0x0001113c   Data           0  QCA6174_SCAQBAFM.sym ABSOLUTE
    PFAL_LC_hlstDataScanRetry                0x00011140   Data           0  QCA6174_SCAQBAFM.sym ABSOLUTE
    PFAL_LC_hlstDataScanReSync               0x00011144   Data           0  QCA6174_SCAQBAFM.sym ABSOLUTE
    PFAL_LC_hlstDataScanNotAlive             0x00011148   Data           0  QCA6174_SCAQBAFM.sym ABSOLUTE
    PFAL_LC_hlstPageTriggerSense             0x0001114c   Data           0  QCA6174_SCAQBAFM.sym ABSOLUTE
    PFAL_LC_hlstPageTriggerTx                0x00011150   Data           0  QCA6174_SCAQBAFM.sym ABSOLUTE
    PFAL_LC_hlstPageTriggerDone              0x00011154   Data           0  QCA6174_SCAQBAFM.sym ABSOLUTE
    PFAL_LC_hlstTrigScan                     0x00011158   Data           0  QCA6174_SCAQBAFM.sym ABSOLUTE
    PFAL_LC_hlstTrigScanDone                 0x0001115c   Data           0  QCA6174_SCAQBAFM.sym ABSOLUTE
    PFAL_LC_hlstLE_TxSyncEval                0x00011160   Data           0  QCA6174_SCAQBAFM.sym ABSOLUTE
    PFAL_LC_hlstLE_DataScanEntry             0x00011164   Data           0  QCA6174_SCAQBAFM.sym ABSOLUTE
    PFAL_LC_hlstLE_DataScanSync              0x00011168   Data           0  QCA6174_SCAQBAFM.sym ABSOLUTE
    PFAL_LC_hlstLE_DataScanScan              0x0001116c   Data           0  QCA6174_SCAQBAFM.sym ABSOLUTE
    PFAL_LC_State_LE_setAbortFlag            0x00011170   Data           0  QCA6174_SCAQBAFM.sym ABSOLUTE
    PFAL_LC_State_LE_checkAbortFlag          0x00011174   Data           0  QCA6174_SCAQBAFM.sym ABSOLUTE
    PFAL_LC_hlstLE_Rx                        0x00011178   Data           0  QCA6174_SCAQBAFM.sym ABSOLUTE
    PFAL_LC_hlstLE_Tx                        0x0001117c   Data           0  QCA6174_SCAQBAFM.sym ABSOLUTE
    PFAL_LC_hlstLE_TestModeEntry             0x00011180   Data           0  QCA6174_SCAQBAFM.sym ABSOLUTE
    PFAL_LC_hlstLE_TestModeActive            0x00011184   Data           0  QCA6174_SCAQBAFM.sym ABSOLUTE
    PFAL_LC_hlstLE_TestModeRxScan            0x00011188   Data           0  QCA6174_SCAQBAFM.sym ABSOLUTE
    PFAL_LC_hlstLE_TestModeRx                0x0001118c   Data           0  QCA6174_SCAQBAFM.sym ABSOLUTE
    PFAL_LC_LE_exitTestMode                  0x00011190   Data           0  QCA6174_SCAQBAFM.sym ABSOLUTE
    PFAL_LC_hlstANT_FrameEntry               0x00011194   Data           0  QCA6174_SCAQBAFM.sym ABSOLUTE
    PFAL_LC_hlstANT_FrameSyncEval            0x00011198   Data           0  QCA6174_SCAQBAFM.sym ABSOLUTE
    PFAL_LC_hlstANT_FrameTxRx                0x0001119c   Data           0  QCA6174_SCAQBAFM.sym ABSOLUTE
    PFAL_LC_hlstANT_RescheduleEntry          0x000111a0   Data           0  QCA6174_SCAQBAFM.sym ABSOLUTE
    PFAL_LC_hlstANT_RescheduleExit           0x000111a4   Data           0  QCA6174_SCAQBAFM.sym ABSOLUTE
    PFAL_LC_hlstSyncTrainScanEntry           0x000111a8   Data           0  QCA6174_SCAQBAFM.sym ABSOLUTE
    PFAL_LC_hlstSyncTrainScanSync            0x000111ac   Data           0  QCA6174_SCAQBAFM.sym ABSOLUTE
    PFAL_LC_hlstSyncTrainScanScan            0x000111b0   Data           0  QCA6174_SCAQBAFM.sym ABSOLUTE
    PFAL_LC_hlstSyncTrainScanDone            0x000111b4   Data           0  QCA6174_SCAQBAFM.sym ABSOLUTE
    PFAL_LC_State_patch_hook                 0x000111b8   Data           0  QCA6174_SCAQBAFM.sym ABSOLUTE
    PFAL_LC_AbortFrame                       0x000111bc   Data           0  QCA6174_SCAQBAFM.sym ABSOLUTE
    PFAL_OS_Init                             0x000111c0   Data           0  QCA6174_SCAQBAFM.sym ABSOLUTE
    PFAL_OS_SignalEvent                      0x000111c4   Data           0  QCA6174_SCAQBAFM.sym ABSOLUTE
    PFAL_OS_WaitEvents                       0x000111c8   Data           0  QCA6174_SCAQBAFM.sym ABSOLUTE
    PFAL_OS_CreateSemas                      0x000111cc   Data           0  QCA6174_SCAQBAFM.sym ABSOLUTE
    PFAL_OS_GrabSema                         0x000111d0   Data           0  QCA6174_SCAQBAFM.sym ABSOLUTE
    PFAL_OS_ReleaseSema                      0x000111d4   Data           0  QCA6174_SCAQBAFM.sym ABSOLUTE
    PFAL_PATCH_SetHeader                     0x000111d8   Data           0  QCA6174_SCAQBAFM.sym ABSOLUTE
    PFAL_PATCH_Attach                        0x000111dc   Data           0  QCA6174_SCAQBAFM.sym ABSOLUTE
    PFAL_PATCH_GlobalDataInit                0x000111e0   Data           0  QCA6174_SCAQBAFM.sym ABSOLUTE
    PFAL_PATCH_Apply                         0x000111e4   Data           0  QCA6174_SCAQBAFM.sym ABSOLUTE
    PFAL_PATCH_SetRegion                     0x000111e8   Data           0  QCA6174_SCAQBAFM.sym ABSOLUTE
    PFAL_PATCH_GetVersion                    0x000111ec   Data           0  QCA6174_SCAQBAFM.sym ABSOLUTE
    PFAL_PATCH_GetLength                     0x000111f0   Data           0  QCA6174_SCAQBAFM.sym ABSOLUTE
    PFAL_PATCH_LoadFromNVM                   0x000111f4   Data           0  QCA6174_SCAQBAFM.sym ABSOLUTE
    PFAL_PATCH_StoreToNVM                    0x000111f8   Data           0  QCA6174_SCAQBAFM.sym ABSOLUTE
    PFAL_RM_initCfg                          0x000111fc   Data           0  QCA6174_SCAQBAFM.sym ABSOLUTE
    PFAL_RM_initTxCfg_EDR                    0x00011200   Data           0  QCA6174_SCAQBAFM.sym ABSOLUTE
    PFAL_RM_Platform_Wake                    0x00011204   Data           0  QCA6174_SCAQBAFM.sym ABSOLUTE
    PFAL_RM_Platform_PriorToSleep            0x00011208   Data           0  QCA6174_SCAQBAFM.sym ABSOLUTE
    PFAL_RM_initCfgToPlatform                0x0001120c   Data           0  QCA6174_SCAQBAFM.sym ABSOLUTE
    PFAL_RM_setTxPower2GFSK_DEFAULT          0x00011210   Data           0  QCA6174_SCAQBAFM.sym ABSOLUTE
    PFAL_RM_setModemTempCalIndexMapping      0x00011214   Data           0  QCA6174_SCAQBAFM.sym ABSOLUTE
    PFAL_RM_filterCalibrationCode            0x00011218   Data           0  QCA6174_SCAQBAFM.sym ABSOLUTE
    PFAL_RM_temperaturePeriodicCalibration   0x0001121c   Data           0  QCA6174_SCAQBAFM.sym ABSOLUTE
    PFAL_RM_tempRead_UpdateIdxValues         0x00011220   Data           0  QCA6174_SCAQBAFM.sym ABSOLUTE
    PFAL_RM_tempUpdateShadow4Sleep           0x00011224   Data           0  QCA6174_SCAQBAFM.sym ABSOLUTE
    PFAL_RM_tempUpdateShadow2HWRegisters     0x00011228   Data           0  QCA6174_SCAQBAFM.sym ABSOLUTE
    PFAL_RM_tempUpdateHWRegisters            0x0001122c   Data           0  QCA6174_SCAQBAFM.sym ABSOLUTE
    PFAL_RM_temperatureSensorIndexCalc       0x00011230   Data           0  QCA6174_SCAQBAFM.sym ABSOLUTE
    PFAL_RM_temperatureTxCoarseIndexTableUpdate 0x00011234   Data           0  QCA6174_SCAQBAFM.sym ABSOLUTE
    PFAL_RM_temperatureTxFineIndexTableUpdate 0x00011238   Data           0  QCA6174_SCAQBAFM.sym ABSOLUTE
    PFAL_RM_temperatureRxCoarseIndexTableUpdate 0x0001123c   Data           0  QCA6174_SCAQBAFM.sym ABSOLUTE
    PFAL_RM_temperatureRxCoarseIndexTableUpdate_part1 0x00011240   Data           0  QCA6174_SCAQBAFM.sym ABSOLUTE
    PFAL_RM_temperatureRxCoarseIndexTableUpdate_part2 0x00011244   Data           0  QCA6174_SCAQBAFM.sym ABSOLUTE
    PFAL_RM_temperatureRxFineIndexTableUpdate 0x00011248   Data           0  QCA6174_SCAQBAFM.sym ABSOLUTE
    PFAL_RM_tempCalWait4NewData              0x0001124c   Data           0  QCA6174_SCAQBAFM.sym ABSOLUTE
    PFAL_RM_updateSSBI2_PVC_table            0x00011250   Data           0  QCA6174_SCAQBAFM.sym ABSOLUTE
    PFAL_RM_BT_SSBI_Access                   0x00011254   Data           0  QCA6174_SCAQBAFM.sym ABSOLUTE
    BT_SSBI_Peek                             0x00011258   Data           0  QCA6174_SCAQBAFM.sym ABSOLUTE
    BT_SSBI_Poke                             0x0001125c   Data           0  QCA6174_SCAQBAFM.sym ABSOLUTE
    PFAL_TRANSPORT_Protected_SSBI_Peek       0x00011260   Data           0  QCA6174_SCAQBAFM.sym ABSOLUTE
    PFAL_TRANSPORT_Protected_SSBI_Poke       0x00011264   Data           0  QCA6174_SCAQBAFM.sym ABSOLUTE
    PFAL_RM_setTxLUT                         0x00011268   Data           0  QCA6174_SCAQBAFM.sym ABSOLUTE
    PFAL_RM_Platform_Config                  0x0001126c   Data           0  QCA6174_SCAQBAFM.sym ABSOLUTE
    PFAL_RM_RUN_BT_STARTUP_CALIBRATIONS      0x00011270   Data           0  QCA6174_SCAQBAFM.sym ABSOLUTE
    PFAL_RM_HW_Restore_TxDcCalGainRegisters  0x00011274   Data           0  QCA6174_SCAQBAFM.sym ABSOLUTE
    PFAL_RM_HW_RestoreShadow_TxDcCalGainRegisters 0x00011278   Data           0  QCA6174_SCAQBAFM.sym ABSOLUTE
    PFAL_RM_HW_Restore_RxRSBCalRegisters     0x0001127c   Data           0  QCA6174_SCAQBAFM.sym ABSOLUTE
    PFAL_RM_HW_RestoreShadow_RxRSBCalRegisters 0x00011280   Data           0  QCA6174_SCAQBAFM.sym ABSOLUTE
    PFAL_RM_HW_Setup_TempCalibration         0x00011284   Data           0  QCA6174_SCAQBAFM.sym ABSOLUTE
    PFAL_RM_HW_Configure_BT_Cal_Analog       0x00011288   Data           0  QCA6174_SCAQBAFM.sym ABSOLUTE
